{
  "contractName": "Bazaar",
  "abi": [
    {
      "inputs": [
        {
          "internalType": "address",
          "name": "_profileContract",
          "type": "address"
        }
      ],
      "stateMutability": "nonpayable",
      "type": "constructor"
    },
    {
      "anonymous": false,
      "inputs": [
        {
          "indexed": true,
          "internalType": "uint256",
          "name": "orderIdx",
          "type": "uint256"
        }
      ],
      "name": "DeliveryApproved",
      "type": "event"
    },
    {
      "anonymous": false,
      "inputs": [
        {
          "indexed": true,
          "internalType": "uint256",
          "name": "orderIdx",
          "type": "uint256"
        }
      ],
      "name": "OrderCancelledBuyBuyer",
      "type": "event"
    },
    {
      "anonymous": false,
      "inputs": [
        {
          "indexed": true,
          "internalType": "uint256",
          "name": "orderIdx",
          "type": "uint256"
        }
      ],
      "name": "OrderCancelledBuySeller",
      "type": "event"
    },
    {
      "anonymous": false,
      "inputs": [
        {
          "indexed": true,
          "internalType": "uint256",
          "name": "orderIdx",
          "type": "uint256"
        }
      ],
      "name": "OrderClosed",
      "type": "event"
    },
    {
      "anonymous": false,
      "inputs": [
        {
          "indexed": true,
          "internalType": "uint256",
          "name": "orderIdx",
          "type": "uint256"
        },
        {
          "indexed": true,
          "internalType": "address",
          "name": "seller",
          "type": "address"
        }
      ],
      "name": "OrderPlaced",
      "type": "event"
    },
    {
      "anonymous": false,
      "inputs": [
        {
          "indexed": true,
          "internalType": "uint256",
          "name": "orderIdx",
          "type": "uint256"
        },
        {
          "indexed": true,
          "internalType": "address",
          "name": "buyer",
          "type": "address"
        }
      ],
      "name": "OrderSold",
      "type": "event"
    },
    {
      "anonymous": false,
      "inputs": [
        {
          "indexed": true,
          "internalType": "uint256",
          "name": "orderIdx",
          "type": "uint256"
        }
      ],
      "name": "OrderWithdrew",
      "type": "event"
    },
    {
      "anonymous": false,
      "inputs": [
        {
          "indexed": true,
          "internalType": "address",
          "name": "previousOwner",
          "type": "address"
        },
        {
          "indexed": true,
          "internalType": "address",
          "name": "newOwner",
          "type": "address"
        }
      ],
      "name": "OwnershipTransferred",
      "type": "event"
    },
    {
      "inputs": [
        {
          "internalType": "uint256",
          "name": "",
          "type": "uint256"
        }
      ],
      "name": "allowedSourceAssets",
      "outputs": [
        {
          "internalType": "string",
          "name": "symbol",
          "type": "string"
        },
        {
          "internalType": "bool",
          "name": "deleted",
          "type": "bool"
        }
      ],
      "stateMutability": "view",
      "type": "function"
    },
    {
      "inputs": [],
      "name": "buyFee",
      "outputs": [
        {
          "internalType": "uint256",
          "name": "",
          "type": "uint256"
        }
      ],
      "stateMutability": "view",
      "type": "function"
    },
    {
      "inputs": [],
      "name": "cancellationFee",
      "outputs": [
        {
          "internalType": "uint256",
          "name": "",
          "type": "uint256"
        }
      ],
      "stateMutability": "view",
      "type": "function"
    },
    {
      "inputs": [],
      "name": "closeFee",
      "outputs": [
        {
          "internalType": "uint256",
          "name": "",
          "type": "uint256"
        }
      ],
      "stateMutability": "view",
      "type": "function"
    },
    {
      "inputs": [],
      "name": "feeTo",
      "outputs": [
        {
          "internalType": "address",
          "name": "",
          "type": "address"
        }
      ],
      "stateMutability": "view",
      "type": "function"
    },
    {
      "inputs": [],
      "name": "feeToSetter",
      "outputs": [
        {
          "internalType": "address",
          "name": "",
          "type": "address"
        }
      ],
      "stateMutability": "view",
      "type": "function"
    },
    {
      "inputs": [],
      "name": "guaranteePercent",
      "outputs": [
        {
          "internalType": "uint256",
          "name": "",
          "type": "uint256"
        }
      ],
      "stateMutability": "view",
      "type": "function"
    },
    {
      "inputs": [],
      "name": "maxDeliveryTime",
      "outputs": [
        {
          "internalType": "uint256",
          "name": "",
          "type": "uint256"
        }
      ],
      "stateMutability": "view",
      "type": "function"
    },
    {
      "inputs": [
        {
          "internalType": "uint256",
          "name": "",
          "type": "uint256"
        }
      ],
      "name": "orders",
      "outputs": [
        {
          "internalType": "uint256",
          "name": "id",
          "type": "uint256"
        },
        {
          "internalType": "address",
          "name": "seller",
          "type": "address"
        },
        {
          "internalType": "address",
          "name": "buyer",
          "type": "address"
        },
        {
          "internalType": "uint256",
          "name": "createdAt",
          "type": "uint256"
        },
        {
          "internalType": "uint256",
          "name": "deadline",
          "type": "uint256"
        },
        {
          "internalType": "enum Bazaar.OrderState",
          "name": "state",
          "type": "uint8"
        },
        {
          "internalType": "uint256",
          "name": "sourceAsset",
          "type": "uint256"
        },
        {
          "internalType": "address",
          "name": "targetAsset",
          "type": "address"
        },
        {
          "internalType": "uint256",
          "name": "sourceAmount",
          "type": "uint256"
        },
        {
          "internalType": "uint256",
          "name": "targetAmount",
          "type": "uint256"
        }
      ],
      "stateMutability": "view",
      "type": "function"
    },
    {
      "inputs": [],
      "name": "owner",
      "outputs": [
        {
          "internalType": "address",
          "name": "",
          "type": "address"
        }
      ],
      "stateMutability": "view",
      "type": "function"
    },
    {
      "inputs": [],
      "name": "profileContract",
      "outputs": [
        {
          "internalType": "address",
          "name": "",
          "type": "address"
        }
      ],
      "stateMutability": "view",
      "type": "function"
    },
    {
      "inputs": [],
      "name": "renounceOwnership",
      "outputs": [],
      "stateMutability": "nonpayable",
      "type": "function"
    },
    {
      "inputs": [],
      "name": "sellFee",
      "outputs": [
        {
          "internalType": "uint256",
          "name": "",
          "type": "uint256"
        }
      ],
      "stateMutability": "view",
      "type": "function"
    },
    {
      "inputs": [
        {
          "internalType": "address",
          "name": "newOwner",
          "type": "address"
        }
      ],
      "name": "transferOwnership",
      "outputs": [],
      "stateMutability": "nonpayable",
      "type": "function"
    },
    {
      "inputs": [
        {
          "internalType": "address",
          "name": "_feeTo",
          "type": "address"
        }
      ],
      "name": "setFeeTo",
      "outputs": [],
      "stateMutability": "nonpayable",
      "type": "function"
    },
    {
      "inputs": [
        {
          "internalType": "address",
          "name": "_feeToSetter",
          "type": "address"
        }
      ],
      "name": "setFeeToSetter",
      "outputs": [],
      "stateMutability": "nonpayable",
      "type": "function"
    },
    {
      "inputs": [
        {
          "internalType": "uint256",
          "name": "_value",
          "type": "uint256"
        }
      ],
      "name": "setGuaranteePercent",
      "outputs": [],
      "stateMutability": "nonpayable",
      "type": "function"
    },
    {
      "inputs": [
        {
          "internalType": "uint256",
          "name": "_value",
          "type": "uint256"
        }
      ],
      "name": "setCloseFee",
      "outputs": [],
      "stateMutability": "nonpayable",
      "type": "function"
    },
    {
      "inputs": [
        {
          "internalType": "uint256",
          "name": "_value",
          "type": "uint256"
        }
      ],
      "name": "setSellFee",
      "outputs": [],
      "stateMutability": "nonpayable",
      "type": "function"
    },
    {
      "inputs": [
        {
          "internalType": "uint256",
          "name": "_value",
          "type": "uint256"
        }
      ],
      "name": "setBuyFee",
      "outputs": [],
      "stateMutability": "nonpayable",
      "type": "function"
    },
    {
      "inputs": [
        {
          "internalType": "uint256",
          "name": "_value",
          "type": "uint256"
        }
      ],
      "name": "setCancellationFee",
      "outputs": [],
      "stateMutability": "nonpayable",
      "type": "function"
    },
    {
      "inputs": [
        {
          "internalType": "address",
          "name": "addr",
          "type": "address"
        }
      ],
      "name": "setProfile",
      "outputs": [],
      "stateMutability": "nonpayable",
      "type": "function"
    },
    {
      "inputs": [
        {
          "internalType": "string",
          "name": "_symbol",
          "type": "string"
        }
      ],
      "name": "addAllowedSourceAsset",
      "outputs": [],
      "stateMutability": "nonpayable",
      "type": "function"
    },
    {
      "inputs": [
        {
          "internalType": "uint256",
          "name": "_idx",
          "type": "uint256"
        }
      ],
      "name": "disableAllowedSourceAsset",
      "outputs": [],
      "stateMutability": "nonpayable",
      "type": "function"
    },
    {
      "inputs": [
        {
          "internalType": "uint256",
          "name": "_idx",
          "type": "uint256"
        }
      ],
      "name": "enableAllowedSourceAsset",
      "outputs": [],
      "stateMutability": "nonpayable",
      "type": "function"
    },
    {
      "inputs": [
        {
          "internalType": "uint256",
          "name": "sourceAsset",
          "type": "uint256"
        },
        {
          "internalType": "uint256",
          "name": "sourceAmount",
          "type": "uint256"
        },
        {
          "internalType": "address",
          "name": "targetAsset",
          "type": "address"
        },
        {
          "internalType": "uint256",
          "name": "targetAmount",
          "type": "uint256"
        },
        {
          "internalType": "uint256",
          "name": "timeout",
          "type": "uint256"
        }
      ],
      "name": "placeOrder",
      "outputs": [
        {
          "internalType": "uint256",
          "name": "",
          "type": "uint256"
        }
      ],
      "stateMutability": "nonpayable",
      "type": "function"
    },
    {
      "inputs": [
        {
          "internalType": "uint256",
          "name": "_orderIdx",
          "type": "uint256"
        }
      ],
      "name": "close",
      "outputs": [],
      "stateMutability": "nonpayable",
      "type": "function"
    },
    {
      "inputs": [
        {
          "internalType": "uint256",
          "name": "_orderIdx",
          "type": "uint256"
        }
      ],
      "name": "withdraw",
      "outputs": [],
      "stateMutability": "nonpayable",
      "type": "function"
    },
    {
      "inputs": [
        {
          "internalType": "uint256",
          "name": "_orderIdx",
          "type": "uint256"
        }
      ],
      "name": "buy",
      "outputs": [],
      "stateMutability": "nonpayable",
      "type": "function"
    },
    {
      "inputs": [
        {
          "internalType": "uint256",
          "name": "_orderIdx",
          "type": "uint256"
        }
      ],
      "name": "approveDelivery",
      "outputs": [],
      "stateMutability": "nonpayable",
      "type": "function"
    },
    {
      "inputs": [
        {
          "internalType": "uint256",
          "name": "_orderIdx",
          "type": "uint256"
        }
      ],
      "name": "cancelForSeller",
      "outputs": [],
      "stateMutability": "nonpayable",
      "type": "function"
    },
    {
      "inputs": [
        {
          "internalType": "uint256",
          "name": "_orderIdx",
          "type": "uint256"
        }
      ],
      "name": "cancelForBuyer",
      "outputs": [],
      "stateMutability": "nonpayable",
      "type": "function"
    },
    {
      "inputs": [
        {
          "internalType": "uint256",
          "name": "fromID",
          "type": "uint256"
        },
        {
          "internalType": "uint256",
          "name": "maxLength",
          "type": "uint256"
        },
        {
          "internalType": "address",
          "name": "buyer",
          "type": "address"
        },
        {
          "internalType": "address",
          "name": "seller",
          "type": "address"
        },
        {
          "internalType": "enum Bazaar.OrderState[]",
          "name": "states",
          "type": "uint8[]"
        },
        {
          "internalType": "uint256",
          "name": "fromDate",
          "type": "uint256"
        },
        {
          "internalType": "uint256",
          "name": "toDate",
          "type": "uint256"
        },
        {
          "internalType": "uint256[]",
          "name": "sourceAssets",
          "type": "uint256[]"
        }
      ],
      "name": "fetchOrders",
      "outputs": [
        {
          "components": [
            {
              "internalType": "uint256",
              "name": "id",
              "type": "uint256"
            },
            {
              "internalType": "address",
              "name": "seller",
              "type": "address"
            },
            {
              "internalType": "address",
              "name": "buyer",
              "type": "address"
            },
            {
              "internalType": "uint256",
              "name": "createdAt",
              "type": "uint256"
            },
            {
              "internalType": "uint256",
              "name": "deadline",
              "type": "uint256"
            },
            {
              "internalType": "enum Bazaar.OrderState",
              "name": "state",
              "type": "uint8"
            },
            {
              "internalType": "uint256",
              "name": "sourceAsset",
              "type": "uint256"
            },
            {
              "internalType": "address",
              "name": "targetAsset",
              "type": "address"
            },
            {
              "internalType": "uint256",
              "name": "sourceAmount",
              "type": "uint256"
            },
            {
              "internalType": "uint256",
              "name": "targetAmount",
              "type": "uint256"
            }
          ],
          "internalType": "struct Bazaar.Order[]",
          "name": "",
          "type": "tuple[]"
        }
      ],
      "stateMutability": "view",
      "type": "function"
    }
  ],
  "bytecode": "0x60806040523480156200001157600080fd5b50604051620054f6380380620054f68339818101604052810190620000379190620003be565b6000620000496200029c60201b60201c565b9050806000806101000a81548173ffffffffffffffffffffffffffffffffffffffff021916908373ffffffffffffffffffffffffffffffffffffffff1602179055508073ffffffffffffffffffffffffffffffffffffffff16600073ffffffffffffffffffffffffffffffffffffffff167f8be0079c531659141344cd1fd0a4f28419497f9722a3daafe3b4186f6b6457e060405160405180910390a35080600560006101000a81548173ffffffffffffffffffffffffffffffffffffffff021916908373ffffffffffffffffffffffffffffffffffffffff160217905550600260405180604001604052806040518060400160405280600481526020017f474f4c440000000000000000000000000000000000000000000000000000000081525081526020016000151581525090806001815401808255809150506001900390600052602060002090600202016000909190919091506000820151816000019080519060200190620001be929190620002a4565b5060208201518160010160006101000a81548160ff0219169083151502179055505050612710600781905550606460088190555060646009819055506064600a819055506064600b8190555033600460006101000a81548173ffffffffffffffffffffffffffffffffffffffff021916908373ffffffffffffffffffffffffffffffffffffffff16021790555033600360006101000a81548173ffffffffffffffffffffffffffffffffffffffff021916908373ffffffffffffffffffffffffffffffffffffffff1602179055506170806006819055505062000455565b600033905090565b828054620002b2906200041f565b90600052602060002090601f016020900481019282620002d6576000855562000322565b82601f10620002f157805160ff191683800117855562000322565b8280016001018555821562000322579182015b828111156200032157825182559160200191906001019062000304565b5b50905062000331919062000335565b5090565b5b808211156200035057600081600090555060010162000336565b5090565b600080fd5b600073ffffffffffffffffffffffffffffffffffffffff82169050919050565b6000620003868262000359565b9050919050565b620003988162000379565b8114620003a457600080fd5b50565b600081519050620003b8816200038d565b92915050565b600060208284031215620003d757620003d662000354565b5b6000620003e784828501620003a7565b91505092915050565b7f4e487b7100000000000000000000000000000000000000000000000000000000600052602260045260246000fd5b600060028204905060018216806200043857607f821691505b602082108114156200044f576200044e620003f0565b5b50919050565b61509180620004656000396000f3fe608060405234801561001057600080fd5b506004361061020b5760003560e01c806370492cbf1161012a578063a85c38ef116100bd578063e3fb75e41161008c578063f2fde38b11610071578063f2fde38b146105b2578063f46901ed146105ce578063f7d7c770146105ea5761020b565b8063e3fb75e414610578578063f1f9715e146105945761020b565b8063a85c38ef146104eb578063c94b674b14610524578063d96a094a14610540578063e0b6a1e31461055c5761020b565b8063a2e74af6116100f9578063a2e74af614610479578063a3974b2114610495578063a5de0423146104b3578063a68b9657146104cf5761020b565b806370492cbf14610417578063715018a6146104355780638b4cee081461043f5780638da5cb5b1461045b5761020b565b80632dd10ad3116101a2578063470624021161017157806347062402146103a35780634863f5ea146103c157806360eec280146103dd5780636ef569a5146103f95761020b565b80632dd10ad31461030b5780632e1a7d4d146103275780633b6cbd4b146103435780633d9e05ac146103735761020b565b80631148a348116101de5780631148a3481461028457806312b48c1e146102a05780632a251e8d146102d15780632b14ca56146102ed5761020b565b8063017e7e5814610210578063094b74151461022e5780630aebeb4e1461024c5780630cc835a314610268575b600080fd5b610218610608565b6040516102259190613ae8565b60405180910390f35b61023661062e565b6040516102439190613ae8565b60405180910390f35b61026660048036038101906102619190613b4d565b610654565b005b610282600480360381019061027d9190613b4d565b6109b4565b005b61029e60048036038101906102999190613cc0565b610a53565b005b6102ba60048036038101906102b59190613b4d565b610b6d565b6040516102c8929190613dac565b60405180910390f35b6102eb60048036038101906102e69190613b4d565b610c36565b005b6102f5610edc565b6040516103029190613deb565b60405180910390f35b61032560048036038101906103209190613b4d565b610ee2565b005b610341600480360381019061033c9190613b4d565b610f81565b005b61035d60048036038101906103589190613fe2565b61126b565b60405161036a91906142e1565b60405180910390f35b61038d60048036038101906103889190614303565b611856565b60405161039a9190613deb565b60405180910390f35b6103ab611d42565b6040516103b89190613deb565b60405180910390f35b6103db60048036038101906103d69190613b4d565b611d48565b005b6103f760048036038101906103f29190613b4d565b611e1e565b005b610401611ef4565b60405161040e9190613deb565b60405180910390f35b61041f611efa565b60405161042c9190613deb565b60405180910390f35b61043d611f00565b005b61045960048036038101906104549190613b4d565b612053565b005b6104636120f2565b6040516104709190613ae8565b60405180910390f35b610493600480360381019061048e919061437e565b61211b565b005b61049d6121ef565b6040516104aa9190613ae8565b60405180910390f35b6104cd60048036038101906104c89190613b4d565b612215565b005b6104e960048036038101906104e49190613b4d565b6122b4565b005b61050560048036038101906105009190613b4d565b612353565b60405161051b9a999897969594939291906143ba565b60405180910390f35b61053e60048036038101906105399190613b4d565b612424565b005b61055a60048036038101906105559190613b4d565b6127ae565b005b6105766004803603810190610571919061437e565b612b10565b005b610592600480360381019061058d9190613b4d565b612be9565b005b61059c612e8f565b6040516105a99190613deb565b60405180910390f35b6105cc60048036038101906105c7919061437e565b612e95565b005b6105e860048036038101906105e3919061437e565b612f36565b005b6105f261300a565b6040516105ff9190613deb565b60405180910390f35b600360009054906101000a900473ffffffffffffffffffffffffffffffffffffffff1681565b600460009054906101000a900473ffffffffffffffffffffffffffffffffffffffff1681565b80600180549050811061069c576040517f08c379a0000000000000000000000000000000000000000000000000000000008152600401610693906144a2565b60405180910390fd5b81600181815481106106b1576106b06144c2565b5b90600052602060002090600a020160010160009054906101000a900473ffffffffffffffffffffffffffffffffffffffff1673ffffffffffffffffffffffffffffffffffffffff163373ffffffffffffffffffffffffffffffffffffffff1614610750576040517f08c379a00000000000000000000000000000000000000000000000000000000081526004016107479061453d565b60405180910390fd5b8260008060088111156107665761076561411a565b5b6001838154811061077a576107796144c2565b5b90600052602060002090600a020160050160009054906101000a900460ff1660088111156107ab576107aa61411a565b5b146107eb576040517f08c379a00000000000000000000000000000000000000000000000000000000081526004016107e2906145a9565b60405180910390fd5b8460018181548110610800576107ff6144c2565b5b90600052602060002090600a0201600401544210610853576040517f08c379a000000000000000000000000000000000000000000000000000000000815260040161084a90614615565b60405180910390fd5b600060018781548110610869576108686144c2565b5b90600052602060002090600a0201905060048160050160006101000a81548160ff021916908360088111156108a1576108a061411a565b5b021790555060006108b188613010565b905060006108be8961306d565b905060006108d582846130ca90919063ffffffff16565b90506109288460070160009054906101000a900473ffffffffffffffffffffffffffffffffffffffff16600360009054906101000a900473ffffffffffffffffffffffffffffffffffffffff1684613114565b61097b8460070160009054906101000a900473ffffffffffffffffffffffffffffffffffffffff168560010160009054906101000a900473ffffffffffffffffffffffffffffffffffffffff1683613114565b897fa7bec7790a90eefc51c752a274c61fa256e58e17fbfeb1340045117ada7f2f4460405160405180910390a250505050505050505050565b6109bc61324a565b73ffffffffffffffffffffffffffffffffffffffff1660008054906101000a900473ffffffffffffffffffffffffffffffffffffffff1673ffffffffffffffffffffffffffffffffffffffff1614610a49576040517f08c379a0000000000000000000000000000000000000000000000000000000008152600401610a4090614681565b60405180910390fd5b80600a8190555050565b610a5b61324a565b73ffffffffffffffffffffffffffffffffffffffff1660008054906101000a900473ffffffffffffffffffffffffffffffffffffffff1673ffffffffffffffffffffffffffffffffffffffff1614610ae8576040517f08c379a0000000000000000000000000000000000000000000000000000000008152600401610adf90614681565b60405180910390fd5b600260405180604001604052808381526020016000151581525090806001815401808255809150506001900390600052602060002090600202016000909190919091506000820151816000019080519060200190610b4792919061395d565b5060208201518160010160006101000a81548160ff021916908315150217905550505050565b60028181548110610b7d57600080fd5b9060005260206000209060020201600091509050806000018054610ba0906146d0565b80601f0160208091040260200160405190810160405280929190818152602001828054610bcc906146d0565b8015610c195780601f10610bee57610100808354040283529160200191610c19565b820191906000526020600020905b815481529060010190602001808311610bfc57829003601f168201915b5050505050908060010160009054906101000a900460ff16905082565b806001805490508110610c7e576040517f08c379a0000000000000000000000000000000000000000000000000000000008152600401610c75906144a2565b60405180910390fd5b8160018181548110610c9357610c926144c2565b5b90600052602060002090600a020160020160009054906101000a900473ffffffffffffffffffffffffffffffffffffffff1673ffffffffffffffffffffffffffffffffffffffff163373ffffffffffffffffffffffffffffffffffffffff1614610d32576040517f08c379a0000000000000000000000000000000000000000000000000000000008152600401610d299061474e565b60405180910390fd5b826001806008811115610d4857610d4761411a565b5b60018381548110610d5c57610d5b6144c2565b5b90600052602060002090600a020160050160009054906101000a900460ff166008811115610d8d57610d8c61411a565b5b14610dcd576040517f08c379a0000000000000000000000000000000000000000000000000000000008152600401610dc4906145a9565b60405180910390fd5b8442610e0960065460018481548110610de957610de86144c2565b5b90600052602060002090600a02016003015461325290919063ffffffff16565b1115610e4a576040517f08c379a0000000000000000000000000000000000000000000000000000000008152600401610e41906147e0565b60405180910390fd5b600060018781548110610e6057610e5f6144c2565b5b90600052602060002090600a0201905060088160050160006101000a81548160ff02191690836008811115610e9857610e9761411a565b5b0217905550610ea6876132b0565b867fc22197d0c720c62b5f15b74940989e1fa858c314629c439c68938f67ba1a3ff960405160405180910390a250505050505050565b60095481565b610eea61324a565b73ffffffffffffffffffffffffffffffffffffffff1660008054906101000a900473ffffffffffffffffffffffffffffffffffffffff1673ffffffffffffffffffffffffffffffffffffffff1614610f77576040517f08c379a0000000000000000000000000000000000000000000000000000000008152600401610f6e90614681565b60405180910390fd5b80600b8190555050565b806001805490508110610fc9576040517f08c379a0000000000000000000000000000000000000000000000000000000008152600401610fc0906144a2565b60405180910390fd5b8160018181548110610fde57610fdd6144c2565b5b90600052602060002090600a020160010160009054906101000a900473ffffffffffffffffffffffffffffffffffffffff1673ffffffffffffffffffffffffffffffffffffffff163373ffffffffffffffffffffffffffffffffffffffff161461107d576040517f08c379a00000000000000000000000000000000000000000000000000000000081526004016110749061453d565b60405180910390fd5b8260008060088111156110935761109261411a565b5b600183815481106110a7576110a66144c2565b5b90600052602060002090600a020160050160009054906101000a900460ff1660088111156110d8576110d761411a565b5b14611118576040517f08c379a000000000000000000000000000000000000000000000000000000000815260040161110f906145a9565b60405180910390fd5b846001818154811061112d5761112c6144c2565b5b90600052602060002090600a020160040154421015611181576040517f08c379a000000000000000000000000000000000000000000000000000000000815260040161117890614872565b60405180910390fd5b600060018781548110611197576111966144c2565b5b90600052602060002090600a0201905060058160050160006101000a81548160ff021916908360088111156111cf576111ce61411a565b5b021790555060006111df88613010565b90506112348260070160009054906101000a900473ffffffffffffffffffffffffffffffffffffffff168360010160009054906101000a900473ffffffffffffffffffffffffffffffffffffffff1683613114565b877fc7d43b3723bab504e5057a41f205352c6c386c65f7e84f61e02775958cb9046e60405160405180910390a25050505050505050565b606060008060018054905067ffffffffffffffff81111561128f5761128e613b95565b5b6040519080825280602002602001820160405280156112c857816020015b6112b56139e3565b8152602001906001900390816112ad5790505b509050600060018c6112da91906148c1565b90505b60008110611793578a83106112f157611793565b600060018281548110611307576113066144c2565b5b90600052602060002090600a02019050600073ffffffffffffffffffffffffffffffffffffffff168b73ffffffffffffffffffffffffffffffffffffffff16146113a9578a73ffffffffffffffffffffffffffffffffffffffff168160020160009054906101000a900473ffffffffffffffffffffffffffffffffffffffff1673ffffffffffffffffffffffffffffffffffffffff16146113a85750611780565b5b600073ffffffffffffffffffffffffffffffffffffffff168a73ffffffffffffffffffffffffffffffffffffffff161461143b578973ffffffffffffffffffffffffffffffffffffffff168160010160009054906101000a900473ffffffffffffffffffffffffffffffffffffffff1673ffffffffffffffffffffffffffffffffffffffff161461143a5750611780565b5b60008811156114575787816003015410156114565750611780565b5b60008711156114735786816003015411156114725750611780565b5b6000865111156114db576000805b87518110156114cc5787818151811061149d5761149c6144c2565b5b6020026020010151836006015414156114b957600191506114cc565b80806114c4906148f5565b915050611481565b50806114d9575050611780565b505b6000895111156115cc576000805b8a518110156115bd578a8181518110611505576115046144c2565b5b6020026020010151600881111561151f5761151e61411a565b5b8360050160009054906101000a900460ff1660088111156115435761154261411a565b5b141561155257600191506115bd565b600660088111156115665761156561411a565b5b8b8281518110611579576115786144c2565b5b602002602001015160088111156115935761159261411a565b5b14156115aa57428360040154116115a957600191505b5b80806115b5906148f5565b9150506114e9565b50806115ca575050611780565b505b8060405180610140016040529081600082015481526020016001820160009054906101000a900473ffffffffffffffffffffffffffffffffffffffff1673ffffffffffffffffffffffffffffffffffffffff1673ffffffffffffffffffffffffffffffffffffffff1681526020016002820160009054906101000a900473ffffffffffffffffffffffffffffffffffffffff1673ffffffffffffffffffffffffffffffffffffffff1673ffffffffffffffffffffffffffffffffffffffff16815260200160038201548152602001600482015481526020016005820160009054906101000a900460ff1660088111156116c8576116c761411a565b5b60088111156116da576116d961411a565b5b8152602001600682015481526020016007820160009054906101000a900473ffffffffffffffffffffffffffffffffffffffff1673ffffffffffffffffffffffffffffffffffffffff1673ffffffffffffffffffffffffffffffffffffffff16815260200160088201548152602001600982015481525050838581518110611765576117646144c2565b5b6020026020010181905250838061177b906148f5565b945050505b808061178b9061493e565b9150506112dd565b5060008267ffffffffffffffff8111156117b0576117af613b95565b5b6040519080825280602002602001820160405280156117e957816020015b6117d66139e3565b8152602001906001900390816117ce5790505b50905060005b838110156118435782818151811061180a576118096144c2565b5b6020026020010151828281518110611825576118246144c2565b5b6020026020010181905250808061183b906148f5565b9150506117ef565b5080935050505098975050505050505050565b6000600560009054906101000a900473ffffffffffffffffffffffffffffffffffffffff1673ffffffffffffffffffffffffffffffffffffffff1663b2dd5c07336040518263ffffffff1660e01b81526004016118b39190613ae8565b602060405180830381865afa1580156118d0573d6000803e3d6000fd5b505050506040513d601f19601f820116820180604052508101906118f49190614994565b611933576040517f08c379a000000000000000000000000000000000000000000000000000000000815260040161192a90614a0d565b60405180910390fd5b8560028054905081108015611978575060028181548110611957576119566144c2565b5b906000526020600020906002020160010160009054906101000a900460ff16155b6119b7576040517f08c379a00000000000000000000000000000000000000000000000000000000081526004016119ae90614a79565b60405180910390fd5b600086116119fa576040517f08c379a00000000000000000000000000000000000000000000000000000000081526004016119f190614ae5565b60405180910390fd5b60008411611a3d576040517f08c379a0000000000000000000000000000000000000000000000000000000008152600401611a3490614b51565b60405180910390fd5b611a456139e3565b60018054905081600001818152505033816020019073ffffffffffffffffffffffffffffffffffffffff16908173ffffffffffffffffffffffffffffffffffffffff16815250508342611a989190614b71565b81608001818152505042816060018181525050878160c00181815250508681610100018181525050858160e0019073ffffffffffffffffffffffffffffffffffffffff16908173ffffffffffffffffffffffffffffffffffffffff1681525050848161012001818152505060008160a001906008811115611b1c57611b1b61411a565b5b90816008811115611b3057611b2f61411a565b5b8152505060018190806001815401808255809150506001900390600052602060002090600a02016000909190919091506000820151816000015560208201518160010160006101000a81548173ffffffffffffffffffffffffffffffffffffffff021916908373ffffffffffffffffffffffffffffffffffffffff16021790555060408201518160020160006101000a81548173ffffffffffffffffffffffffffffffffffffffff021916908373ffffffffffffffffffffffffffffffffffffffff160217905550606082015181600301556080820151816004015560a08201518160050160006101000a81548160ff02191690836008811115611c3757611c3661411a565b5b021790555060c0820151816006015560e08201518160070160006101000a81548173ffffffffffffffffffffffffffffffffffffffff021916908373ffffffffffffffffffffffffffffffffffffffff1602179055506101008201518160080155610120820151816009015550506000611cd1620186a0611cc36007548961345490919063ffffffff16565b6134cf90919063ffffffff16565b9050611ce38260e00151333084613519565b816020015173ffffffffffffffffffffffffffffffffffffffff1682600001517f5222ba5f86a58ad15e7771bd95a809f162ae1762ea7cd66e28a58217341334cc60405160405180910390a38160000151935050505095945050505050565b600a5481565b611d5061324a565b73ffffffffffffffffffffffffffffffffffffffff1660008054906101000a900473ffffffffffffffffffffffffffffffffffffffff1673ffffffffffffffffffffffffffffffffffffffff1614611ddd576040517f08c379a0000000000000000000000000000000000000000000000000000000008152600401611dd490614681565b60405180910390fd5b600160028281548110611df357611df26144c2565b5b906000526020600020906002020160010160006101000a81548160ff02191690831515021790555050565b611e2661324a565b73ffffffffffffffffffffffffffffffffffffffff1660008054906101000a900473ffffffffffffffffffffffffffffffffffffffff1673ffffffffffffffffffffffffffffffffffffffff1614611eb3576040517f08c379a0000000000000000000000000000000000000000000000000000000008152600401611eaa90614681565b60405180910390fd5b600060028281548110611ec957611ec86144c2565b5b906000526020600020906002020160010160006101000a81548160ff02191690831515021790555050565b600b5481565b60085481565b611f0861324a565b73ffffffffffffffffffffffffffffffffffffffff1660008054906101000a900473ffffffffffffffffffffffffffffffffffffffff1673ffffffffffffffffffffffffffffffffffffffff1614611f95576040517f08c379a0000000000000000000000000000000000000000000000000000000008152600401611f8c90614681565b60405180910390fd5b600073ffffffffffffffffffffffffffffffffffffffff1660008054906101000a900473ffffffffffffffffffffffffffffffffffffffff1673ffffffffffffffffffffffffffffffffffffffff167f8be0079c531659141344cd1fd0a4f28419497f9722a3daafe3b4186f6b6457e060405160405180910390a360008060006101000a81548173ffffffffffffffffffffffffffffffffffffffff021916908373ffffffffffffffffffffffffffffffffffffffff160217905550565b61205b61324a565b73ffffffffffffffffffffffffffffffffffffffff1660008054906101000a900473ffffffffffffffffffffffffffffffffffffffff1673ffffffffffffffffffffffffffffffffffffffff16146120e8576040517f08c379a00000000000000000000000000000000000000000000000000000000081526004016120df90614681565b60405180910390fd5b8060098190555050565b60008060009054906101000a900473ffffffffffffffffffffffffffffffffffffffff16905090565b600460009054906101000a900473ffffffffffffffffffffffffffffffffffffffff1673ffffffffffffffffffffffffffffffffffffffff163373ffffffffffffffffffffffffffffffffffffffff16146121ab576040517f08c379a00000000000000000000000000000000000000000000000000000000081526004016121a290614c13565b60405180910390fd5b80600460006101000a81548173ffffffffffffffffffffffffffffffffffffffff021916908373ffffffffffffffffffffffffffffffffffffffff16021790555050565b600560009054906101000a900473ffffffffffffffffffffffffffffffffffffffff1681565b61221d61324a565b73ffffffffffffffffffffffffffffffffffffffff1660008054906101000a900473ffffffffffffffffffffffffffffffffffffffff1673ffffffffffffffffffffffffffffffffffffffff16146122aa576040517f08c379a00000000000000000000000000000000000000000000000000000000081526004016122a190614681565b60405180910390fd5b8060078190555050565b6122bc61324a565b73ffffffffffffffffffffffffffffffffffffffff1660008054906101000a900473ffffffffffffffffffffffffffffffffffffffff1673ffffffffffffffffffffffffffffffffffffffff1614612349576040517f08c379a000000000000000000000000000000000000000000000000000000000815260040161234090614681565b60405180910390fd5b8060088190555050565b6001818154811061236357600080fd5b90600052602060002090600a02016000915090508060000154908060010160009054906101000a900473ffffffffffffffffffffffffffffffffffffffff16908060020160009054906101000a900473ffffffffffffffffffffffffffffffffffffffff16908060030154908060040154908060050160009054906101000a900460ff16908060060154908060070160009054906101000a900473ffffffffffffffffffffffffffffffffffffffff1690806008015490806009015490508a565b80600180549050811061246c576040517f08c379a0000000000000000000000000000000000000000000000000000000008152600401612463906144a2565b60405180910390fd5b8160018181548110612481576124806144c2565b5b90600052602060002090600a020160020160009054906101000a900473ffffffffffffffffffffffffffffffffffffffff1673ffffffffffffffffffffffffffffffffffffffff163373ffffffffffffffffffffffffffffffffffffffff1614612520576040517f08c379a00000000000000000000000000000000000000000000000000000000081526004016125179061474e565b60405180910390fd5b8260018060088111156125365761253561411a565b5b6001838154811061254a576125496144c2565b5b90600052602060002090600a020160050160009054906101000a900460ff16600881111561257b5761257a61411a565b5b146125bb576040517f08c379a00000000000000000000000000000000000000000000000000000000081526004016125b2906145a9565b60405180910390fd5b6000600186815481106125d1576125d06144c2565b5b90600052602060002090600a0201905060038160050160006101000a81548160ff021916908360088111156126095761260861411a565b5b0217905550600061261987613010565b9050600061262688613652565b90506000612633896136af565b9050600061264a828461325290919063ffffffff16565b905060006126778361266987896009015461325290919063ffffffff16565b6130ca90919063ffffffff16565b90506126cc8660070160009054906101000a900473ffffffffffffffffffffffffffffffffffffffff168760010160009054906101000a900473ffffffffffffffffffffffffffffffffffffffff1683613114565b600073ffffffffffffffffffffffffffffffffffffffff16600360009054906101000a900473ffffffffffffffffffffffffffffffffffffffff1673ffffffffffffffffffffffffffffffffffffffff1614612774576127738660070160009054906101000a900473ffffffffffffffffffffffffffffffffffffffff16600360009054906101000a900473ffffffffffffffffffffffffffffffffffffffff1684613114565b5b8a7f5c1e662f72ee6c85181b65fac5beb0390932b8c472f05b257151d041ac9ddffa60405160405180910390a25050505050505050505050565b600560009054906101000a900473ffffffffffffffffffffffffffffffffffffffff1673ffffffffffffffffffffffffffffffffffffffff1663b2dd5c07336040518263ffffffff1660e01b81526004016128099190613ae8565b602060405180830381865afa158015612826573d6000803e3d6000fd5b505050506040513d601f19601f8201168201806040525081019061284a9190614994565b612889576040517f08c379a000000000000000000000000000000000000000000000000000000000815260040161288090614a0d565b60405180910390fd5b8060018054905081106128d1576040517f08c379a00000000000000000000000000000000000000000000000000000000081526004016128c8906144a2565b60405180910390fd5b8160008060088111156128e7576128e661411a565b5b600183815481106128fb576128fa6144c2565b5b90600052602060002090600a020160050160009054906101000a900460ff16600881111561292c5761292b61411a565b5b1461296c576040517f08c379a0000000000000000000000000000000000000000000000000000000008152600401612963906145a9565b60405180910390fd5b8360018181548110612981576129806144c2565b5b90600052602060002090600a02016004015442106129d4576040517f08c379a00000000000000000000000000000000000000000000000000000000081526004016129cb90614615565b60405180910390fd5b6000600186815481106129ea576129e96144c2565b5b90600052602060002090600a02019050338160020160006101000a81548173ffffffffffffffffffffffffffffffffffffffff021916908373ffffffffffffffffffffffffffffffffffffffff16021790555060018160050160006101000a81548160ff02191690836008811115612a6557612a6461411a565b5b02179055506000612a7587613652565b90506000612a9082846009015461325290919063ffffffff16565b9050612ac28360070160009054906101000a900473ffffffffffffffffffffffffffffffffffffffff16333084613519565b3373ffffffffffffffffffffffffffffffffffffffff16887f9ead0d6f534d407e40234c6368c1c7a989d6b3fb557a5efd52f9ded5b505e78e60405160405180910390a35050505050505050565b612b1861324a565b73ffffffffffffffffffffffffffffffffffffffff1660008054906101000a900473ffffffffffffffffffffffffffffffffffffffff1673ffffffffffffffffffffffffffffffffffffffff1614612ba5576040517f08c379a0000000000000000000000000000000000000000000000000000000008152600401612b9c90614681565b60405180910390fd5b80600560006101000a81548173ffffffffffffffffffffffffffffffffffffffff021916908373ffffffffffffffffffffffffffffffffffffffff16021790555050565b806001805490508110612c31576040517f08c379a0000000000000000000000000000000000000000000000000000000008152600401612c28906144a2565b60405180910390fd5b8160018181548110612c4657612c456144c2565b5b90600052602060002090600a020160010160009054906101000a900473ffffffffffffffffffffffffffffffffffffffff1673ffffffffffffffffffffffffffffffffffffffff163373ffffffffffffffffffffffffffffffffffffffff1614612ce5576040517f08c379a0000000000000000000000000000000000000000000000000000000008152600401612cdc9061453d565b60405180910390fd5b826001806008811115612cfb57612cfa61411a565b5b60018381548110612d0f57612d0e6144c2565b5b90600052602060002090600a020160050160009054906101000a900460ff166008811115612d4057612d3f61411a565b5b14612d80576040517f08c379a0000000000000000000000000000000000000000000000000000000008152600401612d77906145a9565b60405180910390fd5b8442612dbc60065460018481548110612d9c57612d9b6144c2565b5b90600052602060002090600a02016003015461325290919063ffffffff16565b1115612dfd576040517f08c379a0000000000000000000000000000000000000000000000000000000008152600401612df4906147e0565b60405180910390fd5b600060018781548110612e1357612e126144c2565b5b90600052602060002090600a0201905060078160050160006101000a81548160ff02191690836008811115612e4b57612e4a61411a565b5b0217905550612e59876132b0565b867f7d7399bbaefd0c0a1e77dc8bdb7dbf4d2fe8e43aed92450328b9c2c2ce71304a60405160405180910390a250505050505050565b60065481565b612e9d61324a565b73ffffffffffffffffffffffffffffffffffffffff1660008054906101000a900473ffffffffffffffffffffffffffffffffffffffff1673ffffffffffffffffffffffffffffffffffffffff1614612f2a576040517f08c379a0000000000000000000000000000000000000000000000000000000008152600401612f2190614681565b60405180910390fd5b612f338161370c565b50565b600460009054906101000a900473ffffffffffffffffffffffffffffffffffffffff1673ffffffffffffffffffffffffffffffffffffffff163373ffffffffffffffffffffffffffffffffffffffff1614612fc6576040517f08c379a0000000000000000000000000000000000000000000000000000000008152600401612fbd90614c13565b60405180910390fd5b80600360006101000a81548173ffffffffffffffffffffffffffffffffffffffff021916908373ffffffffffffffffffffffffffffffffffffffff16021790555050565b60075481565b60008060018381548110613027576130266144c2565b5b90600052602060002090600a02019050613065620186a0613057600754846009015461345490919063ffffffff16565b6134cf90919063ffffffff16565b915050919050565b60008060018381548110613084576130836144c2565b5b90600052602060002090600a020190506130c2620186a06130b4600854846009015461345490919063ffffffff16565b6134cf90919063ffffffff16565b915050919050565b600061310c83836040518060400160405280601e81526020017f536166654d6174683a207375627472616374696f6e206f766572666c6f770000815250613839565b905092915050565b6000808473ffffffffffffffffffffffffffffffffffffffff1663a9059cbb8585604051602401613146929190614c33565b6040516020818303038152906040529060e01b6020820180517bffffffffffffffffffffffffffffffffffffffffffffffffffffffff83818316178352505050506040516131949190614ca3565b6000604051808303816000865af19150503d80600081146131d1576040519150601f19603f3d011682016040523d82523d6000602084013e6131d6565b606091505b509150915081801561320457506000815114806132035750808060200190518101906132029190614994565b5b5b613243576040517f08c379a000000000000000000000000000000000000000000000000000000000815260040161323a90614d06565b60405180910390fd5b5050505050565b600033905090565b60008082846132619190614b71565b9050838110156132a6576040517f08c379a000000000000000000000000000000000000000000000000000000000815260040161329d90614d72565b60405180910390fd5b8091505092915050565b6000600182815481106132c6576132c56144c2565b5b90600052602060002090600a0201905060006132e183613010565b905060006132ee84613652565b905060006132fb8561389d565b9050600061331282856130ca90919063ffffffff16565b9050600061333f8361333188600901548761325290919063ffffffff16565b6130ca90919063ffffffff16565b90506133a58660070160009054906101000a900473ffffffffffffffffffffffffffffffffffffffff16600360009054906101000a900473ffffffffffffffffffffffffffffffffffffffff166133a060028761345490919063ffffffff16565b613114565b6133f88660070160009054906101000a900473ffffffffffffffffffffffffffffffffffffffff168760010160009054906101000a900473ffffffffffffffffffffffffffffffffffffffff1684613114565b61344b8660070160009054906101000a900473ffffffffffffffffffffffffffffffffffffffff168760020160009054906101000a900473ffffffffffffffffffffffffffffffffffffffff1683613114565b50505050505050565b60008083141561346757600090506134c9565b600082846134759190614d92565b90508284826134849190614e1b565b146134c4576040517f08c379a00000000000000000000000000000000000000000000000000000000081526004016134bb90614ebe565b60405180910390fd5b809150505b92915050565b600061351183836040518060400160405280601a81526020017f536166654d6174683a206469766973696f6e206279207a65726f0000000000008152506138fa565b905092915050565b6000808573ffffffffffffffffffffffffffffffffffffffff166323b872dd86868660405160240161354d93929190614ede565b6040516020818303038152906040529060e01b6020820180517bffffffffffffffffffffffffffffffffffffffffffffffffffffffff838183161783525050505060405161359b9190614ca3565b6000604051808303816000865af19150503d80600081146135d8576040519150601f19603f3d011682016040523d82523d6000602084013e6135dd565b606091505b509150915081801561360b575060008151148061360a5750808060200190518101906136099190614994565b5b5b61364a576040517f08c379a000000000000000000000000000000000000000000000000000000000815260040161364190614f87565b60405180910390fd5b505050505050565b60008060018381548110613669576136686144c2565b5b90600052602060002090600a020190506136a7620186a0613699600a54846009015461345490919063ffffffff16565b6134cf90919063ffffffff16565b915050919050565b600080600183815481106136c6576136c56144c2565b5b90600052602060002090600a02019050613704620186a06136f6600954846009015461345490919063ffffffff16565b6134cf90919063ffffffff16565b915050919050565b600073ffffffffffffffffffffffffffffffffffffffff168173ffffffffffffffffffffffffffffffffffffffff16141561377c576040517f08c379a000000000000000000000000000000000000000000000000000000000815260040161377390615019565b60405180910390fd5b8073ffffffffffffffffffffffffffffffffffffffff1660008054906101000a900473ffffffffffffffffffffffffffffffffffffffff1673ffffffffffffffffffffffffffffffffffffffff167f8be0079c531659141344cd1fd0a4f28419497f9722a3daafe3b4186f6b6457e060405160405180910390a3806000806101000a81548173ffffffffffffffffffffffffffffffffffffffff021916908373ffffffffffffffffffffffffffffffffffffffff16021790555050565b6000838311158290613881576040517f08c379a00000000000000000000000000000000000000000000000000000000081526004016138789190615039565b60405180910390fd5b506000838561389091906148c1565b9050809150509392505050565b600080600183815481106138b4576138b36144c2565b5b90600052602060002090600a020190506138f2620186a06138e4600b54846009015461345490919063ffffffff16565b6134cf90919063ffffffff16565b915050919050565b60008083118290613941576040517f08c379a00000000000000000000000000000000000000000000000000000000081526004016139389190615039565b60405180910390fd5b50600083856139509190614e1b565b9050809150509392505050565b828054613969906146d0565b90600052602060002090601f01602090048101928261398b57600085556139d2565b82601f106139a457805160ff19168380011785556139d2565b828001600101855582156139d2579182015b828111156139d15782518255916020019190600101906139b6565b5b5090506139df9190613a8a565b5090565b60405180610140016040528060008152602001600073ffffffffffffffffffffffffffffffffffffffff168152602001600073ffffffffffffffffffffffffffffffffffffffff168152602001600081526020016000815260200160006008811115613a5257613a5161411a565b5b815260200160008152602001600073ffffffffffffffffffffffffffffffffffffffff16815260200160008152602001600081525090565b5b80821115613aa3576000816000905550600101613a8b565b5090565b600073ffffffffffffffffffffffffffffffffffffffff82169050919050565b6000613ad282613aa7565b9050919050565b613ae281613ac7565b82525050565b6000602082019050613afd6000830184613ad9565b92915050565b6000604051905090565b600080fd5b600080fd5b6000819050919050565b613b2a81613b17565b8114613b3557600080fd5b50565b600081359050613b4781613b21565b92915050565b600060208284031215613b6357613b62613b0d565b5b6000613b7184828501613b38565b91505092915050565b600080fd5b600080fd5b6000601f19601f8301169050919050565b7f4e487b7100000000000000000000000000000000000000000000000000000000600052604160045260246000fd5b613bcd82613b84565b810181811067ffffffffffffffff82111715613bec57613beb613b95565b5b80604052505050565b6000613bff613b03565b9050613c0b8282613bc4565b919050565b600067ffffffffffffffff821115613c2b57613c2a613b95565b5b613c3482613b84565b9050602081019050919050565b82818337600083830152505050565b6000613c63613c5e84613c10565b613bf5565b905082815260208101848484011115613c7f57613c7e613b7f565b5b613c8a848285613c41565b509392505050565b600082601f830112613ca757613ca6613b7a565b5b8135613cb7848260208601613c50565b91505092915050565b600060208284031215613cd657613cd5613b0d565b5b600082013567ffffffffffffffff811115613cf457613cf3613b12565b5b613d0084828501613c92565b91505092915050565b600081519050919050565b600082825260208201905092915050565b60005b83811015613d43578082015181840152602081019050613d28565b83811115613d52576000848401525b50505050565b6000613d6382613d09565b613d6d8185613d14565b9350613d7d818560208601613d25565b613d8681613b84565b840191505092915050565b60008115159050919050565b613da681613d91565b82525050565b60006040820190508181036000830152613dc68185613d58565b9050613dd56020830184613d9d565b9392505050565b613de581613b17565b82525050565b6000602082019050613e006000830184613ddc565b92915050565b613e0f81613ac7565b8114613e1a57600080fd5b50565b600081359050613e2c81613e06565b92915050565b600067ffffffffffffffff821115613e4d57613e4c613b95565b5b602082029050602081019050919050565b600080fd5b60098110613e7057600080fd5b50565b600081359050613e8281613e63565b92915050565b6000613e9b613e9684613e32565b613bf5565b90508083825260208201905060208402830185811115613ebe57613ebd613e5e565b5b835b81811015613ee75780613ed38882613e73565b845260208401935050602081019050613ec0565b5050509392505050565b600082601f830112613f0657613f05613b7a565b5b8135613f16848260208601613e88565b91505092915050565b600067ffffffffffffffff821115613f3a57613f39613b95565b5b602082029050602081019050919050565b6000613f5e613f5984613f1f565b613bf5565b90508083825260208201905060208402830185811115613f8157613f80613e5e565b5b835b81811015613faa5780613f968882613b38565b845260208401935050602081019050613f83565b5050509392505050565b600082601f830112613fc957613fc8613b7a565b5b8135613fd9848260208601613f4b565b91505092915050565b600080600080600080600080610100898b03121561400357614002613b0d565b5b60006140118b828c01613b38565b98505060206140228b828c01613b38565b97505060406140338b828c01613e1d565b96505060606140448b828c01613e1d565b955050608089013567ffffffffffffffff81111561406557614064613b12565b5b6140718b828c01613ef1565b94505060a06140828b828c01613b38565b93505060c06140938b828c01613b38565b92505060e089013567ffffffffffffffff8111156140b4576140b3613b12565b5b6140c08b828c01613fb4565b9150509295985092959890939650565b600081519050919050565b600082825260208201905092915050565b6000819050602082019050919050565b61410581613b17565b82525050565b61411481613ac7565b82525050565b7f4e487b7100000000000000000000000000000000000000000000000000000000600052602160045260246000fd5b6009811061415a5761415961411a565b5b50565b600081905061416b82614149565b919050565b600061417b8261415d565b9050919050565b61418b81614170565b82525050565b610140820160008201516141a860008501826140fc565b5060208201516141bb602085018261410b565b5060408201516141ce604085018261410b565b5060608201516141e160608501826140fc565b5060808201516141f460808501826140fc565b5060a082015161420760a0850182614182565b5060c082015161421a60c08501826140fc565b5060e082015161422d60e085018261410b565b506101008201516142426101008501826140fc565b506101208201516142576101208501826140fc565b50505050565b60006142698383614191565b6101408301905092915050565b6000602082019050919050565b600061428e826140d0565b61429881856140db565b93506142a3836140ec565b8060005b838110156142d45781516142bb888261425d565b97506142c683614276565b9250506001810190506142a7565b5085935050505092915050565b600060208201905081810360008301526142fb8184614283565b905092915050565b600080600080600060a0868803121561431f5761431e613b0d565b5b600061432d88828901613b38565b955050602061433e88828901613b38565b945050604061434f88828901613e1d565b935050606061436088828901613b38565b925050608061437188828901613b38565b9150509295509295909350565b60006020828403121561439457614393613b0d565b5b60006143a284828501613e1d565b91505092915050565b6143b481614170565b82525050565b6000610140820190506143d0600083018d613ddc565b6143dd602083018c613ad9565b6143ea604083018b613ad9565b6143f7606083018a613ddc565b6144046080830189613ddc565b61441160a08301886143ab565b61441e60c0830187613ddc565b61442b60e0830186613ad9565b614439610100830185613ddc565b614447610120830184613ddc565b9b9a5050505050505050505050565b7f42415a4141523a20494e56414c49445f4f524445520000000000000000000000600082015250565b600061448c601583613d14565b915061449782614456565b602082019050919050565b600060208201905081810360008301526144bb8161447f565b9050919050565b7f4e487b7100000000000000000000000000000000000000000000000000000000600052603260045260246000fd5b7f42415a4141523a204f4e4c595f53454c4c455200000000000000000000000000600082015250565b6000614527601383613d14565b9150614532826144f1565b602082019050919050565b600060208201905081810360008301526145568161451a565b9050919050565b7f42415a4141523a20494e56414c49445f4f524445525f53544154450000000000600082015250565b6000614593601b83613d14565b915061459e8261455d565b602082019050919050565b600060208201905081810360008301526145c281614586565b9050919050565b7f42415a4141523a204f524445525f444541444c494e455f455843454544454400600082015250565b60006145ff601f83613d14565b915061460a826145c9565b602082019050919050565b6000602082019050818103600083015261462e816145f2565b9050919050565b7f4f776e61626c653a2063616c6c6572206973206e6f7420746865206f776e6572600082015250565b600061466b602083613d14565b915061467682614635565b602082019050919050565b6000602082019050818103600083015261469a8161465e565b9050919050565b7f4e487b7100000000000000000000000000000000000000000000000000000000600052602260045260246000fd5b600060028204905060018216806146e857607f821691505b602082108114156146fc576146fb6146a1565b5b50919050565b7f42415a4141523a204f4e4c595f42555945520000000000000000000000000000600082015250565b6000614738601283613d14565b915061474382614702565b602082019050919050565b600060208201905081810360008301526147678161472b565b9050919050565b7f42415a4141523a204f524445525f4d41585f44454c49564552595f4e4f545f4560008201527f5843454544454400000000000000000000000000000000000000000000000000602082015250565b60006147ca602783613d14565b91506147d58261476e565b604082019050919050565b600060208201905081810360008301526147f9816147bd565b9050919050565b7f42415a4141523a204f524445525f444541444c494e455f4e4f545f455843454560008201527f4445440000000000000000000000000000000000000000000000000000000000602082015250565b600061485c602383613d14565b915061486782614800565b604082019050919050565b6000602082019050818103600083015261488b8161484f565b9050919050565b7f4e487b7100000000000000000000000000000000000000000000000000000000600052601160045260246000fd5b60006148cc82613b17565b91506148d783613b17565b9250828210156148ea576148e9614892565b5b828203905092915050565b600061490082613b17565b91507fffffffffffffffffffffffffffffffffffffffffffffffffffffffffffffffff82141561493357614932614892565b5b600182019050919050565b600061494982613b17565b9150600082141561495d5761495c614892565b5b600182039050919050565b61497181613d91565b811461497c57600080fd5b50565b60008151905061498e81614968565b92915050565b6000602082840312156149aa576149a9613b0d565b5b60006149b88482850161497f565b91505092915050565b7f42415a4141523a204e4f545f5245474953544552454400000000000000000000600082015250565b60006149f7601683613d14565b9150614a02826149c1565b602082019050919050565b60006020820190508181036000830152614a26816149ea565b9050919050565b7f42415a4141523a20494e56414c49445f534f555243455f415353455400000000600082015250565b6000614a63601c83613d14565b9150614a6e82614a2d565b602082019050919050565b60006020820190508181036000830152614a9281614a56565b9050919050565b7f42415a4141523a20494e56414c49445f534f555243455f414d4f554e54000000600082015250565b6000614acf601d83613d14565b9150614ada82614a99565b602082019050919050565b60006020820190508181036000830152614afe81614ac2565b9050919050565b7f42415a4141523a20494e56414c49445f5441524745545f414d4f554e54000000600082015250565b6000614b3b601d83613d14565b9150614b4682614b05565b602082019050919050565b60006020820190508181036000830152614b6a81614b2e565b9050919050565b6000614b7c82613b17565b9150614b8783613b17565b9250827fffffffffffffffffffffffffffffffffffffffffffffffffffffffffffffffff03821115614bbc57614bbb614892565b5b828201905092915050565b7f42415a4141523a20464f5242494444454e000000000000000000000000000000600082015250565b6000614bfd601183613d14565b9150614c0882614bc7565b602082019050919050565b60006020820190508181036000830152614c2c81614bf0565b9050919050565b6000604082019050614c486000830185613ad9565b614c556020830184613ddc565b9392505050565b600081519050919050565b600081905092915050565b6000614c7d82614c5c565b614c878185614c67565b9350614c97818560208601613d25565b80840191505092915050565b6000614caf8284614c72565b915081905092915050565b7f5472616e7366657248656c7065723a205452414e534645525f4641494c454400600082015250565b6000614cf0601f83613d14565b9150614cfb82614cba565b602082019050919050565b60006020820190508181036000830152614d1f81614ce3565b9050919050565b7f536166654d6174683a206164646974696f6e206f766572666c6f770000000000600082015250565b6000614d5c601b83613d14565b9150614d6782614d26565b602082019050919050565b60006020820190508181036000830152614d8b81614d4f565b9050919050565b6000614d9d82613b17565b9150614da883613b17565b9250817fffffffffffffffffffffffffffffffffffffffffffffffffffffffffffffffff0483118215151615614de157614de0614892565b5b828202905092915050565b7f4e487b7100000000000000000000000000000000000000000000000000000000600052601260045260246000fd5b6000614e2682613b17565b9150614e3183613b17565b925082614e4157614e40614dec565b5b828204905092915050565b7f536166654d6174683a206d756c7469706c69636174696f6e206f766572666c6f60008201527f7700000000000000000000000000000000000000000000000000000000000000602082015250565b6000614ea8602183613d14565b9150614eb382614e4c565b604082019050919050565b60006020820190508181036000830152614ed781614e9b565b9050919050565b6000606082019050614ef36000830186613ad9565b614f006020830185613ad9565b614f0d6040830184613ddc565b949350505050565b7f5472616e7366657248656c7065723a205452414e534645525f46524f4d5f464160008201527f494c454400000000000000000000000000000000000000000000000000000000602082015250565b6000614f71602483613d14565b9150614f7c82614f15565b604082019050919050565b60006020820190508181036000830152614fa081614f64565b9050919050565b7f4f776e61626c653a206e6577206f776e657220697320746865207a65726f206160008201527f6464726573730000000000000000000000000000000000000000000000000000602082015250565b6000615003602683613d14565b915061500e82614fa7565b604082019050919050565b6000602082019050818103600083015261503281614ff6565b9050919050565b600060208201905081810360008301526150538184613d58565b90509291505056fea2646970667358221220202b0a30a9750cb92429adce2db3d985ca168c3d22cb35b44fd832ed6cca139564736f6c634300080b0033",
  "immutableReferences": {},
  "source": "// SPDX-License-Identifier: MIT\npragma solidity ^0.8.11;\n\nimport \"./libraries/Ownable.sol\";\nimport \"./interfaces/IERC20.sol\";\nimport \"./interfaces/IProfile.sol\";\nimport \"./libraries/SafeMath.sol\";\nimport \"./libraries/TransferHelper.sol\";\n\ncontract Bazaar is Ownable {\n    using SafeMath for uint256;\n\n    event OrderPlaced(uint256 indexed orderIdx, address indexed seller);\n    event OrderClosed(uint256 indexed orderIdx);\n    event OrderCancelledBuySeller(uint256 indexed orderIdx);\n    event OrderCancelledBuyBuyer(uint256 indexed orderIdx);\n    event OrderWithdrew(uint256 indexed orderIdx);\n    event OrderSold(uint256 indexed orderIdx, address indexed buyer);\n    event DeliveryApproved(uint256 indexed orderIdx);\n\n    enum OrderState {\n        Placed,\n        Soled,\n        Conflict,\n        Finished,\n        Closed,\n        Withdrew,\n        Expired,\n        CancelledBySeller,\n        CancelledByBuyer\n    }\n\n    struct SourceAsset {\n        string symbol;\n        bool deleted;\n    }\n\n    struct FetchFilters {\n        address buyer;\n        address seller;\n        OrderState[] states;\n        uint256 fromDate;\n        uint256 toDate;\n    }\n\n    struct Order {\n        uint256 id;\n        address seller;\n        address buyer;\n        uint256 createdAt;\n        uint256 deadline; // timestamp of order deadline\n        OrderState state;\n        uint256 sourceAsset; // index of source asset\n        address targetAsset;\n        uint256 sourceAmount;\n        uint256 targetAmount;\n    }\n\n    Order[] public orders;\n    SourceAsset[] public allowedSourceAssets;\n\n    address public feeTo;\n    address public feeToSetter;\n    address public profileContract;\n\n    uint256 public maxDeliveryTime; // maximum delivery time in seconds\n    uint256 public guaranteePercent; // seller guarantee amount by fraction of 1000\n    uint256 public closeFee; // close fee by fraction of 1000\n    uint256 public sellFee; // sell fee by fraction of 1000\n    uint256 public buyFee; // buy fee by fraction of 1000\n    uint256 public cancellationFee; // cancellation fee by fraction of 1000\n\n    modifier onlyProfileHolders() {\n        require(\n            IProfile(profileContract).registered(msg.sender),\n            \"BAZAAR: NOT_REGISTERED\"\n        );\n        _;\n    }\n\n    modifier onlySeller(uint256 _orderIdx) {\n        require(msg.sender == orders[_orderIdx].seller, \"BAZAAR: ONLY_SELLER\");\n        _;\n    }\n\n    modifier onlyBuyer(uint256 _orderIdx) {\n        require(msg.sender == orders[_orderIdx].buyer, \"BAZAAR: ONLY_BUYER\");\n        _;\n    }\n\n    modifier validSourceAsset(uint256 _idx) {\n        require(\n            (_idx < allowedSourceAssets.length) &&\n                !allowedSourceAssets[_idx].deleted,\n            \"BAZAAR: INVALID_SOURCE_ASSET\"\n        );\n        _;\n    }\n\n    modifier validOrder(uint256 _idx) {\n        require(_idx < orders.length, \"BAZAAR: INVALID_ORDER\");\n        _;\n    }\n\n    modifier inState(uint256 _orderIdx, OrderState state) {\n        require(\n            orders[_orderIdx].state == state,\n            \"BAZAAR: INVALID_ORDER_STATE\"\n        );\n        _;\n    }\n\n    modifier notExpired(uint256 _orderIdx) {\n        require(\n            block.timestamp < orders[_orderIdx].deadline,\n            \"BAZAAR: ORDER_DEADLINE_EXCEEDED\"\n        );\n        _;\n    }\n\n    modifier expired(uint256 _orderIdx) {\n        require(\n            block.timestamp >= orders[_orderIdx].deadline,\n            \"BAZAAR: ORDER_DEADLINE_NOT_EXCEEDED\"\n        );\n        _;\n    }\n\n    modifier cancellable(uint256 _orderIdx) {\n        require(\n            (orders[_orderIdx].createdAt.add(maxDeliveryTime)) <= block.timestamp,\n            \"BAZAAR: ORDER_MAX_DELIVERY_NOT_EXCEEDED\"\n        );\n        _;\n    }\n\n    constructor(address _profileContract) {\n        profileContract = _profileContract;\n        allowedSourceAssets.push(SourceAsset(\"GOLD\", false));\n        guaranteePercent = 10_000; // 10% of sale price\n        closeFee = 100; // 0.1% of sale price\n        sellFee = 100; // 0.1% of sale price\n        buyFee = 100; // 0.1% of sale price\n        cancellationFee = 100; // 0.1% of sale price\n        feeToSetter = msg.sender;\n        feeTo = msg.sender;\n        maxDeliveryTime = 8 hours;\n    }\n\n    /**\n     * @dev calculate guarantee amount\n     */\n    function calcGuarantee(uint256 _orderIdx) internal view returns (uint256) {\n        Order storage order = orders[_orderIdx];\n\n        return order.targetAmount.mul(guaranteePercent).div(100_000);\n    }\n\n    /**\n     * @dev calculate sell fee\n     */\n    function calcSellFee(uint256 _orderIdx) internal view returns (uint256) {\n        Order storage order = orders[_orderIdx];\n\n        return order.targetAmount.mul(sellFee).div(100_000);\n    }\n\n    /**\n     * @dev calculate buy fee\n     */\n    function calcBuyFee(uint256 _orderIdx) internal view returns (uint256) {\n        Order storage order = orders[_orderIdx];\n\n        return order.targetAmount.mul(buyFee).div(100_000);\n    }\n\n    /**\n     * @dev calculate close fee\n     */\n    function calcCloseFee(uint256 _orderIdx) internal view returns (uint256) {\n        Order storage order = orders[_orderIdx];\n\n        return order.targetAmount.mul(closeFee).div(100_000);\n    }\n\n    /**\n     * @dev calculate cancellation fee\n     */\n    function calcCancellationFee(uint256 _orderIdx)\n        internal\n        view\n        returns (uint256)\n    {\n        Order storage order = orders[_orderIdx];\n\n        return order.targetAmount.mul(cancellationFee).div(100_000);\n    }\n\n    /**\n     * @dev set fee to account\n     */\n    function setFeeTo(address _feeTo) external {\n        require(msg.sender == feeToSetter, \"BAZAAR: FORBIDDEN\");\n        feeTo = _feeTo;\n    }\n\n    /**\n     * @dev set fee to setter account\n     */\n    function setFeeToSetter(address _feeToSetter) external {\n        require(msg.sender == feeToSetter, \"BAZAAR: FORBIDDEN\");\n        feeToSetter = _feeToSetter;\n    }\n\n    /**\n     * @dev set guarantee percent\n     */\n    function setGuaranteePercent(uint256 _value) public onlyOwner {\n        guaranteePercent = _value;\n    }\n\n    /**\n     * @dev set close fee\n     */\n    function setCloseFee(uint256 _value) public onlyOwner {\n        closeFee = _value;\n    }\n\n    /**\n     * @dev set sell fee\n     */\n    function setSellFee(uint256 _value) public onlyOwner {\n        sellFee = _value;\n    }\n\n    /**\n     * @dev set buy fee\n     */\n    function setBuyFee(uint256 _value) public onlyOwner {\n        buyFee = _value;\n    }\n\n    /**\n     * @dev set cancellation fee\n     */\n    function setCancellationFee(uint256 _value) public onlyOwner {\n        cancellationFee = _value;\n    }\n\n    /**\n     * @dev change profile contract address\n     */\n    function setProfile(address addr) public onlyOwner {\n        profileContract = addr;\n    }\n\n    /**\n     * @dev add new allowed source asset\n     */\n    function addAllowedSourceAsset(string memory _symbol) public onlyOwner {\n        allowedSourceAssets.push(SourceAsset(_symbol, false));\n    }\n\n    /**\n     * @dev disable allowed source asset\n     */\n    function disableAllowedSourceAsset(uint256 _idx) public onlyOwner {\n        allowedSourceAssets[_idx].deleted = true;\n    }\n\n    /**\n     * @dev enable allowed source asset\n     */\n    function enableAllowedSourceAsset(uint256 _idx) public onlyOwner {\n        allowedSourceAssets[_idx].deleted = false;\n    }\n\n    /**\n     * @dev create a new order\n     */\n    function placeOrder(\n        uint256 sourceAsset,\n        uint256 sourceAmount,\n        address targetAsset,\n        uint256 targetAmount,\n        uint256 timeout\n    )\n        public\n        onlyProfileHolders\n        validSourceAsset(sourceAsset)\n        returns (uint256)\n    {\n        require(sourceAmount > 0, \"BAZAAR: INVALID_SOURCE_AMOUNT\");\n        require(targetAmount > 0, \"BAZAAR: INVALID_TARGET_AMOUNT\");\n\n        Order memory order;\n        order.id = orders.length;\n        order.seller = msg.sender;\n        order.deadline = block.timestamp + timeout;\n        order.createdAt = block.timestamp;\n        order.sourceAsset = sourceAsset;\n        order.sourceAmount = sourceAmount;\n        order.targetAsset = targetAsset;\n        order.targetAmount = targetAmount;\n        order.state = OrderState.Placed;\n\n        orders.push(order);\n\n        // ((targetAmount * guaranteePercent) / 1000) / 100\n        uint256 _guaranteeAmount = targetAmount.mul(guaranteePercent).div(\n            100_000\n        );\n\n        TransferHelper.safeTransferFrom(\n            order.targetAsset,\n            msg.sender,\n            address(this),\n            _guaranteeAmount\n        );\n\n        emit OrderPlaced(order.id, order.seller);\n\n        return order.id;\n    }\n\n    /**\n     * @dev seller closes an order before its get expired\n     */\n    function close(uint256 _orderIdx)\n        public\n        validOrder(_orderIdx)\n        onlySeller(_orderIdx)\n        inState(_orderIdx, OrderState.Placed)\n        notExpired(_orderIdx)\n    {\n        Order storage order = orders[_orderIdx];\n\n        order.state = OrderState.Closed;\n\n        uint256 _guaranteeAmount = calcGuarantee(_orderIdx);\n        uint256 _closeFee = calcCloseFee(_orderIdx);\n\n        uint256 _toReturn = _guaranteeAmount.sub(_closeFee);\n\n        // transfer close fee\n        TransferHelper.safeTransfer(order.targetAsset, feeTo, _closeFee);\n\n        // return rest of guarantee deposit\n        TransferHelper.safeTransfer(order.targetAsset, order.seller, _toReturn);\n\n        emit OrderClosed(_orderIdx);\n    }\n\n    /**\n     * @dev withdraw guarantee amount for expired orders\n     */\n    function withdraw(uint256 _orderIdx)\n        public\n        validOrder(_orderIdx)\n        onlySeller(_orderIdx)\n        inState(_orderIdx, OrderState.Placed)\n        expired(_orderIdx)\n    {\n        Order storage order = orders[_orderIdx];\n\n        order.state = OrderState.Withdrew;\n\n        uint256 _guaranteeAmount = calcGuarantee(_orderIdx);\n\n        TransferHelper.safeTransfer(\n            order.targetAsset,\n            order.seller,\n            _guaranteeAmount\n        );\n\n        emit OrderWithdrew(_orderIdx);\n    }\n\n    /**\n     * @dev buy an asset\n     */\n    function buy(uint256 _orderIdx)\n        public\n        onlyProfileHolders\n        validOrder(_orderIdx)\n        inState(_orderIdx, OrderState.Placed)\n        notExpired(_orderIdx)\n    {\n        Order storage order = orders[_orderIdx];\n        order.buyer = msg.sender;\n        order.state = OrderState.Soled;\n\n        uint256 _buyFee = calcBuyFee(_orderIdx);\n\n        uint256 _totalDepo = order.targetAmount.add(_buyFee);\n\n        TransferHelper.safeTransferFrom(\n            order.targetAsset,\n            msg.sender,\n            address(this),\n            _totalDepo\n        );\n\n        emit OrderSold(_orderIdx, msg.sender);\n    }\n\n    /**\n     * @dev buyer approves that recieved asset\n     */\n    function approveDelivery(uint256 _orderIdx)\n        public\n        validOrder(_orderIdx)\n        onlyBuyer(_orderIdx)\n        inState(_orderIdx, OrderState.Soled)\n    {\n        Order storage order = orders[_orderIdx];\n        order.state = OrderState.Finished;\n\n        uint256 _guaranteeAmount = calcGuarantee(_orderIdx);\n        uint256 _buyFee = calcBuyFee(_orderIdx);\n        uint256 _sellFee = calcSellFee(_orderIdx);\n\n        uint256 _totalFee = _buyFee.add(_sellFee);\n\n        uint256 _transferAmount = order.targetAmount.add(_guaranteeAmount).sub(\n            _sellFee\n        );\n\n        TransferHelper.safeTransfer(\n            order.targetAsset,\n            order.seller,\n            _transferAmount\n        );\n\n        if (feeTo != address(0)) {\n            TransferHelper.safeTransfer(order.targetAsset, feeTo, _totalFee);\n        }\n\n        emit DeliveryApproved(_orderIdx);\n    }\n\n    /**\n     * @dev cancel an order and return funds\n     */\n    function _cancelOrder(uint256 _orderIdx) internal {\n        Order storage order = orders[_orderIdx];\n\n        uint256 _guaranteeAmount = calcGuarantee(_orderIdx);\n        uint256 _buyFee = calcBuyFee(_orderIdx);\n        uint256 _cancellationFee = calcCancellationFee(_orderIdx);\n\n        uint256 _toReturnSeller = _guaranteeAmount.sub(_cancellationFee);\n        uint256 _toReturnBuyer = _buyFee.add(order.targetAmount).sub(\n            _cancellationFee\n        );\n\n        // transfer cancellation fee(2 * cancelaltion fee, for seller and buyer)\n        TransferHelper.safeTransfer(\n            order.targetAsset,\n            feeTo,\n            _cancellationFee.mul(2)\n        );\n\n        // return rest of guarantee deposit\n        TransferHelper.safeTransfer(\n            order.targetAsset,\n            order.seller,\n            _toReturnSeller\n        );\n\n        // return rest of buyer deposit\n        TransferHelper.safeTransfer(\n            order.targetAsset,\n            order.buyer,\n            _toReturnBuyer\n        );\n    }\n\n    /**\n     * @dev seller cancels an order after soled\n     */\n    function cancelForSeller(uint256 _orderIdx)\n        public\n        validOrder(_orderIdx)\n        onlySeller(_orderIdx)\n        inState(_orderIdx, OrderState.Soled)\n        cancellable(_orderIdx)\n    {\n        Order storage order = orders[_orderIdx];\n\n        order.state = OrderState.CancelledBySeller;\n\n        _cancelOrder(_orderIdx);\n\n        emit OrderCancelledBuySeller(_orderIdx);\n    }\n\n    /**\n     * @dev buyer cancels an order after bought\n     */\n    function cancelForBuyer(uint256 _orderIdx)\n        public\n        validOrder(_orderIdx)\n        onlyBuyer(_orderIdx)\n        inState(_orderIdx, OrderState.Soled)\n        cancellable(_orderIdx)\n    {\n        Order storage order = orders[_orderIdx];\n\n        order.state = OrderState.CancelledByBuyer;\n\n        _cancelOrder(_orderIdx);\n\n        emit OrderCancelledBuyBuyer(_orderIdx);\n    }\n\n    /**\n     * @dev filters orders by give filters\n     */\n    function fetchOrders(\n        uint256 fromID,\n        uint256 maxLength,\n        address buyer,\n        address seller,\n        OrderState[] memory states,\n        uint256 fromDate,\n        uint256 toDate,\n        uint256[] memory sourceAssets\n    ) public view returns (Order[] memory) {\n        uint256 count = 0;\n        Order[] memory _upfrontOrders = new Order[](orders.length);\n\n        for (uint256 i = fromID - 1; i >= 0; i--) {\n            if (count >= maxLength) break;\n\n            Order storage _order = orders[i];\n\n            if (buyer != address(0)) {\n                if (_order.buyer != buyer) {\n                    continue;\n                }\n            }\n\n            if (seller != address(0)) {\n                if (_order.seller != seller) {\n                    continue;\n                }\n            }\n\n            if (fromDate > 0) {\n                if (_order.createdAt < fromDate) {\n                    continue;\n                }\n            }\n\n            if (toDate > 0) {\n                if (_order.createdAt > toDate) {\n                    continue;\n                }\n            }\n\n            if (sourceAssets.length > 0) {\n                bool found = false;\n\n                for (uint256 l = 0; l < sourceAssets.length; l++) {\n                    if (_order.sourceAsset == sourceAssets[l]) {\n                        found = true;\n                        break;\n                    }\n                }\n\n                if (!found) continue;\n            }\n\n            if (states.length > 0) {\n                bool found = false;\n\n                for (uint256 l = 0; l < states.length; l++) {\n                    if (_order.state == states[l]) {\n                        found = true;\n                        break;\n                    }\n\n                    // expired state is a virtual state\n                    if (states[l] == OrderState.Expired) {\n                        if (_order.deadline <= block.timestamp) {\n                            found = true;\n                        }\n                    }\n                }\n\n                if (!found) continue;\n            }\n\n            _upfrontOrders[count] = _order;\n            count++;\n        }\n\n        Order[] memory _orders = new Order[](count);\n\n        for (uint256 i = 0; i < count; i++) {\n            _orders[i] = _upfrontOrders[i];\n        }\n\n        return _orders;\n    }\n}\n",
  "sourcePath": "/Users/bulwark/Projects/ecosc/bazaar/contracts/Bazaar.sol",
  "compiler": {
    "name": "solc",
    "version": "0.8.11+commit.d7f03943.Emscripten.clang"
  },
  "schemaVersion": "3.4.4",
  "updatedAt": "2022-02-16T08:43:19.542Z",
  "devdoc": {
    "kind": "dev",
    "methods": {
      "addAllowedSourceAsset(string)": {
        "details": "add new allowed source asset"
      },
      "approveDelivery(uint256)": {
        "details": "buyer approves that recieved asset"
      },
      "buy(uint256)": {
        "details": "buy an asset"
      },
      "cancelForBuyer(uint256)": {
        "details": "buyer cancels an order after bought"
      },
      "cancelForSeller(uint256)": {
        "details": "seller cancels an order after soled"
      },
      "close(uint256)": {
        "details": "seller closes an order before its get expired"
      },
      "disableAllowedSourceAsset(uint256)": {
        "details": "disable allowed source asset"
      },
      "enableAllowedSourceAsset(uint256)": {
        "details": "enable allowed source asset"
      },
      "fetchOrders(uint256,uint256,address,address,uint8[],uint256,uint256,uint256[])": {
        "details": "filters orders by give filters"
      },
      "owner()": {
        "details": "Returns the address of the current owner."
      },
      "placeOrder(uint256,uint256,address,uint256,uint256)": {
        "details": "create a new order"
      },
      "renounceOwnership()": {
        "details": "Leaves the contract without owner. It will not be possible to call `onlyOwner` functions anymore. Can only be called by the current owner. NOTE: Renouncing ownership will leave the contract without an owner, thereby removing any functionality that is only available to the owner."
      },
      "setBuyFee(uint256)": {
        "details": "set buy fee"
      },
      "setCancellationFee(uint256)": {
        "details": "set cancellation fee"
      },
      "setCloseFee(uint256)": {
        "details": "set close fee"
      },
      "setFeeTo(address)": {
        "details": "set fee to account"
      },
      "setFeeToSetter(address)": {
        "details": "set fee to setter account"
      },
      "setGuaranteePercent(uint256)": {
        "details": "set guarantee percent"
      },
      "setProfile(address)": {
        "details": "change profile contract address"
      },
      "setSellFee(uint256)": {
        "details": "set sell fee"
      },
      "transferOwnership(address)": {
        "details": "Transfers ownership of the contract to a new account (`newOwner`). Can only be called by the current owner."
      },
      "withdraw(uint256)": {
        "details": "withdraw guarantee amount for expired orders"
      }
    },
    "version": 1
  },
  "userdoc": {
    "kind": "user",
    "methods": {},
    "version": 1
  }
}