{
  "contractName": "Bazaar",
  "abi": [
    {
      "inputs": [
        {
          "internalType": "address",
          "name": "_profileContract",
          "type": "address"
        }
      ],
      "stateMutability": "nonpayable",
      "type": "constructor"
    },
    {
      "anonymous": false,
      "inputs": [
        {
          "indexed": true,
          "internalType": "uint256",
          "name": "orderIdx",
          "type": "uint256"
        },
        {
          "indexed": true,
          "internalType": "address",
          "name": "buyer",
          "type": "address"
        }
      ],
      "name": "DeliveryApproved",
      "type": "event"
    },
    {
      "anonymous": false,
      "inputs": [
        {
          "indexed": true,
          "internalType": "uint256",
          "name": "orderIdx",
          "type": "uint256"
        },
        {
          "indexed": true,
          "internalType": "address",
          "name": "buyer",
          "type": "address"
        }
      ],
      "name": "OrderCancelledBuyBuyer",
      "type": "event"
    },
    {
      "anonymous": false,
      "inputs": [
        {
          "indexed": true,
          "internalType": "uint256",
          "name": "orderIdx",
          "type": "uint256"
        },
        {
          "indexed": true,
          "internalType": "address",
          "name": "seller",
          "type": "address"
        }
      ],
      "name": "OrderCancelledBuySeller",
      "type": "event"
    },
    {
      "anonymous": false,
      "inputs": [
        {
          "indexed": true,
          "internalType": "uint256",
          "name": "orderIdx",
          "type": "uint256"
        },
        {
          "indexed": true,
          "internalType": "address",
          "name": "seller",
          "type": "address"
        }
      ],
      "name": "OrderClosed",
      "type": "event"
    },
    {
      "anonymous": false,
      "inputs": [
        {
          "indexed": true,
          "internalType": "uint256",
          "name": "orderIdx",
          "type": "uint256"
        },
        {
          "indexed": true,
          "internalType": "address",
          "name": "seller",
          "type": "address"
        }
      ],
      "name": "OrderPlaced",
      "type": "event"
    },
    {
      "anonymous": false,
      "inputs": [
        {
          "indexed": true,
          "internalType": "uint256",
          "name": "orderIdx",
          "type": "uint256"
        },
        {
          "indexed": true,
          "internalType": "address",
          "name": "buyer",
          "type": "address"
        }
      ],
      "name": "OrderSold",
      "type": "event"
    },
    {
      "anonymous": false,
      "inputs": [
        {
          "indexed": true,
          "internalType": "uint256",
          "name": "orderIdx",
          "type": "uint256"
        },
        {
          "indexed": true,
          "internalType": "address",
          "name": "seller",
          "type": "address"
        }
      ],
      "name": "OrderWithdrew",
      "type": "event"
    },
    {
      "anonymous": false,
      "inputs": [
        {
          "indexed": true,
          "internalType": "address",
          "name": "previousOwner",
          "type": "address"
        },
        {
          "indexed": true,
          "internalType": "address",
          "name": "newOwner",
          "type": "address"
        }
      ],
      "name": "OwnershipTransferred",
      "type": "event"
    },
    {
      "inputs": [
        {
          "internalType": "uint256",
          "name": "",
          "type": "uint256"
        }
      ],
      "name": "allowedSourceAssets",
      "outputs": [
        {
          "internalType": "string",
          "name": "symbol",
          "type": "string"
        },
        {
          "internalType": "bool",
          "name": "deleted",
          "type": "bool"
        }
      ],
      "stateMutability": "view",
      "type": "function",
      "constant": true
    },
    {
      "inputs": [],
      "name": "buyFee",
      "outputs": [
        {
          "internalType": "uint256",
          "name": "",
          "type": "uint256"
        }
      ],
      "stateMutability": "view",
      "type": "function",
      "constant": true
    },
    {
      "inputs": [],
      "name": "cancellationFee",
      "outputs": [
        {
          "internalType": "uint256",
          "name": "",
          "type": "uint256"
        }
      ],
      "stateMutability": "view",
      "type": "function",
      "constant": true
    },
    {
      "inputs": [],
      "name": "closeFee",
      "outputs": [
        {
          "internalType": "uint256",
          "name": "",
          "type": "uint256"
        }
      ],
      "stateMutability": "view",
      "type": "function",
      "constant": true
    },
    {
      "inputs": [],
      "name": "feeTo",
      "outputs": [
        {
          "internalType": "address",
          "name": "",
          "type": "address"
        }
      ],
      "stateMutability": "view",
      "type": "function",
      "constant": true
    },
    {
      "inputs": [],
      "name": "feeToSetter",
      "outputs": [
        {
          "internalType": "address",
          "name": "",
          "type": "address"
        }
      ],
      "stateMutability": "view",
      "type": "function",
      "constant": true
    },
    {
      "inputs": [],
      "name": "guaranteePercent",
      "outputs": [
        {
          "internalType": "uint256",
          "name": "",
          "type": "uint256"
        }
      ],
      "stateMutability": "view",
      "type": "function",
      "constant": true
    },
    {
      "inputs": [],
      "name": "maxDeliveryTime",
      "outputs": [
        {
          "internalType": "uint256",
          "name": "",
          "type": "uint256"
        }
      ],
      "stateMutability": "view",
      "type": "function",
      "constant": true
    },
    {
      "inputs": [
        {
          "internalType": "uint256",
          "name": "",
          "type": "uint256"
        }
      ],
      "name": "orders",
      "outputs": [
        {
          "internalType": "uint256",
          "name": "id",
          "type": "uint256"
        },
        {
          "internalType": "address",
          "name": "seller",
          "type": "address"
        },
        {
          "internalType": "address",
          "name": "buyer",
          "type": "address"
        },
        {
          "internalType": "uint256",
          "name": "createdAt",
          "type": "uint256"
        },
        {
          "internalType": "uint256",
          "name": "deadline",
          "type": "uint256"
        },
        {
          "internalType": "enum Bazaar.OrderState",
          "name": "state",
          "type": "uint8"
        },
        {
          "internalType": "uint256",
          "name": "sourceAsset",
          "type": "uint256"
        },
        {
          "internalType": "address",
          "name": "targetAsset",
          "type": "address"
        },
        {
          "internalType": "uint256",
          "name": "sourceAmount",
          "type": "uint256"
        },
        {
          "internalType": "uint256",
          "name": "targetAmount",
          "type": "uint256"
        }
      ],
      "stateMutability": "view",
      "type": "function",
      "constant": true
    },
    {
      "inputs": [],
      "name": "owner",
      "outputs": [
        {
          "internalType": "address",
          "name": "",
          "type": "address"
        }
      ],
      "stateMutability": "view",
      "type": "function",
      "constant": true
    },
    {
      "inputs": [],
      "name": "profileContract",
      "outputs": [
        {
          "internalType": "address",
          "name": "",
          "type": "address"
        }
      ],
      "stateMutability": "view",
      "type": "function",
      "constant": true
    },
    {
      "inputs": [],
      "name": "renounceOwnership",
      "outputs": [],
      "stateMutability": "nonpayable",
      "type": "function"
    },
    {
      "inputs": [],
      "name": "sellFee",
      "outputs": [
        {
          "internalType": "uint256",
          "name": "",
          "type": "uint256"
        }
      ],
      "stateMutability": "view",
      "type": "function",
      "constant": true
    },
    {
      "inputs": [
        {
          "internalType": "address",
          "name": "newOwner",
          "type": "address"
        }
      ],
      "name": "transferOwnership",
      "outputs": [],
      "stateMutability": "nonpayable",
      "type": "function"
    },
    {
      "inputs": [
        {
          "internalType": "address",
          "name": "_feeTo",
          "type": "address"
        }
      ],
      "name": "setFeeTo",
      "outputs": [],
      "stateMutability": "nonpayable",
      "type": "function"
    },
    {
      "inputs": [
        {
          "internalType": "address",
          "name": "_feeToSetter",
          "type": "address"
        }
      ],
      "name": "setFeeToSetter",
      "outputs": [],
      "stateMutability": "nonpayable",
      "type": "function"
    },
    {
      "inputs": [
        {
          "internalType": "uint256",
          "name": "_value",
          "type": "uint256"
        }
      ],
      "name": "setGuaranteePercent",
      "outputs": [],
      "stateMutability": "nonpayable",
      "type": "function"
    },
    {
      "inputs": [
        {
          "internalType": "uint256",
          "name": "_value",
          "type": "uint256"
        }
      ],
      "name": "setCloseFee",
      "outputs": [],
      "stateMutability": "nonpayable",
      "type": "function"
    },
    {
      "inputs": [
        {
          "internalType": "uint256",
          "name": "_value",
          "type": "uint256"
        }
      ],
      "name": "setSellFee",
      "outputs": [],
      "stateMutability": "nonpayable",
      "type": "function"
    },
    {
      "inputs": [
        {
          "internalType": "uint256",
          "name": "_value",
          "type": "uint256"
        }
      ],
      "name": "setBuyFee",
      "outputs": [],
      "stateMutability": "nonpayable",
      "type": "function"
    },
    {
      "inputs": [
        {
          "internalType": "uint256",
          "name": "_value",
          "type": "uint256"
        }
      ],
      "name": "setCancellationFee",
      "outputs": [],
      "stateMutability": "nonpayable",
      "type": "function"
    },
    {
      "inputs": [
        {
          "internalType": "address",
          "name": "addr",
          "type": "address"
        }
      ],
      "name": "setProfile",
      "outputs": [],
      "stateMutability": "nonpayable",
      "type": "function"
    },
    {
      "inputs": [
        {
          "internalType": "string",
          "name": "_symbol",
          "type": "string"
        }
      ],
      "name": "addAllowedSourceAsset",
      "outputs": [],
      "stateMutability": "nonpayable",
      "type": "function"
    },
    {
      "inputs": [
        {
          "internalType": "uint256",
          "name": "_idx",
          "type": "uint256"
        }
      ],
      "name": "disableAllowedSourceAsset",
      "outputs": [],
      "stateMutability": "nonpayable",
      "type": "function"
    },
    {
      "inputs": [
        {
          "internalType": "uint256",
          "name": "_idx",
          "type": "uint256"
        }
      ],
      "name": "enableAllowedSourceAsset",
      "outputs": [],
      "stateMutability": "nonpayable",
      "type": "function"
    },
    {
      "inputs": [
        {
          "internalType": "uint256",
          "name": "sourceAsset",
          "type": "uint256"
        },
        {
          "internalType": "uint256",
          "name": "sourceAmount",
          "type": "uint256"
        },
        {
          "internalType": "address",
          "name": "targetAsset",
          "type": "address"
        },
        {
          "internalType": "uint256",
          "name": "targetAmount",
          "type": "uint256"
        },
        {
          "internalType": "uint256",
          "name": "timeout",
          "type": "uint256"
        }
      ],
      "name": "placeOrder",
      "outputs": [
        {
          "internalType": "uint256",
          "name": "",
          "type": "uint256"
        }
      ],
      "stateMutability": "nonpayable",
      "type": "function"
    },
    {
      "inputs": [
        {
          "internalType": "uint256",
          "name": "_orderIdx",
          "type": "uint256"
        }
      ],
      "name": "close",
      "outputs": [],
      "stateMutability": "nonpayable",
      "type": "function"
    },
    {
      "inputs": [
        {
          "internalType": "uint256",
          "name": "_orderIdx",
          "type": "uint256"
        }
      ],
      "name": "withdraw",
      "outputs": [],
      "stateMutability": "nonpayable",
      "type": "function"
    },
    {
      "inputs": [
        {
          "internalType": "uint256",
          "name": "_orderIdx",
          "type": "uint256"
        }
      ],
      "name": "buy",
      "outputs": [],
      "stateMutability": "nonpayable",
      "type": "function"
    },
    {
      "inputs": [
        {
          "internalType": "uint256",
          "name": "_orderIdx",
          "type": "uint256"
        }
      ],
      "name": "approveDelivery",
      "outputs": [],
      "stateMutability": "nonpayable",
      "type": "function"
    },
    {
      "inputs": [
        {
          "internalType": "uint256",
          "name": "_orderIdx",
          "type": "uint256"
        }
      ],
      "name": "cancelForSeller",
      "outputs": [],
      "stateMutability": "nonpayable",
      "type": "function"
    },
    {
      "inputs": [
        {
          "internalType": "uint256",
          "name": "_orderIdx",
          "type": "uint256"
        }
      ],
      "name": "cancelForBuyer",
      "outputs": [],
      "stateMutability": "nonpayable",
      "type": "function"
    },
    {
      "inputs": [
        {
          "internalType": "int256",
          "name": "fromID",
          "type": "int256"
        },
        {
          "internalType": "uint256",
          "name": "maxLength",
          "type": "uint256"
        },
        {
          "internalType": "address",
          "name": "buyer",
          "type": "address"
        },
        {
          "internalType": "address",
          "name": "seller",
          "type": "address"
        },
        {
          "internalType": "enum Bazaar.OrderState[]",
          "name": "states",
          "type": "uint8[]"
        },
        {
          "internalType": "uint256[]",
          "name": "sourceAssets",
          "type": "uint256[]"
        },
        {
          "internalType": "uint256",
          "name": "fromDate",
          "type": "uint256"
        },
        {
          "internalType": "uint256",
          "name": "toDate",
          "type": "uint256"
        },
        {
          "internalType": "bool",
          "name": "withExpireds",
          "type": "bool"
        }
      ],
      "name": "fetchOrders",
      "outputs": [
        {
          "components": [
            {
              "internalType": "uint256",
              "name": "id",
              "type": "uint256"
            },
            {
              "internalType": "address",
              "name": "seller",
              "type": "address"
            },
            {
              "internalType": "address",
              "name": "buyer",
              "type": "address"
            },
            {
              "internalType": "uint256",
              "name": "createdAt",
              "type": "uint256"
            },
            {
              "internalType": "uint256",
              "name": "deadline",
              "type": "uint256"
            },
            {
              "internalType": "enum Bazaar.OrderState",
              "name": "state",
              "type": "uint8"
            },
            {
              "internalType": "uint256",
              "name": "sourceAsset",
              "type": "uint256"
            },
            {
              "internalType": "address",
              "name": "targetAsset",
              "type": "address"
            },
            {
              "internalType": "uint256",
              "name": "sourceAmount",
              "type": "uint256"
            },
            {
              "internalType": "uint256",
              "name": "targetAmount",
              "type": "uint256"
            }
          ],
          "internalType": "struct Bazaar.Order[]",
          "name": "",
          "type": "tuple[]"
        }
      ],
      "stateMutability": "view",
      "type": "function",
      "constant": true
    }
  ],
  "bytecode": "0x60806040523480156200001157600080fd5b5060405162005fb938038062005fb9833981810160405281019062000037919062000d24565b60006200004962000c0260201b60201c565b9050806000806101000a81548173ffffffffffffffffffffffffffffffffffffffff021916908373ffffffffffffffffffffffffffffffffffffffff1602179055508073ffffffffffffffffffffffffffffffffffffffff16600073ffffffffffffffffffffffffffffffffffffffff167f8be0079c531659141344cd1fd0a4f28419497f9722a3daafe3b4186f6b6457e060405160405180910390a35080600560006101000a81548173ffffffffffffffffffffffffffffffffffffffff021916908373ffffffffffffffffffffffffffffffffffffffff160217905550600260405180604001604052806040518060400160405280600a81526020017f474f4c445f4f554e43450000000000000000000000000000000000000000000081525081526020016000151581525090806001815401808255809150506001900390600052602060002090600202016000909190919091506000820151816000019080519060200190620001be92919062000c0a565b5060208201518160010160006101000a81548160ff0219169083151502179055505050600260405180604001604052806040518060400160405280600c81526020017f53494c5645525f4f554e43450000000000000000000000000000000000000000815250815260200160001515815250908060018154018082558091505060019003906000526020600020906002020160009091909190915060008201518160000190805190602001906200027792919062000c0a565b5060208201518160010160006101000a81548160ff0219169083151502179055505050600260405180604001604052806040518060400160405280600d81526020017f43415241545f474f4c445f313800000000000000000000000000000000000000815250815260200160001515815250908060018154018082558091505060019003906000526020600020906002020160009091909190915060008201518160000190805190602001906200033092919062000c0a565b5060208201518160010160006101000a81548160ff0219169083151502179055505050600260405180604001604052806040518060400160405280600d81526020017f43415241545f474f4c445f32340000000000000000000000000000000000000081525081526020016000151581525090806001815401808255809150506001900390600052602060002090600202016000909190919091506000820151816000019080519060200190620003e992919062000c0a565b5060208201518160010160006101000a81548160ff0219169083151502179055505050600260405180604001604052806040518060400160405280600c81526020017f474f4c445f4d45534748414c000000000000000000000000000000000000000081525081526020016000151581525090806001815401808255809150506001900390600052602060002090600202016000909190919091506000820151816000019080519060200190620004a292919062000c0a565b5060208201518160010160006101000a81548160ff0219169083151502179055505050600260405180604001604052806040518060400160405280601081526020017f474f4c445f4d454c5445445f4341534800000000000000000000000000000000815250815260200160001515815250908060018154018082558091505060019003906000526020600020906002020160009091909190915060008201518160000190805190602001906200055b92919062000c0a565b5060208201518160010160006101000a81548160ff0219169083151502179055505050600260405180604001604052806040518060400160405280601381526020017f4d454c5445445f42414e4b494e475f474f4c4400000000000000000000000000815250815260200160001515815250908060018154018082558091505060019003906000526020600020906002020160009091909190915060008201518160000190805190602001906200061492919062000c0a565b5060208201518160010160006101000a81548160ff0219169083151502179055505050600260405180604001604052806040518060400160405280600b81526020017f4d454c5445445f474f4c4400000000000000000000000000000000000000000081525081526020016000151581525090806001815401808255809150506001900390600052602060002090600202016000909190919091506000820151816000019080519060200190620006cd92919062000c0a565b5060208201518160010160006101000a81548160ff0219169083151502179055505050600260405180604001604052806040518060400160405280600e81526020017f474f4c445f434f494e5f43415348000000000000000000000000000000000000815250815260200160001515815250908060018154018082558091505060019003906000526020600020906002020160009091909190915060008201518160000190805190602001906200078692919062000c0a565b5060208201518160010160006101000a81548160ff0219169083151502179055505050600260405180604001604052806040518060400160405280600981526020017f474f4c445f434f494e0000000000000000000000000000000000000000000000815250815260200160001515815250908060018154018082558091505060019003906000526020600020906002020160009091909190915060008201518160000190805190602001906200083f92919062000c0a565b5060208201518160010160006101000a81548160ff0219169083151502179055505050600260405180604001604052806040518060400160405280600381526020017f555344000000000000000000000000000000000000000000000000000000000081525081526020016000151581525090806001815401808255809150506001900390600052602060002090600202016000909190919091506000820151816000019080519060200190620008f892919062000c0a565b5060208201518160010160006101000a81548160ff0219169083151502179055505050600260405180604001604052806040518060400160405280600581526020017f4d414e415400000000000000000000000000000000000000000000000000000081525081526020016000151581525090806001815401808255809150506001900390600052602060002090600202016000909190919091506000820151816000019080519060200190620009b192919062000c0a565b5060208201518160010160006101000a81548160ff0219169083151502179055505050600260405180604001604052806040518060400160405280600681526020017f44495248414d00000000000000000000000000000000000000000000000000008152508152602001600015158152509080600181540180825580915050600190039060005260206000209060020201600090919091909150600082015181600001908051906020019062000a6a92919062000c0a565b5060208201518160010160006101000a81548160ff0219169083151502179055505050600260405180604001604052806040518060400160405280600b81526020017f44494e41525f49524151490000000000000000000000000000000000000000008152508152602001600015158152509080600181540180825580915050600190039060005260206000209060020201600090919091909150600082015181600001908051906020019062000b2392919062000c0a565b5060208201518160010160006101000a81548160ff0219169083151502179055505050610dac600781905550600a60088190555060fa60098190555060fa600a819055506107d0600b8190555033600460006101000a81548173ffffffffffffffffffffffffffffffffffffffff021916908373ffffffffffffffffffffffffffffffffffffffff16021790555033600360006101000a81548173ffffffffffffffffffffffffffffffffffffffff021916908373ffffffffffffffffffffffffffffffffffffffff1602179055506170806006819055505062000dbb565b600033905090565b82805462000c189062000d85565b90600052602060002090601f01602090048101928262000c3c576000855562000c88565b82601f1062000c5757805160ff191683800117855562000c88565b8280016001018555821562000c88579182015b8281111562000c8757825182559160200191906001019062000c6a565b5b50905062000c97919062000c9b565b5090565b5b8082111562000cb657600081600090555060010162000c9c565b5090565b600080fd5b600073ffffffffffffffffffffffffffffffffffffffff82169050919050565b600062000cec8262000cbf565b9050919050565b62000cfe8162000cdf565b811462000d0a57600080fd5b50565b60008151905062000d1e8162000cf3565b92915050565b60006020828403121562000d3d5762000d3c62000cba565b5b600062000d4d8482850162000d0d565b91505092915050565b7f4e487b7100000000000000000000000000000000000000000000000000000000600052602260045260246000fd5b6000600282049050600182168062000d9e57607f821691505b6020821081141562000db55762000db462000d56565b5b50919050565b6151ee8062000dcb6000396000f3fe608060405234801561001057600080fd5b506004361061020b5760003560e01c8063715018a61161012a578063a9d1299c116100bd578063e3fb75e41161008c578063f2fde38b11610071578063f2fde38b146105b2578063f46901ed146105ce578063f7d7c770146105ea5761020b565b8063e3fb75e414610578578063f1f9715e146105945761020b565b8063a9d1299c146104f4578063c94b674b14610524578063d96a094a14610540578063e0b6a1e31461055c5761020b565b8063a3974b21116100f9578063a3974b2114610465578063a5de042314610483578063a68b96571461049f578063a85c38ef146104bb5761020b565b8063715018a6146104055780638b4cee081461040f5780638da5cb5b1461042b578063a2e74af6146104495761020b565b80632dd10ad3116101a25780634863f5ea116101715780634863f5ea1461039157806360eec280146103ad5780636ef569a5146103c957806370492cbf146103e75761020b565b80632dd10ad31461030b5780632e1a7d4d146103275780633d9e05ac1461034357806347062402146103735761020b565b80631148a348116101de5780631148a3481461028457806312b48c1e146102a05780632a251e8d146102d15780632b14ca56146102ed5761020b565b8063017e7e5814610210578063094b74151461022e5780630aebeb4e1461024c5780630cc835a314610268575b600080fd5b610218610608565b6040516102259190613b33565b60405180910390f35b61023661062e565b6040516102439190613b33565b60405180910390f35b61026660048036038101906102619190613b98565b610654565b005b610282600480360381019061027d9190613b98565b6109cb565b005b61029e60048036038101906102999190613d0b565b610a6a565b005b6102ba60048036038101906102b59190613b98565b610b84565b6040516102c8929190613df7565b60405180910390f35b6102eb60048036038101906102e69190613b98565b610c4d565b005b6102f5610f0a565b6040516103029190613e36565b60405180910390f35b61032560048036038101906103209190613b98565b610f10565b005b610341600480360381019061033c9190613b98565b610faf565b005b61035d60048036038101906103589190613e7d565b6112b0565b60405161036a9190613e36565b60405180910390f35b61037b61179c565b6040516103889190613e36565b60405180910390f35b6103ab60048036038101906103a69190613b98565b6117a2565b005b6103c760048036038101906103c29190613b98565b611878565b005b6103d161194e565b6040516103de9190613e36565b60405180910390f35b6103ef611954565b6040516103fc9190613e36565b60405180910390f35b61040d61195a565b005b61042960048036038101906104249190613b98565b611aad565b005b610433611b4c565b6040516104409190613b33565b60405180910390f35b610463600480360381019061045e9190613ef8565b611b75565b005b61046d611c49565b60405161047a9190613b33565b60405180910390f35b61049d60048036038101906104989190613b98565b611c6f565b005b6104b960048036038101906104b49190613b98565b611d0e565b005b6104d560048036038101906104d09190613b98565b611dad565b6040516104eb9a99989796959493929190613f9c565b60405180910390f35b61050e6004803603810190610509919061424a565b611e7e565b60405161051b91906144f5565b60405180910390f35b61053e60048036038101906105399190613b98565b612441565b005b61055a60048036038101906105559190613b98565b6127e2565b005b61057660048036038101906105719190613ef8565b612b44565b005b610592600480360381019061058d9190613b98565b612c1d565b005b61059c612eda565b6040516105a99190613e36565b60405180910390f35b6105cc60048036038101906105c79190613ef8565b612ee0565b005b6105e860048036038101906105e39190613ef8565b612f81565b005b6105f2613055565b6040516105ff9190613e36565b60405180910390f35b600360009054906101000a900473ffffffffffffffffffffffffffffffffffffffff1681565b600460009054906101000a900473ffffffffffffffffffffffffffffffffffffffff1681565b80600180549050811061069c576040517f08c379a000000000000000000000000000000000000000000000000000000000815260040161069390614563565b60405180910390fd5b81600181815481106106b1576106b0614583565b5b90600052602060002090600a020160010160009054906101000a900473ffffffffffffffffffffffffffffffffffffffff1673ffffffffffffffffffffffffffffffffffffffff163373ffffffffffffffffffffffffffffffffffffffff1614610750576040517f08c379a0000000000000000000000000000000000000000000000000000000008152600401610747906145fe565b60405180910390fd5b82600080600681111561076657610765613f25565b5b6001838154811061077a57610779614583565b5b90600052602060002090600a020160050160009054906101000a900460ff1660068111156107ab576107aa613f25565b5b146107eb576040517f08c379a00000000000000000000000000000000000000000000000000000000081526004016107e29061466a565b60405180910390fd5b8460018181548110610800576107ff614583565b5b90600052602060002090600a0201600401544210610853576040517f08c379a000000000000000000000000000000000000000000000000000000000815260040161084a906146d6565b60405180910390fd5b60006001878154811061086957610868614583565b5b90600052602060002090600a0201905060038160050160006101000a81548160ff021916908360068111156108a1576108a0613f25565b5b021790555060006108b18861305b565b905060006108be896130b8565b905060006108d5828461311590919063ffffffff16565b90506109288460070160009054906101000a900473ffffffffffffffffffffffffffffffffffffffff16600360009054906101000a900473ffffffffffffffffffffffffffffffffffffffff168461315f565b61097b8460070160009054906101000a900473ffffffffffffffffffffffffffffffffffffffff168560010160009054906101000a900473ffffffffffffffffffffffffffffffffffffffff168361315f565b3373ffffffffffffffffffffffffffffffffffffffff168a7f4b5bcc2fcc61cdd6ab8b46567c95970321b41bf50984b3b38f13fc04015108ea60405160405180910390a350505050505050505050565b6109d3613295565b73ffffffffffffffffffffffffffffffffffffffff1660008054906101000a900473ffffffffffffffffffffffffffffffffffffffff1673ffffffffffffffffffffffffffffffffffffffff1614610a60576040517f08c379a0000000000000000000000000000000000000000000000000000000008152600401610a5790614742565b60405180910390fd5b80600a8190555050565b610a72613295565b73ffffffffffffffffffffffffffffffffffffffff1660008054906101000a900473ffffffffffffffffffffffffffffffffffffffff1673ffffffffffffffffffffffffffffffffffffffff1614610aff576040517f08c379a0000000000000000000000000000000000000000000000000000000008152600401610af690614742565b60405180910390fd5b600260405180604001604052808381526020016000151581525090806001815401808255809150506001900390600052602060002090600202016000909190919091506000820151816000019080519060200190610b5e9291906139a8565b5060208201518160010160006101000a81548160ff021916908315150217905550505050565b60028181548110610b9457600080fd5b9060005260206000209060020201600091509050806000018054610bb790614791565b80601f0160208091040260200160405190810160405280929190818152602001828054610be390614791565b8015610c305780601f10610c0557610100808354040283529160200191610c30565b820191906000526020600020905b815481529060010190602001808311610c1357829003601f168201915b5050505050908060010160009054906101000a900460ff16905082565b806001805490508110610c95576040517f08c379a0000000000000000000000000000000000000000000000000000000008152600401610c8c90614563565b60405180910390fd5b8160018181548110610caa57610ca9614583565b5b90600052602060002090600a020160020160009054906101000a900473ffffffffffffffffffffffffffffffffffffffff1673ffffffffffffffffffffffffffffffffffffffff163373ffffffffffffffffffffffffffffffffffffffff1614610d49576040517f08c379a0000000000000000000000000000000000000000000000000000000008152600401610d409061480f565b60405180910390fd5b826001806006811115610d5f57610d5e613f25565b5b60018381548110610d7357610d72614583565b5b90600052602060002090600a020160050160009054906101000a900460ff166006811115610da457610da3613f25565b5b14610de4576040517f08c379a0000000000000000000000000000000000000000000000000000000008152600401610ddb9061466a565b60405180910390fd5b8442610e2060065460018481548110610e0057610dff614583565b5b90600052602060002090600a02016003015461329d90919063ffffffff16565b1115610e61576040517f08c379a0000000000000000000000000000000000000000000000000000000008152600401610e58906148a1565b60405180910390fd5b600060018781548110610e7757610e76614583565b5b90600052602060002090600a0201905060068160050160006101000a81548160ff02191690836006811115610eaf57610eae613f25565b5b0217905550610ebd876132fb565b3373ffffffffffffffffffffffffffffffffffffffff16877f9e499ca7d3dbbd3efc165bd6c79e95aa1d2720df4fe490d80813a6675c9832b060405160405180910390a350505050505050565b60095481565b610f18613295565b73ffffffffffffffffffffffffffffffffffffffff1660008054906101000a900473ffffffffffffffffffffffffffffffffffffffff1673ffffffffffffffffffffffffffffffffffffffff1614610fa5576040517f08c379a0000000000000000000000000000000000000000000000000000000008152600401610f9c90614742565b60405180910390fd5b80600b8190555050565b806001805490508110610ff7576040517f08c379a0000000000000000000000000000000000000000000000000000000008152600401610fee90614563565b60405180910390fd5b816001818154811061100c5761100b614583565b5b90600052602060002090600a020160010160009054906101000a900473ffffffffffffffffffffffffffffffffffffffff1673ffffffffffffffffffffffffffffffffffffffff163373ffffffffffffffffffffffffffffffffffffffff16146110ab576040517f08c379a00000000000000000000000000000000000000000000000000000000081526004016110a2906145fe565b60405180910390fd5b8260008060068111156110c1576110c0613f25565b5b600183815481106110d5576110d4614583565b5b90600052602060002090600a020160050160009054906101000a900460ff16600681111561110657611105613f25565b5b14611146576040517f08c379a000000000000000000000000000000000000000000000000000000000815260040161113d9061466a565b60405180910390fd5b846001818154811061115b5761115a614583565b5b90600052602060002090600a0201600401544210156111af576040517f08c379a00000000000000000000000000000000000000000000000000000000081526004016111a690614933565b60405180910390fd5b6000600187815481106111c5576111c4614583565b5b90600052602060002090600a0201905060048160050160006101000a81548160ff021916908360068111156111fd576111fc613f25565b5b0217905550600061120d8861305b565b90506112628260070160009054906101000a900473ffffffffffffffffffffffffffffffffffffffff168360010160009054906101000a900473ffffffffffffffffffffffffffffffffffffffff168361315f565b3373ffffffffffffffffffffffffffffffffffffffff16887f1506fa8dcc8bb8696cb3a90a3bb89dcad92495234c07164a60fab87e198c0f2b60405160405180910390a35050505050505050565b6000600560009054906101000a900473ffffffffffffffffffffffffffffffffffffffff1673ffffffffffffffffffffffffffffffffffffffff1663b2dd5c07336040518263ffffffff1660e01b815260040161130d9190613b33565b602060405180830381865afa15801561132a573d6000803e3d6000fd5b505050506040513d601f19601f8201168201806040525081019061134e9190614968565b61138d576040517f08c379a0000000000000000000000000000000000000000000000000000000008152600401611384906149e1565b60405180910390fd5b85600280549050811080156113d25750600281815481106113b1576113b0614583565b5b906000526020600020906002020160010160009054906101000a900460ff16155b611411576040517f08c379a000000000000000000000000000000000000000000000000000000000815260040161140890614a4d565b60405180910390fd5b60008611611454576040517f08c379a000000000000000000000000000000000000000000000000000000000815260040161144b90614ab9565b60405180910390fd5b60008411611497576040517f08c379a000000000000000000000000000000000000000000000000000000000815260040161148e90614b25565b60405180910390fd5b61149f613a2e565b60018054905081600001818152505033816020019073ffffffffffffffffffffffffffffffffffffffff16908173ffffffffffffffffffffffffffffffffffffffff168152505083426114f29190614b74565b81608001818152505042816060018181525050878160c00181815250508681610100018181525050858160e0019073ffffffffffffffffffffffffffffffffffffffff16908173ffffffffffffffffffffffffffffffffffffffff1681525050848161012001818152505060008160a00190600681111561157657611575613f25565b5b9081600681111561158a57611589613f25565b5b8152505060018190806001815401808255809150506001900390600052602060002090600a02016000909190919091506000820151816000015560208201518160010160006101000a81548173ffffffffffffffffffffffffffffffffffffffff021916908373ffffffffffffffffffffffffffffffffffffffff16021790555060408201518160020160006101000a81548173ffffffffffffffffffffffffffffffffffffffff021916908373ffffffffffffffffffffffffffffffffffffffff160217905550606082015181600301556080820151816004015560a08201518160050160006101000a81548160ff0219169083600681111561169157611690613f25565b5b021790555060c0820151816006015560e08201518160070160006101000a81548173ffffffffffffffffffffffffffffffffffffffff021916908373ffffffffffffffffffffffffffffffffffffffff160217905550610100820151816008015561012082015181600901555050600061172b620186a061171d6007548961349f90919063ffffffff16565b61351a90919063ffffffff16565b905061173d8260e00151333084613564565b816020015173ffffffffffffffffffffffffffffffffffffffff1682600001517f5222ba5f86a58ad15e7771bd95a809f162ae1762ea7cd66e28a58217341334cc60405160405180910390a38160000151935050505095945050505050565b600a5481565b6117aa613295565b73ffffffffffffffffffffffffffffffffffffffff1660008054906101000a900473ffffffffffffffffffffffffffffffffffffffff1673ffffffffffffffffffffffffffffffffffffffff1614611837576040517f08c379a000000000000000000000000000000000000000000000000000000000815260040161182e90614742565b60405180910390fd5b60016002828154811061184d5761184c614583565b5b906000526020600020906002020160010160006101000a81548160ff02191690831515021790555050565b611880613295565b73ffffffffffffffffffffffffffffffffffffffff1660008054906101000a900473ffffffffffffffffffffffffffffffffffffffff1673ffffffffffffffffffffffffffffffffffffffff161461190d576040517f08c379a000000000000000000000000000000000000000000000000000000000815260040161190490614742565b60405180910390fd5b60006002828154811061192357611922614583565b5b906000526020600020906002020160010160006101000a81548160ff02191690831515021790555050565b600b5481565b60085481565b611962613295565b73ffffffffffffffffffffffffffffffffffffffff1660008054906101000a900473ffffffffffffffffffffffffffffffffffffffff1673ffffffffffffffffffffffffffffffffffffffff16146119ef576040517f08c379a00000000000000000000000000000000000000000000000000000000081526004016119e690614742565b60405180910390fd5b600073ffffffffffffffffffffffffffffffffffffffff1660008054906101000a900473ffffffffffffffffffffffffffffffffffffffff1673ffffffffffffffffffffffffffffffffffffffff167f8be0079c531659141344cd1fd0a4f28419497f9722a3daafe3b4186f6b6457e060405160405180910390a360008060006101000a81548173ffffffffffffffffffffffffffffffffffffffff021916908373ffffffffffffffffffffffffffffffffffffffff160217905550565b611ab5613295565b73ffffffffffffffffffffffffffffffffffffffff1660008054906101000a900473ffffffffffffffffffffffffffffffffffffffff1673ffffffffffffffffffffffffffffffffffffffff1614611b42576040517f08c379a0000000000000000000000000000000000000000000000000000000008152600401611b3990614742565b60405180910390fd5b8060098190555050565b60008060009054906101000a900473ffffffffffffffffffffffffffffffffffffffff16905090565b600460009054906101000a900473ffffffffffffffffffffffffffffffffffffffff1673ffffffffffffffffffffffffffffffffffffffff163373ffffffffffffffffffffffffffffffffffffffff1614611c05576040517f08c379a0000000000000000000000000000000000000000000000000000000008152600401611bfc90614c16565b60405180910390fd5b80600460006101000a81548173ffffffffffffffffffffffffffffffffffffffff021916908373ffffffffffffffffffffffffffffffffffffffff16021790555050565b600560009054906101000a900473ffffffffffffffffffffffffffffffffffffffff1681565b611c77613295565b73ffffffffffffffffffffffffffffffffffffffff1660008054906101000a900473ffffffffffffffffffffffffffffffffffffffff1673ffffffffffffffffffffffffffffffffffffffff1614611d04576040517f08c379a0000000000000000000000000000000000000000000000000000000008152600401611cfb90614742565b60405180910390fd5b8060078190555050565b611d16613295565b73ffffffffffffffffffffffffffffffffffffffff1660008054906101000a900473ffffffffffffffffffffffffffffffffffffffff1673ffffffffffffffffffffffffffffffffffffffff1614611da3576040517f08c379a0000000000000000000000000000000000000000000000000000000008152600401611d9a90614742565b60405180910390fd5b8060088190555050565b60018181548110611dbd57600080fd5b90600052602060002090600a02016000915090508060000154908060010160009054906101000a900473ffffffffffffffffffffffffffffffffffffffff16908060020160009054906101000a900473ffffffffffffffffffffffffffffffffffffffff16908060030154908060040154908060050160009054906101000a900460ff16908060060154908060070160009054906101000a900473ffffffffffffffffffffffffffffffffffffffff1690806008015490806009015490508a565b606060008060018054905067ffffffffffffffff811115611ea257611ea1613be0565b5b604051908082528060200260200182016040528015611edb57816020015b611ec8613a2e565b815260200190600190039081611ec05790505b50905060008c1215611ef0576001805490509b505b600060018d611eff9190614c36565b90505b6000811261237d578b8310611f165761237d565b600060018281548110611f2c57611f2b614583565b5b90600052602060002090600a0201905085158015611f4e575042816004015411155b15611f59575061236a565b600073ffffffffffffffffffffffffffffffffffffffff168c73ffffffffffffffffffffffffffffffffffffffff1614611feb578b73ffffffffffffffffffffffffffffffffffffffff168160020160009054906101000a900473ffffffffffffffffffffffffffffffffffffffff1673ffffffffffffffffffffffffffffffffffffffff1614611fea575061236a565b5b600073ffffffffffffffffffffffffffffffffffffffff168b73ffffffffffffffffffffffffffffffffffffffff161461207d578a73ffffffffffffffffffffffffffffffffffffffff168160010160009054906101000a900473ffffffffffffffffffffffffffffffffffffffff1673ffffffffffffffffffffffffffffffffffffffff161461207c575061236a565b5b6000881115612099578781600301541015612098575061236a565b5b60008711156120b55786816003015411156120b4575061236a565b5b60008951111561211d576000805b8a5181101561210e578a81815181106120df576120de614583565b5b6020026020010151836006015414156120fb576001915061210e565b808061210690614cca565b9150506120c3565b508061211b57505061236a565b505b60008a5111156121b6576000805b8b518110156121a7578b818151811061214757612146614583565b5b6020026020010151600681111561216157612160613f25565b5b8360050160009054906101000a900460ff16600681111561218557612184613f25565b5b141561219457600191506121a7565b808061219f90614cca565b91505061212b565b50806121b457505061236a565b505b8060405180610140016040529081600082015481526020016001820160009054906101000a900473ffffffffffffffffffffffffffffffffffffffff1673ffffffffffffffffffffffffffffffffffffffff1673ffffffffffffffffffffffffffffffffffffffff1681526020016002820160009054906101000a900473ffffffffffffffffffffffffffffffffffffffff1673ffffffffffffffffffffffffffffffffffffffff1673ffffffffffffffffffffffffffffffffffffffff16815260200160038201548152602001600482015481526020016005820160009054906101000a900460ff1660068111156122b2576122b1613f25565b5b60068111156122c4576122c3613f25565b5b8152602001600682015481526020016007820160009054906101000a900473ffffffffffffffffffffffffffffffffffffffff1673ffffffffffffffffffffffffffffffffffffffff1673ffffffffffffffffffffffffffffffffffffffff1681526020016008820154815260200160098201548152505083858151811061234f5761234e614583565b5b6020026020010181905250838061236590614cca565b945050505b808061237590614d13565b915050611f02565b5060008267ffffffffffffffff81111561239a57612399613be0565b5b6040519080825280602002602001820160405280156123d357816020015b6123c0613a2e565b8152602001906001900390816123b85790505b50905060005b8381101561242d578281815181106123f4576123f3614583565b5b602002602001015182828151811061240f5761240e614583565b5b6020026020010181905250808061242590614cca565b9150506123d9565b508093505050509998505050505050505050565b806001805490508110612489576040517f08c379a000000000000000000000000000000000000000000000000000000000815260040161248090614563565b60405180910390fd5b816001818154811061249e5761249d614583565b5b90600052602060002090600a020160020160009054906101000a900473ffffffffffffffffffffffffffffffffffffffff1673ffffffffffffffffffffffffffffffffffffffff163373ffffffffffffffffffffffffffffffffffffffff161461253d576040517f08c379a00000000000000000000000000000000000000000000000000000000081526004016125349061480f565b60405180910390fd5b82600180600681111561255357612552613f25565b5b6001838154811061256757612566614583565b5b90600052602060002090600a020160050160009054906101000a900460ff16600681111561259857612597613f25565b5b146125d8576040517f08c379a00000000000000000000000000000000000000000000000000000000081526004016125cf9061466a565b60405180910390fd5b6000600186815481106125ee576125ed614583565b5b90600052602060002090600a0201905060028160050160006101000a81548160ff0219169083600681111561262657612625613f25565b5b021790555060006126368761305b565b905060006126438861369d565b90506000612650896136fa565b90506000612667828461329d90919063ffffffff16565b905060006126948361268687896009015461329d90919063ffffffff16565b61311590919063ffffffff16565b90506126e98660070160009054906101000a900473ffffffffffffffffffffffffffffffffffffffff168760010160009054906101000a900473ffffffffffffffffffffffffffffffffffffffff168361315f565b600073ffffffffffffffffffffffffffffffffffffffff16600360009054906101000a900473ffffffffffffffffffffffffffffffffffffffff1673ffffffffffffffffffffffffffffffffffffffff1614612791576127908660070160009054906101000a900473ffffffffffffffffffffffffffffffffffffffff16600360009054906101000a900473ffffffffffffffffffffffffffffffffffffffff168461315f565b5b3373ffffffffffffffffffffffffffffffffffffffff168b7f8c2e6d9f2c8d46890dd98cc58f96c0559f4e3dbd81777312fefca01fcf46ba9c60405160405180910390a35050505050505050505050565b600560009054906101000a900473ffffffffffffffffffffffffffffffffffffffff1673ffffffffffffffffffffffffffffffffffffffff1663b2dd5c07336040518263ffffffff1660e01b815260040161283d9190613b33565b602060405180830381865afa15801561285a573d6000803e3d6000fd5b505050506040513d601f19601f8201168201806040525081019061287e9190614968565b6128bd576040517f08c379a00000000000000000000000000000000000000000000000000000000081526004016128b4906149e1565b60405180910390fd5b806001805490508110612905576040517f08c379a00000000000000000000000000000000000000000000000000000000081526004016128fc90614563565b60405180910390fd5b81600080600681111561291b5761291a613f25565b5b6001838154811061292f5761292e614583565b5b90600052602060002090600a020160050160009054906101000a900460ff1660068111156129605761295f613f25565b5b146129a0576040517f08c379a00000000000000000000000000000000000000000000000000000000081526004016129979061466a565b60405180910390fd5b83600181815481106129b5576129b4614583565b5b90600052602060002090600a0201600401544210612a08576040517f08c379a00000000000000000000000000000000000000000000000000000000081526004016129ff906146d6565b60405180910390fd5b600060018681548110612a1e57612a1d614583565b5b90600052602060002090600a02019050338160020160006101000a81548173ffffffffffffffffffffffffffffffffffffffff021916908373ffffffffffffffffffffffffffffffffffffffff16021790555060018160050160006101000a81548160ff02191690836006811115612a9957612a98613f25565b5b02179055506000612aa98761369d565b90506000612ac482846009015461329d90919063ffffffff16565b9050612af68360070160009054906101000a900473ffffffffffffffffffffffffffffffffffffffff16333084613564565b3373ffffffffffffffffffffffffffffffffffffffff16887f9ead0d6f534d407e40234c6368c1c7a989d6b3fb557a5efd52f9ded5b505e78e60405160405180910390a35050505050505050565b612b4c613295565b73ffffffffffffffffffffffffffffffffffffffff1660008054906101000a900473ffffffffffffffffffffffffffffffffffffffff1673ffffffffffffffffffffffffffffffffffffffff1614612bd9576040517f08c379a0000000000000000000000000000000000000000000000000000000008152600401612bd090614742565b60405180910390fd5b80600560006101000a81548173ffffffffffffffffffffffffffffffffffffffff021916908373ffffffffffffffffffffffffffffffffffffffff16021790555050565b806001805490508110612c65576040517f08c379a0000000000000000000000000000000000000000000000000000000008152600401612c5c90614563565b60405180910390fd5b8160018181548110612c7a57612c79614583565b5b90600052602060002090600a020160010160009054906101000a900473ffffffffffffffffffffffffffffffffffffffff1673ffffffffffffffffffffffffffffffffffffffff163373ffffffffffffffffffffffffffffffffffffffff1614612d19576040517f08c379a0000000000000000000000000000000000000000000000000000000008152600401612d10906145fe565b60405180910390fd5b826001806006811115612d2f57612d2e613f25565b5b60018381548110612d4357612d42614583565b5b90600052602060002090600a020160050160009054906101000a900460ff166006811115612d7457612d73613f25565b5b14612db4576040517f08c379a0000000000000000000000000000000000000000000000000000000008152600401612dab9061466a565b60405180910390fd5b8442612df060065460018481548110612dd057612dcf614583565b5b90600052602060002090600a02016003015461329d90919063ffffffff16565b1115612e31576040517f08c379a0000000000000000000000000000000000000000000000000000000008152600401612e28906148a1565b60405180910390fd5b600060018781548110612e4757612e46614583565b5b90600052602060002090600a0201905060058160050160006101000a81548160ff02191690836006811115612e7f57612e7e613f25565b5b0217905550612e8d876132fb565b3373ffffffffffffffffffffffffffffffffffffffff16877f419d68f7b2c9a95a72485fa94feb86c741736a2c3b0a01c27d3dbe3e371b456860405160405180910390a350505050505050565b60065481565b612ee8613295565b73ffffffffffffffffffffffffffffffffffffffff1660008054906101000a900473ffffffffffffffffffffffffffffffffffffffff1673ffffffffffffffffffffffffffffffffffffffff1614612f75576040517f08c379a0000000000000000000000000000000000000000000000000000000008152600401612f6c90614742565b60405180910390fd5b612f7e81613757565b50565b600460009054906101000a900473ffffffffffffffffffffffffffffffffffffffff1673ffffffffffffffffffffffffffffffffffffffff163373ffffffffffffffffffffffffffffffffffffffff1614613011576040517f08c379a000000000000000000000000000000000000000000000000000000000815260040161300890614c16565b60405180910390fd5b80600360006101000a81548173ffffffffffffffffffffffffffffffffffffffff021916908373ffffffffffffffffffffffffffffffffffffffff16021790555050565b60075481565b6000806001838154811061307257613071614583565b5b90600052602060002090600a020190506130b0620186a06130a2600754846009015461349f90919063ffffffff16565b61351a90919063ffffffff16565b915050919050565b600080600183815481106130cf576130ce614583565b5b90600052602060002090600a0201905061310d620186a06130ff600854846009015461349f90919063ffffffff16565b61351a90919063ffffffff16565b915050919050565b600061315783836040518060400160405280601e81526020017f536166654d6174683a207375627472616374696f6e206f766572666c6f770000815250613884565b905092915050565b6000808473ffffffffffffffffffffffffffffffffffffffff1663a9059cbb8585604051602401613191929190614d5c565b6040516020818303038152906040529060e01b6020820180517bffffffffffffffffffffffffffffffffffffffffffffffffffffffff83818316178352505050506040516131df9190614dcc565b6000604051808303816000865af19150503d806000811461321c576040519150601f19603f3d011682016040523d82523d6000602084013e613221565b606091505b509150915081801561324f575060008151148061324e57508080602001905181019061324d9190614968565b5b5b61328e576040517f08c379a000000000000000000000000000000000000000000000000000000000815260040161328590614e2f565b60405180910390fd5b5050505050565b600033905090565b60008082846132ac9190614b74565b9050838110156132f1576040517f08c379a00000000000000000000000000000000000000000000000000000000081526004016132e890614e9b565b60405180910390fd5b8091505092915050565b60006001828154811061331157613310614583565b5b90600052602060002090600a02019050600061332c8361305b565b905060006133398461369d565b90506000613346856138e8565b9050600061335d828561311590919063ffffffff16565b9050600061338a8361337c88600901548761329d90919063ffffffff16565b61311590919063ffffffff16565b90506133f08660070160009054906101000a900473ffffffffffffffffffffffffffffffffffffffff16600360009054906101000a900473ffffffffffffffffffffffffffffffffffffffff166133eb60028761349f90919063ffffffff16565b61315f565b6134438660070160009054906101000a900473ffffffffffffffffffffffffffffffffffffffff168760010160009054906101000a900473ffffffffffffffffffffffffffffffffffffffff168461315f565b6134968660070160009054906101000a900473ffffffffffffffffffffffffffffffffffffffff168760020160009054906101000a900473ffffffffffffffffffffffffffffffffffffffff168361315f565b50505050505050565b6000808314156134b25760009050613514565b600082846134c09190614ebb565b90508284826134cf9190614f44565b1461350f576040517f08c379a000000000000000000000000000000000000000000000000000000000815260040161350690614fe7565b60405180910390fd5b809150505b92915050565b600061355c83836040518060400160405280601a81526020017f536166654d6174683a206469766973696f6e206279207a65726f000000000000815250613945565b905092915050565b6000808573ffffffffffffffffffffffffffffffffffffffff166323b872dd86868660405160240161359893929190615007565b6040516020818303038152906040529060e01b6020820180517bffffffffffffffffffffffffffffffffffffffffffffffffffffffff83818316178352505050506040516135e69190614dcc565b6000604051808303816000865af19150503d8060008114613623576040519150601f19603f3d011682016040523d82523d6000602084013e613628565b606091505b509150915081801561365657506000815114806136555750808060200190518101906136549190614968565b5b5b613695576040517f08c379a000000000000000000000000000000000000000000000000000000000815260040161368c906150b0565b60405180910390fd5b505050505050565b600080600183815481106136b4576136b3614583565b5b90600052602060002090600a020190506136f2620186a06136e4600a54846009015461349f90919063ffffffff16565b61351a90919063ffffffff16565b915050919050565b6000806001838154811061371157613710614583565b5b90600052602060002090600a0201905061374f620186a0613741600954846009015461349f90919063ffffffff16565b61351a90919063ffffffff16565b915050919050565b600073ffffffffffffffffffffffffffffffffffffffff168173ffffffffffffffffffffffffffffffffffffffff1614156137c7576040517f08c379a00000000000000000000000000000000000000000000000000000000081526004016137be90615142565b60405180910390fd5b8073ffffffffffffffffffffffffffffffffffffffff1660008054906101000a900473ffffffffffffffffffffffffffffffffffffffff1673ffffffffffffffffffffffffffffffffffffffff167f8be0079c531659141344cd1fd0a4f28419497f9722a3daafe3b4186f6b6457e060405160405180910390a3806000806101000a81548173ffffffffffffffffffffffffffffffffffffffff021916908373ffffffffffffffffffffffffffffffffffffffff16021790555050565b60008383111582906138cc576040517f08c379a00000000000000000000000000000000000000000000000000000000081526004016138c39190615162565b60405180910390fd5b50600083856138db9190615184565b9050809150509392505050565b600080600183815481106138ff576138fe614583565b5b90600052602060002090600a0201905061393d620186a061392f600b54846009015461349f90919063ffffffff16565b61351a90919063ffffffff16565b915050919050565b6000808311829061398c576040517f08c379a00000000000000000000000000000000000000000000000000000000081526004016139839190615162565b60405180910390fd5b506000838561399b9190614f44565b9050809150509392505050565b8280546139b490614791565b90600052602060002090601f0160209004810192826139d65760008555613a1d565b82601f106139ef57805160ff1916838001178555613a1d565b82800160010185558215613a1d579182015b82811115613a1c578251825591602001919060010190613a01565b5b509050613a2a9190613ad5565b5090565b60405180610140016040528060008152602001600073ffffffffffffffffffffffffffffffffffffffff168152602001600073ffffffffffffffffffffffffffffffffffffffff168152602001600081526020016000815260200160006006811115613a9d57613a9c613f25565b5b815260200160008152602001600073ffffffffffffffffffffffffffffffffffffffff16815260200160008152602001600081525090565b5b80821115613aee576000816000905550600101613ad6565b5090565b600073ffffffffffffffffffffffffffffffffffffffff82169050919050565b6000613b1d82613af2565b9050919050565b613b2d81613b12565b82525050565b6000602082019050613b486000830184613b24565b92915050565b6000604051905090565b600080fd5b600080fd5b6000819050919050565b613b7581613b62565b8114613b8057600080fd5b50565b600081359050613b9281613b6c565b92915050565b600060208284031215613bae57613bad613b58565b5b6000613bbc84828501613b83565b91505092915050565b600080fd5b600080fd5b6000601f19601f8301169050919050565b7f4e487b7100000000000000000000000000000000000000000000000000000000600052604160045260246000fd5b613c1882613bcf565b810181811067ffffffffffffffff82111715613c3757613c36613be0565b5b80604052505050565b6000613c4a613b4e565b9050613c568282613c0f565b919050565b600067ffffffffffffffff821115613c7657613c75613be0565b5b613c7f82613bcf565b9050602081019050919050565b82818337600083830152505050565b6000613cae613ca984613c5b565b613c40565b905082815260208101848484011115613cca57613cc9613bca565b5b613cd5848285613c8c565b509392505050565b600082601f830112613cf257613cf1613bc5565b5b8135613d02848260208601613c9b565b91505092915050565b600060208284031215613d2157613d20613b58565b5b600082013567ffffffffffffffff811115613d3f57613d3e613b5d565b5b613d4b84828501613cdd565b91505092915050565b600081519050919050565b600082825260208201905092915050565b60005b83811015613d8e578082015181840152602081019050613d73565b83811115613d9d576000848401525b50505050565b6000613dae82613d54565b613db88185613d5f565b9350613dc8818560208601613d70565b613dd181613bcf565b840191505092915050565b60008115159050919050565b613df181613ddc565b82525050565b60006040820190508181036000830152613e118185613da3565b9050613e206020830184613de8565b9392505050565b613e3081613b62565b82525050565b6000602082019050613e4b6000830184613e27565b92915050565b613e5a81613b12565b8114613e6557600080fd5b50565b600081359050613e7781613e51565b92915050565b600080600080600060a08688031215613e9957613e98613b58565b5b6000613ea788828901613b83565b9550506020613eb888828901613b83565b9450506040613ec988828901613e68565b9350506060613eda88828901613b83565b9250506080613eeb88828901613b83565b9150509295509295909350565b600060208284031215613f0e57613f0d613b58565b5b6000613f1c84828501613e68565b91505092915050565b7f4e487b7100000000000000000000000000000000000000000000000000000000600052602160045260246000fd5b60078110613f6557613f64613f25565b5b50565b6000819050613f7682613f54565b919050565b6000613f8682613f68565b9050919050565b613f9681613f7b565b82525050565b600061014082019050613fb2600083018d613e27565b613fbf602083018c613b24565b613fcc604083018b613b24565b613fd9606083018a613e27565b613fe66080830189613e27565b613ff360a0830188613f8d565b61400060c0830187613e27565b61400d60e0830186613b24565b61401b610100830185613e27565b614029610120830184613e27565b9b9a5050505050505050505050565b6000819050919050565b61404b81614038565b811461405657600080fd5b50565b60008135905061406881614042565b92915050565b600067ffffffffffffffff82111561408957614088613be0565b5b602082029050602081019050919050565b600080fd5b600781106140ac57600080fd5b50565b6000813590506140be8161409f565b92915050565b60006140d76140d28461406e565b613c40565b905080838252602082019050602084028301858111156140fa576140f961409a565b5b835b81811015614123578061410f88826140af565b8452602084019350506020810190506140fc565b5050509392505050565b600082601f83011261414257614141613bc5565b5b81356141528482602086016140c4565b91505092915050565b600067ffffffffffffffff82111561417657614175613be0565b5b602082029050602081019050919050565b600061419a6141958461415b565b613c40565b905080838252602082019050602084028301858111156141bd576141bc61409a565b5b835b818110156141e657806141d28882613b83565b8452602084019350506020810190506141bf565b5050509392505050565b600082601f83011261420557614204613bc5565b5b8135614215848260208601614187565b91505092915050565b61422781613ddc565b811461423257600080fd5b50565b6000813590506142448161421e565b92915050565b60008060008060008060008060006101208a8c03121561426d5761426c613b58565b5b600061427b8c828d01614059565b995050602061428c8c828d01613b83565b985050604061429d8c828d01613e68565b97505060606142ae8c828d01613e68565b96505060808a013567ffffffffffffffff8111156142cf576142ce613b5d565b5b6142db8c828d0161412d565b95505060a08a013567ffffffffffffffff8111156142fc576142fb613b5d565b5b6143088c828d016141f0565b94505060c06143198c828d01613b83565b93505060e061432a8c828d01613b83565b92505061010061433c8c828d01614235565b9150509295985092959850929598565b600081519050919050565b600082825260208201905092915050565b6000819050602082019050919050565b61438181613b62565b82525050565b61439081613b12565b82525050565b61439f81613f7b565b82525050565b610140820160008201516143bc6000850182614378565b5060208201516143cf6020850182614387565b5060408201516143e26040850182614387565b5060608201516143f56060850182614378565b5060808201516144086080850182614378565b5060a082015161441b60a0850182614396565b5060c082015161442e60c0850182614378565b5060e082015161444160e0850182614387565b50610100820151614456610100850182614378565b5061012082015161446b610120850182614378565b50505050565b600061447d83836143a5565b6101408301905092915050565b6000602082019050919050565b60006144a28261434c565b6144ac8185614357565b93506144b783614368565b8060005b838110156144e85781516144cf8882614471565b97506144da8361448a565b9250506001810190506144bb565b5085935050505092915050565b6000602082019050818103600083015261450f8184614497565b905092915050565b7f42415a4141523a20494e56414c49445f4f524445520000000000000000000000600082015250565b600061454d601583613d5f565b915061455882614517565b602082019050919050565b6000602082019050818103600083015261457c81614540565b9050919050565b7f4e487b7100000000000000000000000000000000000000000000000000000000600052603260045260246000fd5b7f42415a4141523a204f4e4c595f53454c4c455200000000000000000000000000600082015250565b60006145e8601383613d5f565b91506145f3826145b2565b602082019050919050565b60006020820190508181036000830152614617816145db565b9050919050565b7f42415a4141523a20494e56414c49445f4f524445525f53544154450000000000600082015250565b6000614654601b83613d5f565b915061465f8261461e565b602082019050919050565b6000602082019050818103600083015261468381614647565b9050919050565b7f42415a4141523a204f524445525f444541444c494e455f455843454544454400600082015250565b60006146c0601f83613d5f565b91506146cb8261468a565b602082019050919050565b600060208201905081810360008301526146ef816146b3565b9050919050565b7f4f776e61626c653a2063616c6c6572206973206e6f7420746865206f776e6572600082015250565b600061472c602083613d5f565b9150614737826146f6565b602082019050919050565b6000602082019050818103600083015261475b8161471f565b9050919050565b7f4e487b7100000000000000000000000000000000000000000000000000000000600052602260045260246000fd5b600060028204905060018216806147a957607f821691505b602082108114156147bd576147bc614762565b5b50919050565b7f42415a4141523a204f4e4c595f42555945520000000000000000000000000000600082015250565b60006147f9601283613d5f565b9150614804826147c3565b602082019050919050565b60006020820190508181036000830152614828816147ec565b9050919050565b7f42415a4141523a204f524445525f4d41585f44454c49564552595f4e4f545f4560008201527f5843454544454400000000000000000000000000000000000000000000000000602082015250565b600061488b602783613d5f565b91506148968261482f565b604082019050919050565b600060208201905081810360008301526148ba8161487e565b9050919050565b7f42415a4141523a204f524445525f444541444c494e455f4e4f545f455843454560008201527f4445440000000000000000000000000000000000000000000000000000000000602082015250565b600061491d602383613d5f565b9150614928826148c1565b604082019050919050565b6000602082019050818103600083015261494c81614910565b9050919050565b6000815190506149628161421e565b92915050565b60006020828403121561497e5761497d613b58565b5b600061498c84828501614953565b91505092915050565b7f42415a4141523a204e4f545f5245474953544552454400000000000000000000600082015250565b60006149cb601683613d5f565b91506149d682614995565b602082019050919050565b600060208201905081810360008301526149fa816149be565b9050919050565b7f42415a4141523a20494e56414c49445f534f555243455f415353455400000000600082015250565b6000614a37601c83613d5f565b9150614a4282614a01565b602082019050919050565b60006020820190508181036000830152614a6681614a2a565b9050919050565b7f42415a4141523a20494e56414c49445f534f555243455f414d4f554e54000000600082015250565b6000614aa3601d83613d5f565b9150614aae82614a6d565b602082019050919050565b60006020820190508181036000830152614ad281614a96565b9050919050565b7f42415a4141523a20494e56414c49445f5441524745545f414d4f554e54000000600082015250565b6000614b0f601d83613d5f565b9150614b1a82614ad9565b602082019050919050565b60006020820190508181036000830152614b3e81614b02565b9050919050565b7f4e487b7100000000000000000000000000000000000000000000000000000000600052601160045260246000fd5b6000614b7f82613b62565b9150614b8a83613b62565b9250827fffffffffffffffffffffffffffffffffffffffffffffffffffffffffffffffff03821115614bbf57614bbe614b45565b5b828201905092915050565b7f42415a4141523a20464f5242494444454e000000000000000000000000000000600082015250565b6000614c00601183613d5f565b9150614c0b82614bca565b602082019050919050565b60006020820190508181036000830152614c2f81614bf3565b9050919050565b6000614c4182614038565b9150614c4c83614038565b9250827f800000000000000000000000000000000000000000000000000000000000000001821260008412151615614c8757614c86614b45565b5b827f7fffffffffffffffffffffffffffffffffffffffffffffffffffffffffffffff018213600084121615614cbf57614cbe614b45565b5b828203905092915050565b6000614cd582613b62565b91507fffffffffffffffffffffffffffffffffffffffffffffffffffffffffffffffff821415614d0857614d07614b45565b5b600182019050919050565b6000614d1e82614038565b91507f8000000000000000000000000000000000000000000000000000000000000000821415614d5157614d50614b45565b5b600182039050919050565b6000604082019050614d716000830185613b24565b614d7e6020830184613e27565b9392505050565b600081519050919050565b600081905092915050565b6000614da682614d85565b614db08185614d90565b9350614dc0818560208601613d70565b80840191505092915050565b6000614dd88284614d9b565b915081905092915050565b7f5472616e7366657248656c7065723a205452414e534645525f4641494c454400600082015250565b6000614e19601f83613d5f565b9150614e2482614de3565b602082019050919050565b60006020820190508181036000830152614e4881614e0c565b9050919050565b7f536166654d6174683a206164646974696f6e206f766572666c6f770000000000600082015250565b6000614e85601b83613d5f565b9150614e9082614e4f565b602082019050919050565b60006020820190508181036000830152614eb481614e78565b9050919050565b6000614ec682613b62565b9150614ed183613b62565b9250817fffffffffffffffffffffffffffffffffffffffffffffffffffffffffffffffff0483118215151615614f0a57614f09614b45565b5b828202905092915050565b7f4e487b7100000000000000000000000000000000000000000000000000000000600052601260045260246000fd5b6000614f4f82613b62565b9150614f5a83613b62565b925082614f6a57614f69614f15565b5b828204905092915050565b7f536166654d6174683a206d756c7469706c69636174696f6e206f766572666c6f60008201527f7700000000000000000000000000000000000000000000000000000000000000602082015250565b6000614fd1602183613d5f565b9150614fdc82614f75565b604082019050919050565b6000602082019050818103600083015261500081614fc4565b9050919050565b600060608201905061501c6000830186613b24565b6150296020830185613b24565b6150366040830184613e27565b949350505050565b7f5472616e7366657248656c7065723a205452414e534645525f46524f4d5f464160008201527f494c454400000000000000000000000000000000000000000000000000000000602082015250565b600061509a602483613d5f565b91506150a58261503e565b604082019050919050565b600060208201905081810360008301526150c98161508d565b9050919050565b7f4f776e61626c653a206e6577206f776e657220697320746865207a65726f206160008201527f6464726573730000000000000000000000000000000000000000000000000000602082015250565b600061512c602683613d5f565b9150615137826150d0565b604082019050919050565b6000602082019050818103600083015261515b8161511f565b9050919050565b6000602082019050818103600083015261517c8184613da3565b905092915050565b600061518f82613b62565b915061519a83613b62565b9250828210156151ad576151ac614b45565b5b82820390509291505056fea2646970667358221220e9d1536bf38109aeb37036aacb9e6ccecd60f71802eea8ac7ff86774791b9fa464736f6c634300080b0033",
  "immutableReferences": {},
  "source": "// SPDX-License-Identifier: MIT\npragma solidity ^0.8.11;\n\nimport \"./libraries/Ownable.sol\";\nimport \"./interfaces/IERC20.sol\";\nimport \"./interfaces/IProfile.sol\";\nimport \"./libraries/SafeMath.sol\";\nimport \"./libraries/TransferHelper.sol\";\n\ncontract Bazaar is Ownable {\n    using SafeMath for uint256;\n\n    event OrderPlaced(uint256 indexed orderIdx, address indexed seller);\n    event OrderClosed(uint256 indexed orderIdx, address indexed seller);\n    event OrderCancelledBuySeller(uint256 indexed orderIdx, address indexed seller);\n    event OrderCancelledBuyBuyer(uint256 indexed orderIdx, address indexed buyer);\n    event OrderWithdrew(uint256 indexed orderIdx, address indexed seller);\n    event OrderSold(uint256 indexed orderIdx, address indexed buyer);\n    event DeliveryApproved(uint256 indexed orderIdx, address indexed buyer);\n\n    enum OrderState {\n        Placed,\n        Sold,\n        Finished,\n        Closed,\n        Withdrew,\n        CancelledBySeller,\n        CancelledByBuyer\n    }\n\n    struct SourceAsset {\n        string symbol;\n        bool deleted;\n    }\n\n    struct Order {\n        uint256 id;\n        address seller;\n        address buyer;\n        uint256 createdAt;\n        uint256 deadline; // timestamp of order deadline\n        OrderState state;\n        uint256 sourceAsset; // index of source asset\n        address targetAsset;\n        uint256 sourceAmount;\n        uint256 targetAmount;\n    }\n\n    Order[] public orders;\n    SourceAsset[] public allowedSourceAssets;\n\n    address public feeTo;\n    address public feeToSetter;\n    address public profileContract;\n\n    uint256 public maxDeliveryTime; // maximum delivery time in seconds\n    uint256 public guaranteePercent; // seller guarantee amount by fraction of 1000\n    uint256 public closeFee; // close fee by fraction of 1000\n    uint256 public sellFee; // sell fee by fraction of 1000\n    uint256 public buyFee; // buy fee by fraction of 1000\n    uint256 public cancellationFee; // cancellation fee by fraction of 1000\n\n    modifier onlyProfileHolders() {\n        require(\n            IProfile(profileContract).registered(msg.sender),\n            \"BAZAAR: NOT_REGISTERED\"\n        );\n        _;\n    }\n\n    modifier onlySeller(uint256 _orderIdx) {\n        require(msg.sender == orders[_orderIdx].seller, \"BAZAAR: ONLY_SELLER\");\n        _;\n    }\n\n    modifier onlyBuyer(uint256 _orderIdx) {\n        require(msg.sender == orders[_orderIdx].buyer, \"BAZAAR: ONLY_BUYER\");\n        _;\n    }\n\n    modifier validSourceAsset(uint256 _idx) {\n        require(\n            (_idx < allowedSourceAssets.length) &&\n                !allowedSourceAssets[_idx].deleted,\n            \"BAZAAR: INVALID_SOURCE_ASSET\"\n        );\n        _;\n    }\n\n    modifier validOrder(uint256 _idx) {\n        require(_idx < orders.length, \"BAZAAR: INVALID_ORDER\");\n        _;\n    }\n\n    modifier inState(uint256 _orderIdx, OrderState state) {\n        require(\n            orders[_orderIdx].state == state,\n            \"BAZAAR: INVALID_ORDER_STATE\"\n        );\n        _;\n    }\n\n    modifier notExpired(uint256 _orderIdx) {\n        require(\n            block.timestamp < orders[_orderIdx].deadline,\n            \"BAZAAR: ORDER_DEADLINE_EXCEEDED\"\n        );\n        _;\n    }\n\n    modifier expired(uint256 _orderIdx) {\n        require(\n            block.timestamp >= orders[_orderIdx].deadline,\n            \"BAZAAR: ORDER_DEADLINE_NOT_EXCEEDED\"\n        );\n        _;\n    }\n\n    modifier cancellable(uint256 _orderIdx) {\n        require(\n            (orders[_orderIdx].createdAt.add(maxDeliveryTime)) <=\n                block.timestamp,\n            \"BAZAAR: ORDER_MAX_DELIVERY_NOT_EXCEEDED\"\n        );\n        _;\n    }\n\n    constructor(address _profileContract) {\n        profileContract = _profileContract;\n        allowedSourceAssets.push(SourceAsset('GOLD_OUNCE', false));\n        allowedSourceAssets.push(SourceAsset('SILVER_OUNCE', false));\n        allowedSourceAssets.push(SourceAsset('CARAT_GOLD_18', false));\n        allowedSourceAssets.push(SourceAsset('CARAT_GOLD_24', false));\n        allowedSourceAssets.push(SourceAsset('GOLD_MESGHAL', false));\n        allowedSourceAssets.push(SourceAsset('GOLD_MELTED_CASH', false));\n        allowedSourceAssets.push(SourceAsset('MELTED_BANKING_GOLD', false));\n        allowedSourceAssets.push(SourceAsset('MELTED_GOLD', false));\n        allowedSourceAssets.push(SourceAsset('GOLD_COIN_CASH', false));\n        allowedSourceAssets.push(SourceAsset('GOLD_COIN', false));\n        allowedSourceAssets.push(SourceAsset('USD', false));\n        allowedSourceAssets.push(SourceAsset('MANAT', false));\n        allowedSourceAssets.push(SourceAsset('DIRHAM', false));\n        allowedSourceAssets.push(SourceAsset('DINAR_IRAQI', false));\n\n        guaranteePercent = 3_500; // 3.5% of sale price\n        closeFee = 10; // 0.01% of sale price\n        sellFee = 250; // 0.25% of sale price\n        buyFee = 250; // 0.25% of sale price\n        cancellationFee = 2_000; // 2% of sale price\n        feeToSetter = msg.sender;\n        feeTo = msg.sender;\n        maxDeliveryTime = 8 hours;\n    }\n\n    /**\n     * @dev calculate guarantee amount\n     */\n    function calcGuarantee(uint256 _orderIdx) internal view returns (uint256) {\n        Order storage order = orders[_orderIdx];\n\n        return order.targetAmount.mul(guaranteePercent).div(100_000);\n    }\n\n    /**\n     * @dev calculate sell fee\n     */\n    function calcSellFee(uint256 _orderIdx) internal view returns (uint256) {\n        Order storage order = orders[_orderIdx];\n\n        return order.targetAmount.mul(sellFee).div(100_000);\n    }\n\n    /**\n     * @dev calculate buy fee\n     */\n    function calcBuyFee(uint256 _orderIdx) internal view returns (uint256) {\n        Order storage order = orders[_orderIdx];\n\n        return order.targetAmount.mul(buyFee).div(100_000);\n    }\n\n    /**\n     * @dev calculate close fee\n     */\n    function calcCloseFee(uint256 _orderIdx) internal view returns (uint256) {\n        Order storage order = orders[_orderIdx];\n\n        return order.targetAmount.mul(closeFee).div(100_000);\n    }\n\n    /**\n     * @dev calculate cancellation fee\n     */\n    function calcCancellationFee(uint256 _orderIdx)\n        internal\n        view\n        returns (uint256)\n    {\n        Order storage order = orders[_orderIdx];\n\n        return order.targetAmount.mul(cancellationFee).div(100_000);\n    }\n\n    /**\n     * @dev set fee to account\n     */\n    function setFeeTo(address _feeTo) external {\n        require(msg.sender == feeToSetter, \"BAZAAR: FORBIDDEN\");\n        feeTo = _feeTo;\n    }\n\n    /**\n     * @dev set fee to setter account\n     */\n    function setFeeToSetter(address _feeToSetter) external {\n        require(msg.sender == feeToSetter, \"BAZAAR: FORBIDDEN\");\n        feeToSetter = _feeToSetter;\n    }\n\n    /**\n     * @dev set guarantee percent\n     */\n    function setGuaranteePercent(uint256 _value) public onlyOwner {\n        guaranteePercent = _value;\n    }\n\n    /**\n     * @dev set close fee\n     */\n    function setCloseFee(uint256 _value) public onlyOwner {\n        closeFee = _value;\n    }\n\n    /**\n     * @dev set sell fee\n     */\n    function setSellFee(uint256 _value) public onlyOwner {\n        sellFee = _value;\n    }\n\n    /**\n     * @dev set buy fee\n     */\n    function setBuyFee(uint256 _value) public onlyOwner {\n        buyFee = _value;\n    }\n\n    /**\n     * @dev set cancellation fee\n     */\n    function setCancellationFee(uint256 _value) public onlyOwner {\n        cancellationFee = _value;\n    }\n\n    /**\n     * @dev change profile contract address\n     */\n    function setProfile(address addr) public onlyOwner {\n        profileContract = addr;\n    }\n\n    /**\n     * @dev add new allowed source asset\n     */\n    function addAllowedSourceAsset(string memory _symbol) public onlyOwner {\n        allowedSourceAssets.push(SourceAsset(_symbol, false));\n    }\n\n    /**\n     * @dev disable allowed source asset\n     */\n    function disableAllowedSourceAsset(uint256 _idx) public onlyOwner {\n        allowedSourceAssets[_idx].deleted = true;\n    }\n\n    /**\n     * @dev enable allowed source asset\n     */\n    function enableAllowedSourceAsset(uint256 _idx) public onlyOwner {\n        allowedSourceAssets[_idx].deleted = false;\n    }\n\n    /**\n     * @dev create a new order\n     */\n    function placeOrder(\n        uint256 sourceAsset,\n        uint256 sourceAmount,\n        address targetAsset,\n        uint256 targetAmount,\n        uint256 timeout\n    )\n        public\n        onlyProfileHolders\n        validSourceAsset(sourceAsset)\n        returns (uint256)\n    {\n        require(sourceAmount > 0, \"BAZAAR: INVALID_SOURCE_AMOUNT\");\n        require(targetAmount > 0, \"BAZAAR: INVALID_TARGET_AMOUNT\");\n\n        Order memory order;\n        order.id = orders.length;\n        order.seller = msg.sender;\n        order.deadline = block.timestamp + timeout;\n        order.createdAt = block.timestamp;\n        order.sourceAsset = sourceAsset;\n        order.sourceAmount = sourceAmount;\n        order.targetAsset = targetAsset;\n        order.targetAmount = targetAmount;\n        order.state = OrderState.Placed;\n\n        orders.push(order);\n\n        // ((targetAmount * guaranteePercent) / 1000) / 100\n        uint256 _guaranteeAmount = targetAmount.mul(guaranteePercent).div(\n            100_000\n        );\n\n        TransferHelper.safeTransferFrom(\n            order.targetAsset,\n            msg.sender,\n            address(this),\n            _guaranteeAmount\n        );\n\n        emit OrderPlaced(order.id, order.seller);\n\n        return order.id;\n    }\n\n    /**\n     * @dev seller closes an order before its get expired\n     */\n    function close(uint256 _orderIdx)\n        public\n        validOrder(_orderIdx)\n        onlySeller(_orderIdx)\n        inState(_orderIdx, OrderState.Placed)\n        notExpired(_orderIdx)\n    {\n        Order storage order = orders[_orderIdx];\n\n        order.state = OrderState.Closed;\n\n        uint256 _guaranteeAmount = calcGuarantee(_orderIdx);\n        uint256 _closeFee = calcCloseFee(_orderIdx);\n\n        uint256 _toReturn = _guaranteeAmount.sub(_closeFee);\n\n        // transfer close fee\n        TransferHelper.safeTransfer(order.targetAsset, feeTo, _closeFee);\n\n        // return rest of guarantee deposit\n        TransferHelper.safeTransfer(order.targetAsset, order.seller, _toReturn);\n\n        emit OrderClosed(_orderIdx, msg.sender);\n    }\n\n    /**\n     * @dev withdraw guarantee amount for expired orders\n     */\n    function withdraw(uint256 _orderIdx)\n        public\n        validOrder(_orderIdx)\n        onlySeller(_orderIdx)\n        inState(_orderIdx, OrderState.Placed)\n        expired(_orderIdx)\n    {\n        Order storage order = orders[_orderIdx];\n\n        order.state = OrderState.Withdrew;\n\n        uint256 _guaranteeAmount = calcGuarantee(_orderIdx);\n\n        TransferHelper.safeTransfer(\n            order.targetAsset,\n            order.seller,\n            _guaranteeAmount\n        );\n\n        emit OrderWithdrew(_orderIdx, msg.sender);\n    }\n\n    /**\n     * @dev buy an asset\n     */\n    function buy(uint256 _orderIdx)\n        public\n        onlyProfileHolders\n        validOrder(_orderIdx)\n        inState(_orderIdx, OrderState.Placed)\n        notExpired(_orderIdx)\n    {\n        Order storage order = orders[_orderIdx];\n        order.buyer = msg.sender;\n        order.state = OrderState.Sold;\n\n        uint256 _buyFee = calcBuyFee(_orderIdx);\n\n        uint256 _totalDepo = order.targetAmount.add(_buyFee);\n\n        TransferHelper.safeTransferFrom(\n            order.targetAsset,\n            msg.sender,\n            address(this),\n            _totalDepo\n        );\n\n        emit OrderSold(_orderIdx, msg.sender);\n    }\n\n    /**\n     * @dev buyer approves that recieved asset\n     */\n    function approveDelivery(uint256 _orderIdx)\n        public\n        validOrder(_orderIdx)\n        onlyBuyer(_orderIdx)\n        inState(_orderIdx, OrderState.Sold)\n    {\n        Order storage order = orders[_orderIdx];\n        order.state = OrderState.Finished;\n\n        uint256 _guaranteeAmount = calcGuarantee(_orderIdx);\n        uint256 _buyFee = calcBuyFee(_orderIdx);\n        uint256 _sellFee = calcSellFee(_orderIdx);\n\n        uint256 _totalFee = _buyFee.add(_sellFee);\n\n        uint256 _transferAmount = order.targetAmount.add(_guaranteeAmount).sub(\n            _sellFee\n        );\n\n        TransferHelper.safeTransfer(\n            order.targetAsset,\n            order.seller,\n            _transferAmount\n        );\n\n        if (feeTo != address(0)) {\n            TransferHelper.safeTransfer(order.targetAsset, feeTo, _totalFee);\n        }\n\n        emit DeliveryApproved(_orderIdx, msg.sender);\n    }\n\n    /**\n     * @dev cancel an order and return funds\n     */\n    function _cancelOrder(uint256 _orderIdx) internal {\n        Order storage order = orders[_orderIdx];\n\n        uint256 _guaranteeAmount = calcGuarantee(_orderIdx);\n        uint256 _buyFee = calcBuyFee(_orderIdx);\n        uint256 _cancellationFee = calcCancellationFee(_orderIdx);\n\n        uint256 _toReturnSeller = _guaranteeAmount.sub(_cancellationFee);\n        uint256 _toReturnBuyer = _buyFee.add(order.targetAmount).sub(\n            _cancellationFee\n        );\n\n        // transfer cancellation fee(2 * cancelaltion fee, for seller and buyer)\n        TransferHelper.safeTransfer(\n            order.targetAsset,\n            feeTo,\n            _cancellationFee.mul(2)\n        );\n\n        // return rest of guarantee deposit\n        TransferHelper.safeTransfer(\n            order.targetAsset,\n            order.seller,\n            _toReturnSeller\n        );\n\n        // return rest of buyer deposit\n        TransferHelper.safeTransfer(\n            order.targetAsset,\n            order.buyer,\n            _toReturnBuyer\n        );\n    }\n\n    /**\n     * @dev seller cancels an order after sold\n     */\n    function cancelForSeller(uint256 _orderIdx)\n        public\n        validOrder(_orderIdx)\n        onlySeller(_orderIdx)\n        inState(_orderIdx, OrderState.Sold)\n        cancellable(_orderIdx)\n    {\n        Order storage order = orders[_orderIdx];\n\n        order.state = OrderState.CancelledBySeller;\n\n        _cancelOrder(_orderIdx);\n\n        emit OrderCancelledBuySeller(_orderIdx, msg.sender);\n    }\n\n    /**\n     * @dev buyer cancels an order after bought\n     */\n    function cancelForBuyer(uint256 _orderIdx)\n        public\n        validOrder(_orderIdx)\n        onlyBuyer(_orderIdx)\n        inState(_orderIdx, OrderState.Sold)\n        cancellable(_orderIdx)\n    {\n        Order storage order = orders[_orderIdx];\n\n        order.state = OrderState.CancelledByBuyer;\n\n        _cancelOrder(_orderIdx);\n\n        emit OrderCancelledBuyBuyer(_orderIdx, msg.sender);\n    }\n\n    /**\n     * @dev filters orders by give filters\n     */\n    function fetchOrders(\n        int256 fromID,\n        uint256 maxLength,\n        address buyer,\n        address seller,\n        OrderState[] memory states,\n        uint256[] memory sourceAssets,\n        uint256 fromDate,\n        uint256 toDate,\n        bool withExpireds\n    ) public view returns (Order[] memory) {\n        uint256 count = 0;\n        Order[] memory _upfrontOrders = new Order[](orders.length);\n\n        if (fromID < 0) {\n            fromID = int256(orders.length);\n        }\n\n        for (int256 i = fromID - 1; i >= 0; i--) {\n            if (count >= maxLength) break;\n\n            Order storage _order = orders[uint256(i)];\n\n            if (!withExpireds && (_order.deadline <= block.timestamp)) {\n                continue;\n            }\n\n            if (buyer != address(0)) {\n                if (_order.buyer != buyer) {\n                    continue;\n                }\n            }\n\n            if (seller != address(0)) {\n                if (_order.seller != seller) {\n                    continue;\n                }\n            }\n\n            if (fromDate > 0) {\n                if (_order.createdAt < fromDate) {\n                    continue;\n                }\n            }\n\n            if (toDate > 0) {\n                if (_order.createdAt > toDate) {\n                    continue;\n                }\n            }\n\n            if (sourceAssets.length > 0) {\n                bool found = false;\n\n                for (uint256 l = 0; l < sourceAssets.length; l++) {\n                    if (_order.sourceAsset == sourceAssets[l]) {\n                        found = true;\n                        break;\n                    }\n                }\n\n                if (!found) continue;\n            }\n\n            if (states.length > 0) {\n                bool found = false;\n\n                for (uint256 l = 0; l < states.length; l++) {\n                    if (_order.state == states[l]) {\n                        found = true;\n                        break;\n                    }\n                }\n\n                if (!found) continue;\n            }\n\n            _upfrontOrders[count] = _order;\n            count++;\n        }\n\n        Order[] memory _orders = new Order[](count);\n\n        for (uint256 i = 0; i < count; i++) {\n            _orders[i] = _upfrontOrders[i];\n        }\n\n        return _orders;\n    }\n}\n",
  "sourcePath": "/Users/bulwark/Projects/ecosc/bazaar/contracts/Bazaar.sol",
  "compiler": {
    "name": "solc",
    "version": "0.8.11+commit.d7f03943.Emscripten.clang"
  },
  "schemaVersion": "3.4.4",
  "updatedAt": "2022-02-23T13:26:00.841Z",
  "networkType": "ethereum",
  "devdoc": {
    "kind": "dev",
    "methods": {
      "addAllowedSourceAsset(string)": {
        "details": "add new allowed source asset"
      },
      "approveDelivery(uint256)": {
        "details": "buyer approves that recieved asset"
      },
      "buy(uint256)": {
        "details": "buy an asset"
      },
      "cancelForBuyer(uint256)": {
        "details": "buyer cancels an order after bought"
      },
      "cancelForSeller(uint256)": {
        "details": "seller cancels an order after sold"
      },
      "close(uint256)": {
        "details": "seller closes an order before its get expired"
      },
      "disableAllowedSourceAsset(uint256)": {
        "details": "disable allowed source asset"
      },
      "enableAllowedSourceAsset(uint256)": {
        "details": "enable allowed source asset"
      },
      "fetchOrders(int256,uint256,address,address,uint8[],uint256[],uint256,uint256,bool)": {
        "details": "filters orders by give filters"
      },
      "owner()": {
        "details": "Returns the address of the current owner."
      },
      "placeOrder(uint256,uint256,address,uint256,uint256)": {
        "details": "create a new order"
      },
      "renounceOwnership()": {
        "details": "Leaves the contract without owner. It will not be possible to call `onlyOwner` functions anymore. Can only be called by the current owner. NOTE: Renouncing ownership will leave the contract without an owner, thereby removing any functionality that is only available to the owner."
      },
      "setBuyFee(uint256)": {
        "details": "set buy fee"
      },
      "setCancellationFee(uint256)": {
        "details": "set cancellation fee"
      },
      "setCloseFee(uint256)": {
        "details": "set close fee"
      },
      "setFeeTo(address)": {
        "details": "set fee to account"
      },
      "setFeeToSetter(address)": {
        "details": "set fee to setter account"
      },
      "setGuaranteePercent(uint256)": {
        "details": "set guarantee percent"
      },
      "setProfile(address)": {
        "details": "change profile contract address"
      },
      "setSellFee(uint256)": {
        "details": "set sell fee"
      },
      "transferOwnership(address)": {
        "details": "Transfers ownership of the contract to a new account (`newOwner`). Can only be called by the current owner."
      },
      "withdraw(uint256)": {
        "details": "withdraw guarantee amount for expired orders"
      }
    },
    "version": 1
  },
  "userdoc": {
    "kind": "user",
    "methods": {},
    "version": 1
  }
}