{
  "contractName": "Bazaar",
  "abi": [
    {
      "inputs": [
        {
          "internalType": "address",
          "name": "_profileContract",
          "type": "address"
        }
      ],
      "stateMutability": "nonpayable",
      "type": "constructor"
    },
    {
      "anonymous": false,
      "inputs": [
        {
          "indexed": true,
          "internalType": "uint256",
          "name": "orderIdx",
          "type": "uint256"
        },
        {
          "indexed": true,
          "internalType": "address",
          "name": "buyer",
          "type": "address"
        }
      ],
      "name": "DeliveryApproved",
      "type": "event"
    },
    {
      "anonymous": false,
      "inputs": [
        {
          "indexed": true,
          "internalType": "uint256",
          "name": "orderIdx",
          "type": "uint256"
        },
        {
          "indexed": true,
          "internalType": "address",
          "name": "buyer",
          "type": "address"
        }
      ],
      "name": "OrderCancelledBuyBuyer",
      "type": "event"
    },
    {
      "anonymous": false,
      "inputs": [
        {
          "indexed": true,
          "internalType": "uint256",
          "name": "orderIdx",
          "type": "uint256"
        },
        {
          "indexed": true,
          "internalType": "address",
          "name": "seller",
          "type": "address"
        }
      ],
      "name": "OrderCancelledBuySeller",
      "type": "event"
    },
    {
      "anonymous": false,
      "inputs": [
        {
          "indexed": true,
          "internalType": "uint256",
          "name": "orderIdx",
          "type": "uint256"
        },
        {
          "indexed": true,
          "internalType": "address",
          "name": "seller",
          "type": "address"
        }
      ],
      "name": "OrderClosed",
      "type": "event"
    },
    {
      "anonymous": false,
      "inputs": [
        {
          "indexed": true,
          "internalType": "uint256",
          "name": "orderIdx",
          "type": "uint256"
        },
        {
          "indexed": true,
          "internalType": "address",
          "name": "seller",
          "type": "address"
        }
      ],
      "name": "OrderPlaced",
      "type": "event"
    },
    {
      "anonymous": false,
      "inputs": [
        {
          "indexed": true,
          "internalType": "uint256",
          "name": "orderIdx",
          "type": "uint256"
        },
        {
          "indexed": true,
          "internalType": "address",
          "name": "buyer",
          "type": "address"
        }
      ],
      "name": "OrderSold",
      "type": "event"
    },
    {
      "anonymous": false,
      "inputs": [
        {
          "indexed": true,
          "internalType": "uint256",
          "name": "orderIdx",
          "type": "uint256"
        },
        {
          "indexed": true,
          "internalType": "address",
          "name": "seller",
          "type": "address"
        }
      ],
      "name": "OrderWithdrew",
      "type": "event"
    },
    {
      "anonymous": false,
      "inputs": [
        {
          "indexed": true,
          "internalType": "address",
          "name": "previousOwner",
          "type": "address"
        },
        {
          "indexed": true,
          "internalType": "address",
          "name": "newOwner",
          "type": "address"
        }
      ],
      "name": "OwnershipTransferred",
      "type": "event"
    },
    {
      "inputs": [
        {
          "internalType": "uint256",
          "name": "",
          "type": "uint256"
        }
      ],
      "name": "allowedSourceAssets",
      "outputs": [
        {
          "internalType": "string",
          "name": "symbol",
          "type": "string"
        },
        {
          "internalType": "bool",
          "name": "deleted",
          "type": "bool"
        }
      ],
      "stateMutability": "view",
      "type": "function",
      "constant": true
    },
    {
      "inputs": [],
      "name": "buyFee",
      "outputs": [
        {
          "internalType": "uint256",
          "name": "",
          "type": "uint256"
        }
      ],
      "stateMutability": "view",
      "type": "function",
      "constant": true
    },
    {
      "inputs": [],
      "name": "cancellationFee",
      "outputs": [
        {
          "internalType": "uint256",
          "name": "",
          "type": "uint256"
        }
      ],
      "stateMutability": "view",
      "type": "function",
      "constant": true
    },
    {
      "inputs": [],
      "name": "closeFee",
      "outputs": [
        {
          "internalType": "uint256",
          "name": "",
          "type": "uint256"
        }
      ],
      "stateMutability": "view",
      "type": "function",
      "constant": true
    },
    {
      "inputs": [],
      "name": "feeTo",
      "outputs": [
        {
          "internalType": "address",
          "name": "",
          "type": "address"
        }
      ],
      "stateMutability": "view",
      "type": "function",
      "constant": true
    },
    {
      "inputs": [],
      "name": "feeToSetter",
      "outputs": [
        {
          "internalType": "address",
          "name": "",
          "type": "address"
        }
      ],
      "stateMutability": "view",
      "type": "function",
      "constant": true
    },
    {
      "inputs": [],
      "name": "guaranteePercent",
      "outputs": [
        {
          "internalType": "uint256",
          "name": "",
          "type": "uint256"
        }
      ],
      "stateMutability": "view",
      "type": "function",
      "constant": true
    },
    {
      "inputs": [],
      "name": "maxDeliveryTime",
      "outputs": [
        {
          "internalType": "uint256",
          "name": "",
          "type": "uint256"
        }
      ],
      "stateMutability": "view",
      "type": "function",
      "constant": true
    },
    {
      "inputs": [
        {
          "internalType": "uint256",
          "name": "",
          "type": "uint256"
        }
      ],
      "name": "orders",
      "outputs": [
        {
          "internalType": "uint256",
          "name": "id",
          "type": "uint256"
        },
        {
          "internalType": "address",
          "name": "seller",
          "type": "address"
        },
        {
          "internalType": "address",
          "name": "buyer",
          "type": "address"
        },
        {
          "internalType": "uint256",
          "name": "createdAt",
          "type": "uint256"
        },
        {
          "internalType": "uint256",
          "name": "deadline",
          "type": "uint256"
        },
        {
          "internalType": "enum Bazaar.OrderState",
          "name": "state",
          "type": "uint8"
        },
        {
          "internalType": "uint256",
          "name": "sourceAsset",
          "type": "uint256"
        },
        {
          "internalType": "address",
          "name": "targetAsset",
          "type": "address"
        },
        {
          "internalType": "uint256",
          "name": "sourceAmount",
          "type": "uint256"
        },
        {
          "internalType": "uint256",
          "name": "targetAmount",
          "type": "uint256"
        }
      ],
      "stateMutability": "view",
      "type": "function",
      "constant": true
    },
    {
      "inputs": [],
      "name": "owner",
      "outputs": [
        {
          "internalType": "address",
          "name": "",
          "type": "address"
        }
      ],
      "stateMutability": "view",
      "type": "function",
      "constant": true
    },
    {
      "inputs": [],
      "name": "profileContract",
      "outputs": [
        {
          "internalType": "address",
          "name": "",
          "type": "address"
        }
      ],
      "stateMutability": "view",
      "type": "function",
      "constant": true
    },
    {
      "inputs": [],
      "name": "renounceOwnership",
      "outputs": [],
      "stateMutability": "nonpayable",
      "type": "function"
    },
    {
      "inputs": [],
      "name": "sellFee",
      "outputs": [
        {
          "internalType": "uint256",
          "name": "",
          "type": "uint256"
        }
      ],
      "stateMutability": "view",
      "type": "function",
      "constant": true
    },
    {
      "inputs": [
        {
          "internalType": "address",
          "name": "newOwner",
          "type": "address"
        }
      ],
      "name": "transferOwnership",
      "outputs": [],
      "stateMutability": "nonpayable",
      "type": "function"
    },
    {
      "inputs": [
        {
          "internalType": "address",
          "name": "_feeTo",
          "type": "address"
        }
      ],
      "name": "setFeeTo",
      "outputs": [],
      "stateMutability": "nonpayable",
      "type": "function"
    },
    {
      "inputs": [
        {
          "internalType": "address",
          "name": "_feeToSetter",
          "type": "address"
        }
      ],
      "name": "setFeeToSetter",
      "outputs": [],
      "stateMutability": "nonpayable",
      "type": "function"
    },
    {
      "inputs": [
        {
          "internalType": "uint256",
          "name": "_value",
          "type": "uint256"
        }
      ],
      "name": "setGuaranteePercent",
      "outputs": [],
      "stateMutability": "nonpayable",
      "type": "function"
    },
    {
      "inputs": [
        {
          "internalType": "uint256",
          "name": "_value",
          "type": "uint256"
        }
      ],
      "name": "setCloseFee",
      "outputs": [],
      "stateMutability": "nonpayable",
      "type": "function"
    },
    {
      "inputs": [
        {
          "internalType": "uint256",
          "name": "_value",
          "type": "uint256"
        }
      ],
      "name": "setSellFee",
      "outputs": [],
      "stateMutability": "nonpayable",
      "type": "function"
    },
    {
      "inputs": [
        {
          "internalType": "uint256",
          "name": "_value",
          "type": "uint256"
        }
      ],
      "name": "setBuyFee",
      "outputs": [],
      "stateMutability": "nonpayable",
      "type": "function"
    },
    {
      "inputs": [
        {
          "internalType": "uint256",
          "name": "_value",
          "type": "uint256"
        }
      ],
      "name": "setCancellationFee",
      "outputs": [],
      "stateMutability": "nonpayable",
      "type": "function"
    },
    {
      "inputs": [
        {
          "internalType": "address",
          "name": "addr",
          "type": "address"
        }
      ],
      "name": "setProfile",
      "outputs": [],
      "stateMutability": "nonpayable",
      "type": "function"
    },
    {
      "inputs": [
        {
          "internalType": "string",
          "name": "_symbol",
          "type": "string"
        }
      ],
      "name": "addAllowedSourceAsset",
      "outputs": [],
      "stateMutability": "nonpayable",
      "type": "function"
    },
    {
      "inputs": [
        {
          "internalType": "uint256",
          "name": "_idx",
          "type": "uint256"
        }
      ],
      "name": "disableAllowedSourceAsset",
      "outputs": [],
      "stateMutability": "nonpayable",
      "type": "function"
    },
    {
      "inputs": [
        {
          "internalType": "uint256",
          "name": "_idx",
          "type": "uint256"
        }
      ],
      "name": "enableAllowedSourceAsset",
      "outputs": [],
      "stateMutability": "nonpayable",
      "type": "function"
    },
    {
      "inputs": [
        {
          "internalType": "uint256",
          "name": "sourceAsset",
          "type": "uint256"
        },
        {
          "internalType": "uint256",
          "name": "sourceAmount",
          "type": "uint256"
        },
        {
          "internalType": "address",
          "name": "targetAsset",
          "type": "address"
        },
        {
          "internalType": "uint256",
          "name": "targetAmount",
          "type": "uint256"
        },
        {
          "internalType": "uint256",
          "name": "timeout",
          "type": "uint256"
        }
      ],
      "name": "placeOrder",
      "outputs": [
        {
          "internalType": "uint256",
          "name": "",
          "type": "uint256"
        }
      ],
      "stateMutability": "nonpayable",
      "type": "function"
    },
    {
      "inputs": [
        {
          "internalType": "uint256",
          "name": "_orderIdx",
          "type": "uint256"
        }
      ],
      "name": "close",
      "outputs": [],
      "stateMutability": "nonpayable",
      "type": "function"
    },
    {
      "inputs": [
        {
          "internalType": "uint256",
          "name": "_orderIdx",
          "type": "uint256"
        }
      ],
      "name": "withdraw",
      "outputs": [],
      "stateMutability": "nonpayable",
      "type": "function"
    },
    {
      "inputs": [
        {
          "internalType": "uint256",
          "name": "_orderIdx",
          "type": "uint256"
        }
      ],
      "name": "buy",
      "outputs": [],
      "stateMutability": "nonpayable",
      "type": "function"
    },
    {
      "inputs": [
        {
          "internalType": "uint256",
          "name": "_orderIdx",
          "type": "uint256"
        }
      ],
      "name": "approveDelivery",
      "outputs": [],
      "stateMutability": "nonpayable",
      "type": "function"
    },
    {
      "inputs": [
        {
          "internalType": "uint256",
          "name": "_orderIdx",
          "type": "uint256"
        }
      ],
      "name": "cancelForSeller",
      "outputs": [],
      "stateMutability": "nonpayable",
      "type": "function"
    },
    {
      "inputs": [
        {
          "internalType": "uint256",
          "name": "_orderIdx",
          "type": "uint256"
        }
      ],
      "name": "cancelForBuyer",
      "outputs": [],
      "stateMutability": "nonpayable",
      "type": "function"
    },
    {
      "inputs": [
        {
          "internalType": "uint256",
          "name": "fromID",
          "type": "uint256"
        },
        {
          "internalType": "uint256",
          "name": "maxLength",
          "type": "uint256"
        },
        {
          "internalType": "address",
          "name": "buyer",
          "type": "address"
        },
        {
          "internalType": "address",
          "name": "seller",
          "type": "address"
        },
        {
          "internalType": "enum Bazaar.OrderState[]",
          "name": "states",
          "type": "uint8[]"
        },
        {
          "internalType": "uint256[]",
          "name": "sourceAssets",
          "type": "uint256[]"
        },
        {
          "internalType": "uint256",
          "name": "fromDate",
          "type": "uint256"
        },
        {
          "internalType": "uint256",
          "name": "toDate",
          "type": "uint256"
        },
        {
          "internalType": "bool",
          "name": "withExpireds",
          "type": "bool"
        }
      ],
      "name": "fetchOrders",
      "outputs": [
        {
          "components": [
            {
              "internalType": "uint256",
              "name": "id",
              "type": "uint256"
            },
            {
              "internalType": "address",
              "name": "seller",
              "type": "address"
            },
            {
              "internalType": "address",
              "name": "buyer",
              "type": "address"
            },
            {
              "internalType": "uint256",
              "name": "createdAt",
              "type": "uint256"
            },
            {
              "internalType": "uint256",
              "name": "deadline",
              "type": "uint256"
            },
            {
              "internalType": "enum Bazaar.OrderState",
              "name": "state",
              "type": "uint8"
            },
            {
              "internalType": "uint256",
              "name": "sourceAsset",
              "type": "uint256"
            },
            {
              "internalType": "address",
              "name": "targetAsset",
              "type": "address"
            },
            {
              "internalType": "uint256",
              "name": "sourceAmount",
              "type": "uint256"
            },
            {
              "internalType": "uint256",
              "name": "targetAmount",
              "type": "uint256"
            }
          ],
          "internalType": "struct Bazaar.Order[]",
          "name": "",
          "type": "tuple[]"
        }
      ],
      "stateMutability": "view",
      "type": "function",
      "constant": true
    }
  ],
  "bytecode": "0x60806040523480156200001157600080fd5b5060405162005fa438038062005fa4833981810160405281019062000037919062000d23565b60006200004962000c0160201b60201c565b9050806000806101000a81548173ffffffffffffffffffffffffffffffffffffffff021916908373ffffffffffffffffffffffffffffffffffffffff1602179055508073ffffffffffffffffffffffffffffffffffffffff16600073ffffffffffffffffffffffffffffffffffffffff167f8be0079c531659141344cd1fd0a4f28419497f9722a3daafe3b4186f6b6457e060405160405180910390a35080600560006101000a81548173ffffffffffffffffffffffffffffffffffffffff021916908373ffffffffffffffffffffffffffffffffffffffff160217905550600260405180604001604052806040518060400160405280600a81526020017f474f4c445f4f554e43450000000000000000000000000000000000000000000081525081526020016000151581525090806001815401808255809150506001900390600052602060002090600202016000909190919091506000820151816000019080519060200190620001be92919062000c09565b5060208201518160010160006101000a81548160ff0219169083151502179055505050600260405180604001604052806040518060400160405280600c81526020017f53494c5645525f4f554e43450000000000000000000000000000000000000000815250815260200160001515815250908060018154018082558091505060019003906000526020600020906002020160009091909190915060008201518160000190805190602001906200027792919062000c09565b5060208201518160010160006101000a81548160ff0219169083151502179055505050600260405180604001604052806040518060400160405280600d81526020017f43415241545f474f4c445f313800000000000000000000000000000000000000815250815260200160001515815250908060018154018082558091505060019003906000526020600020906002020160009091909190915060008201518160000190805190602001906200033092919062000c09565b5060208201518160010160006101000a81548160ff0219169083151502179055505050600260405180604001604052806040518060400160405280600d81526020017f43415241545f474f4c445f32340000000000000000000000000000000000000081525081526020016000151581525090806001815401808255809150506001900390600052602060002090600202016000909190919091506000820151816000019080519060200190620003e992919062000c09565b5060208201518160010160006101000a81548160ff0219169083151502179055505050600260405180604001604052806040518060400160405280600c81526020017f474f4c445f4d45534748414c000000000000000000000000000000000000000081525081526020016000151581525090806001815401808255809150506001900390600052602060002090600202016000909190919091506000820151816000019080519060200190620004a292919062000c09565b5060208201518160010160006101000a81548160ff0219169083151502179055505050600260405180604001604052806040518060400160405280601081526020017f474f4c445f4d454c5445445f4341534800000000000000000000000000000000815250815260200160001515815250908060018154018082558091505060019003906000526020600020906002020160009091909190915060008201518160000190805190602001906200055b92919062000c09565b5060208201518160010160006101000a81548160ff0219169083151502179055505050600260405180604001604052806040518060400160405280601381526020017f4d454c5445445f42414e4b494e475f474f4c4400000000000000000000000000815250815260200160001515815250908060018154018082558091505060019003906000526020600020906002020160009091909190915060008201518160000190805190602001906200061492919062000c09565b5060208201518160010160006101000a81548160ff0219169083151502179055505050600260405180604001604052806040518060400160405280600b81526020017f4d454c5445445f474f4c4400000000000000000000000000000000000000000081525081526020016000151581525090806001815401808255809150506001900390600052602060002090600202016000909190919091506000820151816000019080519060200190620006cd92919062000c09565b5060208201518160010160006101000a81548160ff0219169083151502179055505050600260405180604001604052806040518060400160405280600e81526020017f474f4c445f434f494e5f43415348000000000000000000000000000000000000815250815260200160001515815250908060018154018082558091505060019003906000526020600020906002020160009091909190915060008201518160000190805190602001906200078692919062000c09565b5060208201518160010160006101000a81548160ff0219169083151502179055505050600260405180604001604052806040518060400160405280600981526020017f474f4c445f434f494e0000000000000000000000000000000000000000000000815250815260200160001515815250908060018154018082558091505060019003906000526020600020906002020160009091909190915060008201518160000190805190602001906200083f92919062000c09565b5060208201518160010160006101000a81548160ff0219169083151502179055505050600260405180604001604052806040518060400160405280600381526020017f555344000000000000000000000000000000000000000000000000000000000081525081526020016000151581525090806001815401808255809150506001900390600052602060002090600202016000909190919091506000820151816000019080519060200190620008f892919062000c09565b5060208201518160010160006101000a81548160ff0219169083151502179055505050600260405180604001604052806040518060400160405280600581526020017f4d414e415400000000000000000000000000000000000000000000000000000081525081526020016000151581525090806001815401808255809150506001900390600052602060002090600202016000909190919091506000820151816000019080519060200190620009b192919062000c09565b5060208201518160010160006101000a81548160ff0219169083151502179055505050600260405180604001604052806040518060400160405280600681526020017f44495248414d00000000000000000000000000000000000000000000000000008152508152602001600015158152509080600181540180825580915050600190039060005260206000209060020201600090919091909150600082015181600001908051906020019062000a6a92919062000c09565b5060208201518160010160006101000a81548160ff0219169083151502179055505050600260405180604001604052806040518060400160405280600b81526020017f44494e41525f49524151490000000000000000000000000000000000000000008152508152602001600015158152509080600181540180825580915050600190039060005260206000209060020201600090919091909150600082015181600001908051906020019062000b2392919062000c09565b5060208201518160010160006101000a81548160ff0219169083151502179055505050612710600781905550606460088190555060fa60098190555060fa600a819055506064600b8190555033600460006101000a81548173ffffffffffffffffffffffffffffffffffffffff021916908373ffffffffffffffffffffffffffffffffffffffff16021790555033600360006101000a81548173ffffffffffffffffffffffffffffffffffffffff021916908373ffffffffffffffffffffffffffffffffffffffff1602179055506170806006819055505062000dba565b600033905090565b82805462000c179062000d84565b90600052602060002090601f01602090048101928262000c3b576000855562000c87565b82601f1062000c5657805160ff191683800117855562000c87565b8280016001018555821562000c87579182015b8281111562000c8657825182559160200191906001019062000c69565b5b50905062000c96919062000c9a565b5090565b5b8082111562000cb557600081600090555060010162000c9b565b5090565b600080fd5b600073ffffffffffffffffffffffffffffffffffffffff82169050919050565b600062000ceb8262000cbe565b9050919050565b62000cfd8162000cde565b811462000d0957600080fd5b50565b60008151905062000d1d8162000cf2565b92915050565b60006020828403121562000d3c5762000d3b62000cb9565b5b600062000d4c8482850162000d0c565b91505092915050565b7f4e487b7100000000000000000000000000000000000000000000000000000000600052602260045260246000fd5b6000600282049050600182168062000d9d57607f821691505b6020821081141562000db45762000db362000d55565b5b50919050565b6151da8062000dca6000396000f3fe608060405234801561001057600080fd5b506004361061020b5760003560e01c8063715018a61161012a578063a85c38ef116100bd578063e3fb75e41161008c578063f2fde38b11610071578063f2fde38b146105b2578063f46901ed146105ce578063f7d7c770146105ea5761020b565b8063e3fb75e414610578578063f1f9715e146105945761020b565b8063a85c38ef146104eb578063c94b674b14610524578063d96a094a14610540578063e0b6a1e31461055c5761020b565b8063a2e74af6116100f9578063a2e74af614610479578063a3974b2114610495578063a5de0423146104b3578063a68b9657146104cf5761020b565b8063715018a6146104055780637e266d8b1461040f5780638b4cee081461043f5780638da5cb5b1461045b5761020b565b80632dd10ad3116101a25780634863f5ea116101715780634863f5ea1461039157806360eec280146103ad5780636ef569a5146103c957806370492cbf146103e75761020b565b80632dd10ad31461030b5780632e1a7d4d146103275780633d9e05ac1461034357806347062402146103735761020b565b80631148a348116101de5780631148a3481461028457806312b48c1e146102a05780632a251e8d146102d15780632b14ca56146102ed5761020b565b8063017e7e5814610210578063094b74151461022e5780630aebeb4e1461024c5780630cc835a314610268575b600080fd5b610218610608565b6040516102259190613b4b565b60405180910390f35b61023661062e565b6040516102439190613b4b565b60405180910390f35b61026660048036038101906102619190613bb0565b610654565b005b610282600480360381019061027d9190613bb0565b6109cb565b005b61029e60048036038101906102999190613d23565b610a6a565b005b6102ba60048036038101906102b59190613bb0565b610b84565b6040516102c8929190613e0f565b60405180910390f35b6102eb60048036038101906102e69190613bb0565b610c4d565b005b6102f5610f0a565b6040516103029190613e4e565b60405180910390f35b61032560048036038101906103209190613bb0565b610f10565b005b610341600480360381019061033c9190613bb0565b610faf565b005b61035d60048036038101906103589190613e95565b6112b0565b60405161036a9190613e4e565b60405180910390f35b61037b61179c565b6040516103889190613e4e565b60405180910390f35b6103ab60048036038101906103a69190613bb0565b6117a2565b005b6103c760048036038101906103c29190613bb0565b611878565b005b6103d161194e565b6040516103de9190613e4e565b60405180910390f35b6103ef611954565b6040516103fc9190613e4e565b60405180910390f35b61040d61195a565b005b610429600480360381019061042491906140ec565b611aad565b60405161043691906143ff565b60405180910390f35b61045960048036038101906104549190613bb0565b612088565b005b610463612127565b6040516104709190613b4b565b60405180910390f35b610493600480360381019061048e9190614421565b612150565b005b61049d612224565b6040516104aa9190613b4b565b60405180910390f35b6104cd60048036038101906104c89190613bb0565b61224a565b005b6104e960048036038101906104e49190613bb0565b6122e9565b005b61050560048036038101906105009190613bb0565b612388565b60405161051b9a9998979695949392919061445d565b60405180910390f35b61053e60048036038101906105399190613bb0565b612459565b005b61055a60048036038101906105559190613bb0565b6127fa565b005b61057660048036038101906105719190614421565b612b5c565b005b610592600480360381019061058d9190613bb0565b612c35565b005b61059c612ef2565b6040516105a99190613e4e565b60405180910390f35b6105cc60048036038101906105c79190614421565b612ef8565b005b6105e860048036038101906105e39190614421565b612f99565b005b6105f261306d565b6040516105ff9190613e4e565b60405180910390f35b600360009054906101000a900473ffffffffffffffffffffffffffffffffffffffff1681565b600460009054906101000a900473ffffffffffffffffffffffffffffffffffffffff1681565b80600180549050811061069c576040517f08c379a000000000000000000000000000000000000000000000000000000000815260040161069390614545565b60405180910390fd5b81600181815481106106b1576106b0614565565b5b90600052602060002090600a020160010160009054906101000a900473ffffffffffffffffffffffffffffffffffffffff1673ffffffffffffffffffffffffffffffffffffffff163373ffffffffffffffffffffffffffffffffffffffff1614610750576040517f08c379a0000000000000000000000000000000000000000000000000000000008152600401610747906145e0565b60405180910390fd5b82600080600681111561076657610765614238565b5b6001838154811061077a57610779614565565b5b90600052602060002090600a020160050160009054906101000a900460ff1660068111156107ab576107aa614238565b5b146107eb576040517f08c379a00000000000000000000000000000000000000000000000000000000081526004016107e29061464c565b60405180910390fd5b8460018181548110610800576107ff614565565b5b90600052602060002090600a0201600401544210610853576040517f08c379a000000000000000000000000000000000000000000000000000000000815260040161084a906146b8565b60405180910390fd5b60006001878154811061086957610868614565565b5b90600052602060002090600a0201905060038160050160006101000a81548160ff021916908360068111156108a1576108a0614238565b5b021790555060006108b188613073565b905060006108be896130d0565b905060006108d5828461312d90919063ffffffff16565b90506109288460070160009054906101000a900473ffffffffffffffffffffffffffffffffffffffff16600360009054906101000a900473ffffffffffffffffffffffffffffffffffffffff1684613177565b61097b8460070160009054906101000a900473ffffffffffffffffffffffffffffffffffffffff168560010160009054906101000a900473ffffffffffffffffffffffffffffffffffffffff1683613177565b3373ffffffffffffffffffffffffffffffffffffffff168a7f4b5bcc2fcc61cdd6ab8b46567c95970321b41bf50984b3b38f13fc04015108ea60405160405180910390a350505050505050505050565b6109d36132ad565b73ffffffffffffffffffffffffffffffffffffffff1660008054906101000a900473ffffffffffffffffffffffffffffffffffffffff1673ffffffffffffffffffffffffffffffffffffffff1614610a60576040517f08c379a0000000000000000000000000000000000000000000000000000000008152600401610a5790614724565b60405180910390fd5b80600a8190555050565b610a726132ad565b73ffffffffffffffffffffffffffffffffffffffff1660008054906101000a900473ffffffffffffffffffffffffffffffffffffffff1673ffffffffffffffffffffffffffffffffffffffff1614610aff576040517f08c379a0000000000000000000000000000000000000000000000000000000008152600401610af690614724565b60405180910390fd5b600260405180604001604052808381526020016000151581525090806001815401808255809150506001900390600052602060002090600202016000909190919091506000820151816000019080519060200190610b5e9291906139c0565b5060208201518160010160006101000a81548160ff021916908315150217905550505050565b60028181548110610b9457600080fd5b9060005260206000209060020201600091509050806000018054610bb790614773565b80601f0160208091040260200160405190810160405280929190818152602001828054610be390614773565b8015610c305780601f10610c0557610100808354040283529160200191610c30565b820191906000526020600020905b815481529060010190602001808311610c1357829003601f168201915b5050505050908060010160009054906101000a900460ff16905082565b806001805490508110610c95576040517f08c379a0000000000000000000000000000000000000000000000000000000008152600401610c8c90614545565b60405180910390fd5b8160018181548110610caa57610ca9614565565b5b90600052602060002090600a020160020160009054906101000a900473ffffffffffffffffffffffffffffffffffffffff1673ffffffffffffffffffffffffffffffffffffffff163373ffffffffffffffffffffffffffffffffffffffff1614610d49576040517f08c379a0000000000000000000000000000000000000000000000000000000008152600401610d40906147f1565b60405180910390fd5b826001806006811115610d5f57610d5e614238565b5b60018381548110610d7357610d72614565565b5b90600052602060002090600a020160050160009054906101000a900460ff166006811115610da457610da3614238565b5b14610de4576040517f08c379a0000000000000000000000000000000000000000000000000000000008152600401610ddb9061464c565b60405180910390fd5b8442610e2060065460018481548110610e0057610dff614565565b5b90600052602060002090600a0201600301546132b590919063ffffffff16565b1115610e61576040517f08c379a0000000000000000000000000000000000000000000000000000000008152600401610e5890614883565b60405180910390fd5b600060018781548110610e7757610e76614565565b5b90600052602060002090600a0201905060068160050160006101000a81548160ff02191690836006811115610eaf57610eae614238565b5b0217905550610ebd87613313565b3373ffffffffffffffffffffffffffffffffffffffff16877f9e499ca7d3dbbd3efc165bd6c79e95aa1d2720df4fe490d80813a6675c9832b060405160405180910390a350505050505050565b60095481565b610f186132ad565b73ffffffffffffffffffffffffffffffffffffffff1660008054906101000a900473ffffffffffffffffffffffffffffffffffffffff1673ffffffffffffffffffffffffffffffffffffffff1614610fa5576040517f08c379a0000000000000000000000000000000000000000000000000000000008152600401610f9c90614724565b60405180910390fd5b80600b8190555050565b806001805490508110610ff7576040517f08c379a0000000000000000000000000000000000000000000000000000000008152600401610fee90614545565b60405180910390fd5b816001818154811061100c5761100b614565565b5b90600052602060002090600a020160010160009054906101000a900473ffffffffffffffffffffffffffffffffffffffff1673ffffffffffffffffffffffffffffffffffffffff163373ffffffffffffffffffffffffffffffffffffffff16146110ab576040517f08c379a00000000000000000000000000000000000000000000000000000000081526004016110a2906145e0565b60405180910390fd5b8260008060068111156110c1576110c0614238565b5b600183815481106110d5576110d4614565565b5b90600052602060002090600a020160050160009054906101000a900460ff16600681111561110657611105614238565b5b14611146576040517f08c379a000000000000000000000000000000000000000000000000000000000815260040161113d9061464c565b60405180910390fd5b846001818154811061115b5761115a614565565b5b90600052602060002090600a0201600401544210156111af576040517f08c379a00000000000000000000000000000000000000000000000000000000081526004016111a690614915565b60405180910390fd5b6000600187815481106111c5576111c4614565565b5b90600052602060002090600a0201905060048160050160006101000a81548160ff021916908360068111156111fd576111fc614238565b5b0217905550600061120d88613073565b90506112628260070160009054906101000a900473ffffffffffffffffffffffffffffffffffffffff168360010160009054906101000a900473ffffffffffffffffffffffffffffffffffffffff1683613177565b3373ffffffffffffffffffffffffffffffffffffffff16887f1506fa8dcc8bb8696cb3a90a3bb89dcad92495234c07164a60fab87e198c0f2b60405160405180910390a35050505050505050565b6000600560009054906101000a900473ffffffffffffffffffffffffffffffffffffffff1673ffffffffffffffffffffffffffffffffffffffff1663b2dd5c07336040518263ffffffff1660e01b815260040161130d9190613b4b565b602060405180830381865afa15801561132a573d6000803e3d6000fd5b505050506040513d601f19601f8201168201806040525081019061134e919061494a565b61138d576040517f08c379a0000000000000000000000000000000000000000000000000000000008152600401611384906149c3565b60405180910390fd5b85600280549050811080156113d25750600281815481106113b1576113b0614565565b5b906000526020600020906002020160010160009054906101000a900460ff16155b611411576040517f08c379a000000000000000000000000000000000000000000000000000000000815260040161140890614a2f565b60405180910390fd5b60008611611454576040517f08c379a000000000000000000000000000000000000000000000000000000000815260040161144b90614a9b565b60405180910390fd5b60008411611497576040517f08c379a000000000000000000000000000000000000000000000000000000000815260040161148e90614b07565b60405180910390fd5b61149f613a46565b60018054905081600001818152505033816020019073ffffffffffffffffffffffffffffffffffffffff16908173ffffffffffffffffffffffffffffffffffffffff168152505083426114f29190614b56565b81608001818152505042816060018181525050878160c00181815250508681610100018181525050858160e0019073ffffffffffffffffffffffffffffffffffffffff16908173ffffffffffffffffffffffffffffffffffffffff1681525050848161012001818152505060008160a00190600681111561157657611575614238565b5b9081600681111561158a57611589614238565b5b8152505060018190806001815401808255809150506001900390600052602060002090600a02016000909190919091506000820151816000015560208201518160010160006101000a81548173ffffffffffffffffffffffffffffffffffffffff021916908373ffffffffffffffffffffffffffffffffffffffff16021790555060408201518160020160006101000a81548173ffffffffffffffffffffffffffffffffffffffff021916908373ffffffffffffffffffffffffffffffffffffffff160217905550606082015181600301556080820151816004015560a08201518160050160006101000a81548160ff0219169083600681111561169157611690614238565b5b021790555060c0820151816006015560e08201518160070160006101000a81548173ffffffffffffffffffffffffffffffffffffffff021916908373ffffffffffffffffffffffffffffffffffffffff160217905550610100820151816008015561012082015181600901555050600061172b620186a061171d600754896134b790919063ffffffff16565b61353290919063ffffffff16565b905061173d8260e0015133308461357c565b816020015173ffffffffffffffffffffffffffffffffffffffff1682600001517f5222ba5f86a58ad15e7771bd95a809f162ae1762ea7cd66e28a58217341334cc60405160405180910390a38160000151935050505095945050505050565b600a5481565b6117aa6132ad565b73ffffffffffffffffffffffffffffffffffffffff1660008054906101000a900473ffffffffffffffffffffffffffffffffffffffff1673ffffffffffffffffffffffffffffffffffffffff1614611837576040517f08c379a000000000000000000000000000000000000000000000000000000000815260040161182e90614724565b60405180910390fd5b60016002828154811061184d5761184c614565565b5b906000526020600020906002020160010160006101000a81548160ff02191690831515021790555050565b6118806132ad565b73ffffffffffffffffffffffffffffffffffffffff1660008054906101000a900473ffffffffffffffffffffffffffffffffffffffff1673ffffffffffffffffffffffffffffffffffffffff161461190d576040517f08c379a000000000000000000000000000000000000000000000000000000000815260040161190490614724565b60405180910390fd5b60006002828154811061192357611922614565565b5b906000526020600020906002020160010160006101000a81548160ff02191690831515021790555050565b600b5481565b60085481565b6119626132ad565b73ffffffffffffffffffffffffffffffffffffffff1660008054906101000a900473ffffffffffffffffffffffffffffffffffffffff1673ffffffffffffffffffffffffffffffffffffffff16146119ef576040517f08c379a00000000000000000000000000000000000000000000000000000000081526004016119e690614724565b60405180910390fd5b600073ffffffffffffffffffffffffffffffffffffffff1660008054906101000a900473ffffffffffffffffffffffffffffffffffffffff1673ffffffffffffffffffffffffffffffffffffffff167f8be0079c531659141344cd1fd0a4f28419497f9722a3daafe3b4186f6b6457e060405160405180910390a360008060006101000a81548173ffffffffffffffffffffffffffffffffffffffff021916908373ffffffffffffffffffffffffffffffffffffffff160217905550565b606060008060018054905067ffffffffffffffff811115611ad157611ad0613bf8565b5b604051908082528060200260200182016040528015611b0a57816020015b611af7613a46565b815260200190600190039081611aef5790505b509050600180805490501015611b2457809250505061207b565b60008c1415611b36576001805490509b505b600060018d611b459190614bb6565b90505b60008112611fc3578b8310611b5c57611fc3565b600060018281548110611b7257611b71614565565b5b90600052602060002090600a0201905085158015611b94575042816004015411155b15611b9f5750611fb0565b600073ffffffffffffffffffffffffffffffffffffffff168c73ffffffffffffffffffffffffffffffffffffffff1614611c31578b73ffffffffffffffffffffffffffffffffffffffff168160020160009054906101000a900473ffffffffffffffffffffffffffffffffffffffff1673ffffffffffffffffffffffffffffffffffffffff1614611c305750611fb0565b5b600073ffffffffffffffffffffffffffffffffffffffff168b73ffffffffffffffffffffffffffffffffffffffff1614611cc3578a73ffffffffffffffffffffffffffffffffffffffff168160010160009054906101000a900473ffffffffffffffffffffffffffffffffffffffff1673ffffffffffffffffffffffffffffffffffffffff1614611cc25750611fb0565b5b6000881115611cdf578781600301541015611cde5750611fb0565b5b6000871115611cfb578681600301541115611cfa5750611fb0565b5b600089511115611d63576000805b8a51811015611d54578a8181518110611d2557611d24614565565b5b602002602001015183600601541415611d415760019150611d54565b8080611d4c90614c4a565b915050611d09565b5080611d61575050611fb0565b505b60008a511115611dfc576000805b8b51811015611ded578b8181518110611d8d57611d8c614565565b5b60200260200101516006811115611da757611da6614238565b5b8360050160009054906101000a900460ff166006811115611dcb57611dca614238565b5b1415611dda5760019150611ded565b8080611de590614c4a565b915050611d71565b5080611dfa575050611fb0565b505b8060405180610140016040529081600082015481526020016001820160009054906101000a900473ffffffffffffffffffffffffffffffffffffffff1673ffffffffffffffffffffffffffffffffffffffff1673ffffffffffffffffffffffffffffffffffffffff1681526020016002820160009054906101000a900473ffffffffffffffffffffffffffffffffffffffff1673ffffffffffffffffffffffffffffffffffffffff1673ffffffffffffffffffffffffffffffffffffffff16815260200160038201548152602001600482015481526020016005820160009054906101000a900460ff166006811115611ef857611ef7614238565b5b6006811115611f0a57611f09614238565b5b8152602001600682015481526020016007820160009054906101000a900473ffffffffffffffffffffffffffffffffffffffff1673ffffffffffffffffffffffffffffffffffffffff1673ffffffffffffffffffffffffffffffffffffffff16815260200160088201548152602001600982015481525050838581518110611f9557611f94614565565b5b60200260200101819052508380611fab90614c4a565b945050505b8080611fbb90614c93565b915050611b48565b5060008267ffffffffffffffff811115611fe057611fdf613bf8565b5b60405190808252806020026020018201604052801561201957816020015b612006613a46565b815260200190600190039081611ffe5790505b50905060005b838110156120735782818151811061203a57612039614565565b5b602002602001015182828151811061205557612054614565565b5b6020026020010181905250808061206b90614c4a565b91505061201f565b508093505050505b9998505050505050505050565b6120906132ad565b73ffffffffffffffffffffffffffffffffffffffff1660008054906101000a900473ffffffffffffffffffffffffffffffffffffffff1673ffffffffffffffffffffffffffffffffffffffff161461211d576040517f08c379a000000000000000000000000000000000000000000000000000000000815260040161211490614724565b60405180910390fd5b8060098190555050565b60008060009054906101000a900473ffffffffffffffffffffffffffffffffffffffff16905090565b600460009054906101000a900473ffffffffffffffffffffffffffffffffffffffff1673ffffffffffffffffffffffffffffffffffffffff163373ffffffffffffffffffffffffffffffffffffffff16146121e0576040517f08c379a00000000000000000000000000000000000000000000000000000000081526004016121d790614d28565b60405180910390fd5b80600460006101000a81548173ffffffffffffffffffffffffffffffffffffffff021916908373ffffffffffffffffffffffffffffffffffffffff16021790555050565b600560009054906101000a900473ffffffffffffffffffffffffffffffffffffffff1681565b6122526132ad565b73ffffffffffffffffffffffffffffffffffffffff1660008054906101000a900473ffffffffffffffffffffffffffffffffffffffff1673ffffffffffffffffffffffffffffffffffffffff16146122df576040517f08c379a00000000000000000000000000000000000000000000000000000000081526004016122d690614724565b60405180910390fd5b8060078190555050565b6122f16132ad565b73ffffffffffffffffffffffffffffffffffffffff1660008054906101000a900473ffffffffffffffffffffffffffffffffffffffff1673ffffffffffffffffffffffffffffffffffffffff161461237e576040517f08c379a000000000000000000000000000000000000000000000000000000000815260040161237590614724565b60405180910390fd5b8060088190555050565b6001818154811061239857600080fd5b90600052602060002090600a02016000915090508060000154908060010160009054906101000a900473ffffffffffffffffffffffffffffffffffffffff16908060020160009054906101000a900473ffffffffffffffffffffffffffffffffffffffff16908060030154908060040154908060050160009054906101000a900460ff16908060060154908060070160009054906101000a900473ffffffffffffffffffffffffffffffffffffffff1690806008015490806009015490508a565b8060018054905081106124a1576040517f08c379a000000000000000000000000000000000000000000000000000000000815260040161249890614545565b60405180910390fd5b81600181815481106124b6576124b5614565565b5b90600052602060002090600a020160020160009054906101000a900473ffffffffffffffffffffffffffffffffffffffff1673ffffffffffffffffffffffffffffffffffffffff163373ffffffffffffffffffffffffffffffffffffffff1614612555576040517f08c379a000000000000000000000000000000000000000000000000000000000815260040161254c906147f1565b60405180910390fd5b82600180600681111561256b5761256a614238565b5b6001838154811061257f5761257e614565565b5b90600052602060002090600a020160050160009054906101000a900460ff1660068111156125b0576125af614238565b5b146125f0576040517f08c379a00000000000000000000000000000000000000000000000000000000081526004016125e79061464c565b60405180910390fd5b60006001868154811061260657612605614565565b5b90600052602060002090600a0201905060028160050160006101000a81548160ff0219169083600681111561263e5761263d614238565b5b0217905550600061264e87613073565b9050600061265b886136b5565b9050600061266889613712565b9050600061267f82846132b590919063ffffffff16565b905060006126ac8361269e8789600901546132b590919063ffffffff16565b61312d90919063ffffffff16565b90506127018660070160009054906101000a900473ffffffffffffffffffffffffffffffffffffffff168760010160009054906101000a900473ffffffffffffffffffffffffffffffffffffffff1683613177565b600073ffffffffffffffffffffffffffffffffffffffff16600360009054906101000a900473ffffffffffffffffffffffffffffffffffffffff1673ffffffffffffffffffffffffffffffffffffffff16146127a9576127a88660070160009054906101000a900473ffffffffffffffffffffffffffffffffffffffff16600360009054906101000a900473ffffffffffffffffffffffffffffffffffffffff1684613177565b5b3373ffffffffffffffffffffffffffffffffffffffff168b7f8c2e6d9f2c8d46890dd98cc58f96c0559f4e3dbd81777312fefca01fcf46ba9c60405160405180910390a35050505050505050505050565b600560009054906101000a900473ffffffffffffffffffffffffffffffffffffffff1673ffffffffffffffffffffffffffffffffffffffff1663b2dd5c07336040518263ffffffff1660e01b81526004016128559190613b4b565b602060405180830381865afa158015612872573d6000803e3d6000fd5b505050506040513d601f19601f82011682018060405250810190612896919061494a565b6128d5576040517f08c379a00000000000000000000000000000000000000000000000000000000081526004016128cc906149c3565b60405180910390fd5b80600180549050811061291d576040517f08c379a000000000000000000000000000000000000000000000000000000000815260040161291490614545565b60405180910390fd5b81600080600681111561293357612932614238565b5b6001838154811061294757612946614565565b5b90600052602060002090600a020160050160009054906101000a900460ff16600681111561297857612977614238565b5b146129b8576040517f08c379a00000000000000000000000000000000000000000000000000000000081526004016129af9061464c565b60405180910390fd5b83600181815481106129cd576129cc614565565b5b90600052602060002090600a0201600401544210612a20576040517f08c379a0000000000000000000000000000000000000000000000000000000008152600401612a17906146b8565b60405180910390fd5b600060018681548110612a3657612a35614565565b5b90600052602060002090600a02019050338160020160006101000a81548173ffffffffffffffffffffffffffffffffffffffff021916908373ffffffffffffffffffffffffffffffffffffffff16021790555060018160050160006101000a81548160ff02191690836006811115612ab157612ab0614238565b5b02179055506000612ac1876136b5565b90506000612adc8284600901546132b590919063ffffffff16565b9050612b0e8360070160009054906101000a900473ffffffffffffffffffffffffffffffffffffffff1633308461357c565b3373ffffffffffffffffffffffffffffffffffffffff16887f9ead0d6f534d407e40234c6368c1c7a989d6b3fb557a5efd52f9ded5b505e78e60405160405180910390a35050505050505050565b612b646132ad565b73ffffffffffffffffffffffffffffffffffffffff1660008054906101000a900473ffffffffffffffffffffffffffffffffffffffff1673ffffffffffffffffffffffffffffffffffffffff1614612bf1576040517f08c379a0000000000000000000000000000000000000000000000000000000008152600401612be890614724565b60405180910390fd5b80600560006101000a81548173ffffffffffffffffffffffffffffffffffffffff021916908373ffffffffffffffffffffffffffffffffffffffff16021790555050565b806001805490508110612c7d576040517f08c379a0000000000000000000000000000000000000000000000000000000008152600401612c7490614545565b60405180910390fd5b8160018181548110612c9257612c91614565565b5b90600052602060002090600a020160010160009054906101000a900473ffffffffffffffffffffffffffffffffffffffff1673ffffffffffffffffffffffffffffffffffffffff163373ffffffffffffffffffffffffffffffffffffffff1614612d31576040517f08c379a0000000000000000000000000000000000000000000000000000000008152600401612d28906145e0565b60405180910390fd5b826001806006811115612d4757612d46614238565b5b60018381548110612d5b57612d5a614565565b5b90600052602060002090600a020160050160009054906101000a900460ff166006811115612d8c57612d8b614238565b5b14612dcc576040517f08c379a0000000000000000000000000000000000000000000000000000000008152600401612dc39061464c565b60405180910390fd5b8442612e0860065460018481548110612de857612de7614565565b5b90600052602060002090600a0201600301546132b590919063ffffffff16565b1115612e49576040517f08c379a0000000000000000000000000000000000000000000000000000000008152600401612e4090614883565b60405180910390fd5b600060018781548110612e5f57612e5e614565565b5b90600052602060002090600a0201905060058160050160006101000a81548160ff02191690836006811115612e9757612e96614238565b5b0217905550612ea587613313565b3373ffffffffffffffffffffffffffffffffffffffff16877f419d68f7b2c9a95a72485fa94feb86c741736a2c3b0a01c27d3dbe3e371b456860405160405180910390a350505050505050565b60065481565b612f006132ad565b73ffffffffffffffffffffffffffffffffffffffff1660008054906101000a900473ffffffffffffffffffffffffffffffffffffffff1673ffffffffffffffffffffffffffffffffffffffff1614612f8d576040517f08c379a0000000000000000000000000000000000000000000000000000000008152600401612f8490614724565b60405180910390fd5b612f968161376f565b50565b600460009054906101000a900473ffffffffffffffffffffffffffffffffffffffff1673ffffffffffffffffffffffffffffffffffffffff163373ffffffffffffffffffffffffffffffffffffffff1614613029576040517f08c379a000000000000000000000000000000000000000000000000000000000815260040161302090614d28565b60405180910390fd5b80600360006101000a81548173ffffffffffffffffffffffffffffffffffffffff021916908373ffffffffffffffffffffffffffffffffffffffff16021790555050565b60075481565b6000806001838154811061308a57613089614565565b5b90600052602060002090600a020190506130c8620186a06130ba60075484600901546134b790919063ffffffff16565b61353290919063ffffffff16565b915050919050565b600080600183815481106130e7576130e6614565565b5b90600052602060002090600a02019050613125620186a061311760085484600901546134b790919063ffffffff16565b61353290919063ffffffff16565b915050919050565b600061316f83836040518060400160405280601e81526020017f536166654d6174683a207375627472616374696f6e206f766572666c6f77000081525061389c565b905092915050565b6000808473ffffffffffffffffffffffffffffffffffffffff1663a9059cbb85856040516024016131a9929190614d48565b6040516020818303038152906040529060e01b6020820180517bffffffffffffffffffffffffffffffffffffffffffffffffffffffff83818316178352505050506040516131f79190614db8565b6000604051808303816000865af19150503d8060008114613234576040519150601f19603f3d011682016040523d82523d6000602084013e613239565b606091505b50915091508180156132675750600081511480613266575080806020019051810190613265919061494a565b5b5b6132a6576040517f08c379a000000000000000000000000000000000000000000000000000000000815260040161329d90614e1b565b60405180910390fd5b5050505050565b600033905090565b60008082846132c49190614b56565b905083811015613309576040517f08c379a000000000000000000000000000000000000000000000000000000000815260040161330090614e87565b60405180910390fd5b8091505092915050565b60006001828154811061332957613328614565565b5b90600052602060002090600a02019050600061334483613073565b90506000613351846136b5565b9050600061335e85613900565b90506000613375828561312d90919063ffffffff16565b905060006133a2836133948860090154876132b590919063ffffffff16565b61312d90919063ffffffff16565b90506134088660070160009054906101000a900473ffffffffffffffffffffffffffffffffffffffff16600360009054906101000a900473ffffffffffffffffffffffffffffffffffffffff166134036002876134b790919063ffffffff16565b613177565b61345b8660070160009054906101000a900473ffffffffffffffffffffffffffffffffffffffff168760010160009054906101000a900473ffffffffffffffffffffffffffffffffffffffff1684613177565b6134ae8660070160009054906101000a900473ffffffffffffffffffffffffffffffffffffffff168760020160009054906101000a900473ffffffffffffffffffffffffffffffffffffffff1683613177565b50505050505050565b6000808314156134ca576000905061352c565b600082846134d89190614ea7565b90508284826134e79190614f30565b14613527576040517f08c379a000000000000000000000000000000000000000000000000000000000815260040161351e90614fd3565b60405180910390fd5b809150505b92915050565b600061357483836040518060400160405280601a81526020017f536166654d6174683a206469766973696f6e206279207a65726f00000000000081525061395d565b905092915050565b6000808573ffffffffffffffffffffffffffffffffffffffff166323b872dd8686866040516024016135b093929190614ff3565b6040516020818303038152906040529060e01b6020820180517bffffffffffffffffffffffffffffffffffffffffffffffffffffffff83818316178352505050506040516135fe9190614db8565b6000604051808303816000865af19150503d806000811461363b576040519150601f19603f3d011682016040523d82523d6000602084013e613640565b606091505b509150915081801561366e575060008151148061366d57508080602001905181019061366c919061494a565b5b5b6136ad576040517f08c379a00000000000000000000000000000000000000000000000000000000081526004016136a49061509c565b60405180910390fd5b505050505050565b600080600183815481106136cc576136cb614565565b5b90600052602060002090600a0201905061370a620186a06136fc600a5484600901546134b790919063ffffffff16565b61353290919063ffffffff16565b915050919050565b6000806001838154811061372957613728614565565b5b90600052602060002090600a02019050613767620186a061375960095484600901546134b790919063ffffffff16565b61353290919063ffffffff16565b915050919050565b600073ffffffffffffffffffffffffffffffffffffffff168173ffffffffffffffffffffffffffffffffffffffff1614156137df576040517f08c379a00000000000000000000000000000000000000000000000000000000081526004016137d69061512e565b60405180910390fd5b8073ffffffffffffffffffffffffffffffffffffffff1660008054906101000a900473ffffffffffffffffffffffffffffffffffffffff1673ffffffffffffffffffffffffffffffffffffffff167f8be0079c531659141344cd1fd0a4f28419497f9722a3daafe3b4186f6b6457e060405160405180910390a3806000806101000a81548173ffffffffffffffffffffffffffffffffffffffff021916908373ffffffffffffffffffffffffffffffffffffffff16021790555050565b60008383111582906138e4576040517f08c379a00000000000000000000000000000000000000000000000000000000081526004016138db919061514e565b60405180910390fd5b50600083856138f39190615170565b9050809150509392505050565b6000806001838154811061391757613916614565565b5b90600052602060002090600a02019050613955620186a0613947600b5484600901546134b790919063ffffffff16565b61353290919063ffffffff16565b915050919050565b600080831182906139a4576040517f08c379a000000000000000000000000000000000000000000000000000000000815260040161399b919061514e565b60405180910390fd5b50600083856139b39190614f30565b9050809150509392505050565b8280546139cc90614773565b90600052602060002090601f0160209004810192826139ee5760008555613a35565b82601f10613a0757805160ff1916838001178555613a35565b82800160010185558215613a35579182015b82811115613a34578251825591602001919060010190613a19565b5b509050613a429190613aed565b5090565b60405180610140016040528060008152602001600073ffffffffffffffffffffffffffffffffffffffff168152602001600073ffffffffffffffffffffffffffffffffffffffff168152602001600081526020016000815260200160006006811115613ab557613ab4614238565b5b815260200160008152602001600073ffffffffffffffffffffffffffffffffffffffff16815260200160008152602001600081525090565b5b80821115613b06576000816000905550600101613aee565b5090565b600073ffffffffffffffffffffffffffffffffffffffff82169050919050565b6000613b3582613b0a565b9050919050565b613b4581613b2a565b82525050565b6000602082019050613b606000830184613b3c565b92915050565b6000604051905090565b600080fd5b600080fd5b6000819050919050565b613b8d81613b7a565b8114613b9857600080fd5b50565b600081359050613baa81613b84565b92915050565b600060208284031215613bc657613bc5613b70565b5b6000613bd484828501613b9b565b91505092915050565b600080fd5b600080fd5b6000601f19601f8301169050919050565b7f4e487b7100000000000000000000000000000000000000000000000000000000600052604160045260246000fd5b613c3082613be7565b810181811067ffffffffffffffff82111715613c4f57613c4e613bf8565b5b80604052505050565b6000613c62613b66565b9050613c6e8282613c27565b919050565b600067ffffffffffffffff821115613c8e57613c8d613bf8565b5b613c9782613be7565b9050602081019050919050565b82818337600083830152505050565b6000613cc6613cc184613c73565b613c58565b905082815260208101848484011115613ce257613ce1613be2565b5b613ced848285613ca4565b509392505050565b600082601f830112613d0a57613d09613bdd565b5b8135613d1a848260208601613cb3565b91505092915050565b600060208284031215613d3957613d38613b70565b5b600082013567ffffffffffffffff811115613d5757613d56613b75565b5b613d6384828501613cf5565b91505092915050565b600081519050919050565b600082825260208201905092915050565b60005b83811015613da6578082015181840152602081019050613d8b565b83811115613db5576000848401525b50505050565b6000613dc682613d6c565b613dd08185613d77565b9350613de0818560208601613d88565b613de981613be7565b840191505092915050565b60008115159050919050565b613e0981613df4565b82525050565b60006040820190508181036000830152613e298185613dbb565b9050613e386020830184613e00565b9392505050565b613e4881613b7a565b82525050565b6000602082019050613e636000830184613e3f565b92915050565b613e7281613b2a565b8114613e7d57600080fd5b50565b600081359050613e8f81613e69565b92915050565b600080600080600060a08688031215613eb157613eb0613b70565b5b6000613ebf88828901613b9b565b9550506020613ed088828901613b9b565b9450506040613ee188828901613e80565b9350506060613ef288828901613b9b565b9250506080613f0388828901613b9b565b9150509295509295909350565b600067ffffffffffffffff821115613f2b57613f2a613bf8565b5b602082029050602081019050919050565b600080fd5b60078110613f4e57600080fd5b50565b600081359050613f6081613f41565b92915050565b6000613f79613f7484613f10565b613c58565b90508083825260208201905060208402830185811115613f9c57613f9b613f3c565b5b835b81811015613fc55780613fb18882613f51565b845260208401935050602081019050613f9e565b5050509392505050565b600082601f830112613fe457613fe3613bdd565b5b8135613ff4848260208601613f66565b91505092915050565b600067ffffffffffffffff82111561401857614017613bf8565b5b602082029050602081019050919050565b600061403c61403784613ffd565b613c58565b9050808382526020820190506020840283018581111561405f5761405e613f3c565b5b835b8181101561408857806140748882613b9b565b845260208401935050602081019050614061565b5050509392505050565b600082601f8301126140a7576140a6613bdd565b5b81356140b7848260208601614029565b91505092915050565b6140c981613df4565b81146140d457600080fd5b50565b6000813590506140e6816140c0565b92915050565b60008060008060008060008060006101208a8c03121561410f5761410e613b70565b5b600061411d8c828d01613b9b565b995050602061412e8c828d01613b9b565b985050604061413f8c828d01613e80565b97505060606141508c828d01613e80565b96505060808a013567ffffffffffffffff81111561417157614170613b75565b5b61417d8c828d01613fcf565b95505060a08a013567ffffffffffffffff81111561419e5761419d613b75565b5b6141aa8c828d01614092565b94505060c06141bb8c828d01613b9b565b93505060e06141cc8c828d01613b9b565b9250506101006141de8c828d016140d7565b9150509295985092959850929598565b600081519050919050565b600082825260208201905092915050565b6000819050602082019050919050565b61422381613b7a565b82525050565b61423281613b2a565b82525050565b7f4e487b7100000000000000000000000000000000000000000000000000000000600052602160045260246000fd5b6007811061427857614277614238565b5b50565b600081905061428982614267565b919050565b60006142998261427b565b9050919050565b6142a98161428e565b82525050565b610140820160008201516142c6600085018261421a565b5060208201516142d96020850182614229565b5060408201516142ec6040850182614229565b5060608201516142ff606085018261421a565b506080820151614312608085018261421a565b5060a082015161432560a08501826142a0565b5060c082015161433860c085018261421a565b5060e082015161434b60e0850182614229565b5061010082015161436061010085018261421a565b5061012082015161437561012085018261421a565b50505050565b600061438783836142af565b6101408301905092915050565b6000602082019050919050565b60006143ac826141ee565b6143b681856141f9565b93506143c18361420a565b8060005b838110156143f25781516143d9888261437b565b97506143e483614394565b9250506001810190506143c5565b5085935050505092915050565b6000602082019050818103600083015261441981846143a1565b905092915050565b60006020828403121561443757614436613b70565b5b600061444584828501613e80565b91505092915050565b6144578161428e565b82525050565b600061014082019050614473600083018d613e3f565b614480602083018c613b3c565b61448d604083018b613b3c565b61449a606083018a613e3f565b6144a76080830189613e3f565b6144b460a083018861444e565b6144c160c0830187613e3f565b6144ce60e0830186613b3c565b6144dc610100830185613e3f565b6144ea610120830184613e3f565b9b9a5050505050505050505050565b7f42415a4141523a20494e56414c49445f4f524445520000000000000000000000600082015250565b600061452f601583613d77565b915061453a826144f9565b602082019050919050565b6000602082019050818103600083015261455e81614522565b9050919050565b7f4e487b7100000000000000000000000000000000000000000000000000000000600052603260045260246000fd5b7f42415a4141523a204f4e4c595f53454c4c455200000000000000000000000000600082015250565b60006145ca601383613d77565b91506145d582614594565b602082019050919050565b600060208201905081810360008301526145f9816145bd565b9050919050565b7f42415a4141523a20494e56414c49445f4f524445525f53544154450000000000600082015250565b6000614636601b83613d77565b915061464182614600565b602082019050919050565b6000602082019050818103600083015261466581614629565b9050919050565b7f42415a4141523a204f524445525f444541444c494e455f455843454544454400600082015250565b60006146a2601f83613d77565b91506146ad8261466c565b602082019050919050565b600060208201905081810360008301526146d181614695565b9050919050565b7f4f776e61626c653a2063616c6c6572206973206e6f7420746865206f776e6572600082015250565b600061470e602083613d77565b9150614719826146d8565b602082019050919050565b6000602082019050818103600083015261473d81614701565b9050919050565b7f4e487b7100000000000000000000000000000000000000000000000000000000600052602260045260246000fd5b6000600282049050600182168061478b57607f821691505b6020821081141561479f5761479e614744565b5b50919050565b7f42415a4141523a204f4e4c595f42555945520000000000000000000000000000600082015250565b60006147db601283613d77565b91506147e6826147a5565b602082019050919050565b6000602082019050818103600083015261480a816147ce565b9050919050565b7f42415a4141523a204f524445525f4d41585f44454c49564552595f4e4f545f4560008201527f5843454544454400000000000000000000000000000000000000000000000000602082015250565b600061486d602783613d77565b915061487882614811565b604082019050919050565b6000602082019050818103600083015261489c81614860565b9050919050565b7f42415a4141523a204f524445525f444541444c494e455f4e4f545f455843454560008201527f4445440000000000000000000000000000000000000000000000000000000000602082015250565b60006148ff602383613d77565b915061490a826148a3565b604082019050919050565b6000602082019050818103600083015261492e816148f2565b9050919050565b600081519050614944816140c0565b92915050565b6000602082840312156149605761495f613b70565b5b600061496e84828501614935565b91505092915050565b7f42415a4141523a204e4f545f5245474953544552454400000000000000000000600082015250565b60006149ad601683613d77565b91506149b882614977565b602082019050919050565b600060208201905081810360008301526149dc816149a0565b9050919050565b7f42415a4141523a20494e56414c49445f534f555243455f415353455400000000600082015250565b6000614a19601c83613d77565b9150614a24826149e3565b602082019050919050565b60006020820190508181036000830152614a4881614a0c565b9050919050565b7f42415a4141523a20494e56414c49445f534f555243455f414d4f554e54000000600082015250565b6000614a85601d83613d77565b9150614a9082614a4f565b602082019050919050565b60006020820190508181036000830152614ab481614a78565b9050919050565b7f42415a4141523a20494e56414c49445f5441524745545f414d4f554e54000000600082015250565b6000614af1601d83613d77565b9150614afc82614abb565b602082019050919050565b60006020820190508181036000830152614b2081614ae4565b9050919050565b7f4e487b7100000000000000000000000000000000000000000000000000000000600052601160045260246000fd5b6000614b6182613b7a565b9150614b6c83613b7a565b9250827fffffffffffffffffffffffffffffffffffffffffffffffffffffffffffffffff03821115614ba157614ba0614b27565b5b828201905092915050565b6000819050919050565b6000614bc182614bac565b9150614bcc83614bac565b9250827f800000000000000000000000000000000000000000000000000000000000000001821260008412151615614c0757614c06614b27565b5b827f7fffffffffffffffffffffffffffffffffffffffffffffffffffffffffffffff018213600084121615614c3f57614c3e614b27565b5b828203905092915050565b6000614c5582613b7a565b91507fffffffffffffffffffffffffffffffffffffffffffffffffffffffffffffffff821415614c8857614c87614b27565b5b600182019050919050565b6000614c9e82614bac565b91507f8000000000000000000000000000000000000000000000000000000000000000821415614cd157614cd0614b27565b5b600182039050919050565b7f42415a4141523a20464f5242494444454e000000000000000000000000000000600082015250565b6000614d12601183613d77565b9150614d1d82614cdc565b602082019050919050565b60006020820190508181036000830152614d4181614d05565b9050919050565b6000604082019050614d5d6000830185613b3c565b614d6a6020830184613e3f565b9392505050565b600081519050919050565b600081905092915050565b6000614d9282614d71565b614d9c8185614d7c565b9350614dac818560208601613d88565b80840191505092915050565b6000614dc48284614d87565b915081905092915050565b7f5472616e7366657248656c7065723a205452414e534645525f4641494c454400600082015250565b6000614e05601f83613d77565b9150614e1082614dcf565b602082019050919050565b60006020820190508181036000830152614e3481614df8565b9050919050565b7f536166654d6174683a206164646974696f6e206f766572666c6f770000000000600082015250565b6000614e71601b83613d77565b9150614e7c82614e3b565b602082019050919050565b60006020820190508181036000830152614ea081614e64565b9050919050565b6000614eb282613b7a565b9150614ebd83613b7a565b9250817fffffffffffffffffffffffffffffffffffffffffffffffffffffffffffffffff0483118215151615614ef657614ef5614b27565b5b828202905092915050565b7f4e487b7100000000000000000000000000000000000000000000000000000000600052601260045260246000fd5b6000614f3b82613b7a565b9150614f4683613b7a565b925082614f5657614f55614f01565b5b828204905092915050565b7f536166654d6174683a206d756c7469706c69636174696f6e206f766572666c6f60008201527f7700000000000000000000000000000000000000000000000000000000000000602082015250565b6000614fbd602183613d77565b9150614fc882614f61565b604082019050919050565b60006020820190508181036000830152614fec81614fb0565b9050919050565b60006060820190506150086000830186613b3c565b6150156020830185613b3c565b6150226040830184613e3f565b949350505050565b7f5472616e7366657248656c7065723a205452414e534645525f46524f4d5f464160008201527f494c454400000000000000000000000000000000000000000000000000000000602082015250565b6000615086602483613d77565b91506150918261502a565b604082019050919050565b600060208201905081810360008301526150b581615079565b9050919050565b7f4f776e61626c653a206e6577206f776e657220697320746865207a65726f206160008201527f6464726573730000000000000000000000000000000000000000000000000000602082015250565b6000615118602683613d77565b9150615123826150bc565b604082019050919050565b600060208201905081810360008301526151478161510b565b9050919050565b600060208201905081810360008301526151688184613dbb565b905092915050565b600061517b82613b7a565b915061518683613b7a565b92508282101561519957615198614b27565b5b82820390509291505056fea264697066735822122046b9c672726fd9575f77774417a32b007307526226ef214e8a57e999c200748f64736f6c634300080b0033",
  "immutableReferences": {},
  "source": "// SPDX-License-Identifier: MIT\npragma solidity ^0.8.11;\n\nimport \"./libraries/Ownable.sol\";\nimport \"./interfaces/IERC20.sol\";\nimport \"./interfaces/IProfile.sol\";\nimport \"./libraries/SafeMath.sol\";\nimport \"./libraries/TransferHelper.sol\";\n\ncontract Bazaar is Ownable {\n    using SafeMath for uint256;\n\n    event OrderPlaced(uint256 indexed orderIdx, address indexed seller);\n    event OrderClosed(uint256 indexed orderIdx, address indexed seller);\n    event OrderCancelledBuySeller(uint256 indexed orderIdx, address indexed seller);\n    event OrderCancelledBuyBuyer(uint256 indexed orderIdx, address indexed buyer);\n    event OrderWithdrew(uint256 indexed orderIdx, address indexed seller);\n    event OrderSold(uint256 indexed orderIdx, address indexed buyer);\n    event DeliveryApproved(uint256 indexed orderIdx, address indexed buyer);\n\n    enum OrderState {\n        Placed,\n        Sold,\n        Finished,\n        Closed,\n        Withdrew,\n        CancelledBySeller,\n        CancelledByBuyer\n    }\n\n    struct SourceAsset {\n        string symbol;\n        bool deleted;\n    }\n\n    struct Order {\n        uint256 id;\n        address seller;\n        address buyer;\n        uint256 createdAt;\n        uint256 deadline; // timestamp of order deadline\n        OrderState state;\n        uint256 sourceAsset; // index of source asset\n        address targetAsset;\n        uint256 sourceAmount;\n        uint256 targetAmount;\n    }\n\n    Order[] public orders;\n    SourceAsset[] public allowedSourceAssets;\n\n    address public feeTo;\n    address public feeToSetter;\n    address public profileContract;\n\n    uint256 public maxDeliveryTime; // maximum delivery time in seconds\n    uint256 public guaranteePercent; // seller guarantee amount by fraction of 1000\n    uint256 public closeFee; // close fee by fraction of 1000\n    uint256 public sellFee; // sell fee by fraction of 1000\n    uint256 public buyFee; // buy fee by fraction of 1000\n    uint256 public cancellationFee; // cancellation fee by fraction of 1000\n\n    modifier onlyProfileHolders() {\n        require(\n            IProfile(profileContract).registered(msg.sender),\n            \"BAZAAR: NOT_REGISTERED\"\n        );\n        _;\n    }\n\n    modifier onlySeller(uint256 _orderIdx) {\n        require(msg.sender == orders[_orderIdx].seller, \"BAZAAR: ONLY_SELLER\");\n        _;\n    }\n\n    modifier onlyBuyer(uint256 _orderIdx) {\n        require(msg.sender == orders[_orderIdx].buyer, \"BAZAAR: ONLY_BUYER\");\n        _;\n    }\n\n    modifier validSourceAsset(uint256 _idx) {\n        require(\n            (_idx < allowedSourceAssets.length) &&\n                !allowedSourceAssets[_idx].deleted,\n            \"BAZAAR: INVALID_SOURCE_ASSET\"\n        );\n        _;\n    }\n\n    modifier validOrder(uint256 _idx) {\n        require(_idx < orders.length, \"BAZAAR: INVALID_ORDER\");\n        _;\n    }\n\n    modifier inState(uint256 _orderIdx, OrderState state) {\n        require(\n            orders[_orderIdx].state == state,\n            \"BAZAAR: INVALID_ORDER_STATE\"\n        );\n        _;\n    }\n\n    modifier notExpired(uint256 _orderIdx) {\n        require(\n            block.timestamp < orders[_orderIdx].deadline,\n            \"BAZAAR: ORDER_DEADLINE_EXCEEDED\"\n        );\n        _;\n    }\n\n    modifier expired(uint256 _orderIdx) {\n        require(\n            block.timestamp >= orders[_orderIdx].deadline,\n            \"BAZAAR: ORDER_DEADLINE_NOT_EXCEEDED\"\n        );\n        _;\n    }\n\n    modifier cancellable(uint256 _orderIdx) {\n        require(\n            (orders[_orderIdx].createdAt.add(maxDeliveryTime)) <=\n                block.timestamp,\n            \"BAZAAR: ORDER_MAX_DELIVERY_NOT_EXCEEDED\"\n        );\n        _;\n    }\n\n    constructor(address _profileContract) {\n        profileContract = _profileContract;\n        allowedSourceAssets.push(SourceAsset('GOLD_OUNCE', false));\n        allowedSourceAssets.push(SourceAsset('SILVER_OUNCE', false));\n        allowedSourceAssets.push(SourceAsset('CARAT_GOLD_18', false));\n        allowedSourceAssets.push(SourceAsset('CARAT_GOLD_24', false));\n        allowedSourceAssets.push(SourceAsset('GOLD_MESGHAL', false));\n        allowedSourceAssets.push(SourceAsset('GOLD_MELTED_CASH', false));\n        allowedSourceAssets.push(SourceAsset('MELTED_BANKING_GOLD', false));\n        allowedSourceAssets.push(SourceAsset('MELTED_GOLD', false));\n        allowedSourceAssets.push(SourceAsset('GOLD_COIN_CASH', false));\n        allowedSourceAssets.push(SourceAsset('GOLD_COIN', false));\n        allowedSourceAssets.push(SourceAsset('USD', false));\n        allowedSourceAssets.push(SourceAsset('MANAT', false));\n        allowedSourceAssets.push(SourceAsset('DIRHAM', false));\n        allowedSourceAssets.push(SourceAsset('DINAR_IRAQI', false));\n\n        guaranteePercent = 10_000; // 10% of sale price\n        closeFee = 100; // 0.1% of sale price\n        sellFee = 250; // 0.25% of sale price\n        buyFee = 250; // 0.25% of sale price\n        cancellationFee = 100; // 0.1% of sale price\n        feeToSetter = msg.sender;\n        feeTo = msg.sender;\n        maxDeliveryTime = 8 hours;\n    }\n\n    /**\n     * @dev calculate guarantee amount\n     */\n    function calcGuarantee(uint256 _orderIdx) internal view returns (uint256) {\n        Order storage order = orders[_orderIdx];\n\n        return order.targetAmount.mul(guaranteePercent).div(100_000);\n    }\n\n    /**\n     * @dev calculate sell fee\n     */\n    function calcSellFee(uint256 _orderIdx) internal view returns (uint256) {\n        Order storage order = orders[_orderIdx];\n\n        return order.targetAmount.mul(sellFee).div(100_000);\n    }\n\n    /**\n     * @dev calculate buy fee\n     */\n    function calcBuyFee(uint256 _orderIdx) internal view returns (uint256) {\n        Order storage order = orders[_orderIdx];\n\n        return order.targetAmount.mul(buyFee).div(100_000);\n    }\n\n    /**\n     * @dev calculate close fee\n     */\n    function calcCloseFee(uint256 _orderIdx) internal view returns (uint256) {\n        Order storage order = orders[_orderIdx];\n\n        return order.targetAmount.mul(closeFee).div(100_000);\n    }\n\n    /**\n     * @dev calculate cancellation fee\n     */\n    function calcCancellationFee(uint256 _orderIdx)\n        internal\n        view\n        returns (uint256)\n    {\n        Order storage order = orders[_orderIdx];\n\n        return order.targetAmount.mul(cancellationFee).div(100_000);\n    }\n\n    /**\n     * @dev set fee to account\n     */\n    function setFeeTo(address _feeTo) external {\n        require(msg.sender == feeToSetter, \"BAZAAR: FORBIDDEN\");\n        feeTo = _feeTo;\n    }\n\n    /**\n     * @dev set fee to setter account\n     */\n    function setFeeToSetter(address _feeToSetter) external {\n        require(msg.sender == feeToSetter, \"BAZAAR: FORBIDDEN\");\n        feeToSetter = _feeToSetter;\n    }\n\n    /**\n     * @dev set guarantee percent\n     */\n    function setGuaranteePercent(uint256 _value) public onlyOwner {\n        guaranteePercent = _value;\n    }\n\n    /**\n     * @dev set close fee\n     */\n    function setCloseFee(uint256 _value) public onlyOwner {\n        closeFee = _value;\n    }\n\n    /**\n     * @dev set sell fee\n     */\n    function setSellFee(uint256 _value) public onlyOwner {\n        sellFee = _value;\n    }\n\n    /**\n     * @dev set buy fee\n     */\n    function setBuyFee(uint256 _value) public onlyOwner {\n        buyFee = _value;\n    }\n\n    /**\n     * @dev set cancellation fee\n     */\n    function setCancellationFee(uint256 _value) public onlyOwner {\n        cancellationFee = _value;\n    }\n\n    /**\n     * @dev change profile contract address\n     */\n    function setProfile(address addr) public onlyOwner {\n        profileContract = addr;\n    }\n\n    /**\n     * @dev add new allowed source asset\n     */\n    function addAllowedSourceAsset(string memory _symbol) public onlyOwner {\n        allowedSourceAssets.push(SourceAsset(_symbol, false));\n    }\n\n    /**\n     * @dev disable allowed source asset\n     */\n    function disableAllowedSourceAsset(uint256 _idx) public onlyOwner {\n        allowedSourceAssets[_idx].deleted = true;\n    }\n\n    /**\n     * @dev enable allowed source asset\n     */\n    function enableAllowedSourceAsset(uint256 _idx) public onlyOwner {\n        allowedSourceAssets[_idx].deleted = false;\n    }\n\n    /**\n     * @dev create a new order\n     */\n    function placeOrder(\n        uint256 sourceAsset,\n        uint256 sourceAmount,\n        address targetAsset,\n        uint256 targetAmount,\n        uint256 timeout\n    )\n        public\n        onlyProfileHolders\n        validSourceAsset(sourceAsset)\n        returns (uint256)\n    {\n        require(sourceAmount > 0, \"BAZAAR: INVALID_SOURCE_AMOUNT\");\n        require(targetAmount > 0, \"BAZAAR: INVALID_TARGET_AMOUNT\");\n\n        Order memory order;\n        order.id = orders.length;\n        order.seller = msg.sender;\n        order.deadline = block.timestamp + timeout;\n        order.createdAt = block.timestamp;\n        order.sourceAsset = sourceAsset;\n        order.sourceAmount = sourceAmount;\n        order.targetAsset = targetAsset;\n        order.targetAmount = targetAmount;\n        order.state = OrderState.Placed;\n\n        orders.push(order);\n\n        // ((targetAmount * guaranteePercent) / 1000) / 100\n        uint256 _guaranteeAmount = targetAmount.mul(guaranteePercent).div(\n            100_000\n        );\n\n        TransferHelper.safeTransferFrom(\n            order.targetAsset,\n            msg.sender,\n            address(this),\n            _guaranteeAmount\n        );\n\n        emit OrderPlaced(order.id, order.seller);\n\n        return order.id;\n    }\n\n    /**\n     * @dev seller closes an order before its get expired\n     */\n    function close(uint256 _orderIdx)\n        public\n        validOrder(_orderIdx)\n        onlySeller(_orderIdx)\n        inState(_orderIdx, OrderState.Placed)\n        notExpired(_orderIdx)\n    {\n        Order storage order = orders[_orderIdx];\n\n        order.state = OrderState.Closed;\n\n        uint256 _guaranteeAmount = calcGuarantee(_orderIdx);\n        uint256 _closeFee = calcCloseFee(_orderIdx);\n\n        uint256 _toReturn = _guaranteeAmount.sub(_closeFee);\n\n        // transfer close fee\n        TransferHelper.safeTransfer(order.targetAsset, feeTo, _closeFee);\n\n        // return rest of guarantee deposit\n        TransferHelper.safeTransfer(order.targetAsset, order.seller, _toReturn);\n\n        emit OrderClosed(_orderIdx, msg.sender);\n    }\n\n    /**\n     * @dev withdraw guarantee amount for expired orders\n     */\n    function withdraw(uint256 _orderIdx)\n        public\n        validOrder(_orderIdx)\n        onlySeller(_orderIdx)\n        inState(_orderIdx, OrderState.Placed)\n        expired(_orderIdx)\n    {\n        Order storage order = orders[_orderIdx];\n\n        order.state = OrderState.Withdrew;\n\n        uint256 _guaranteeAmount = calcGuarantee(_orderIdx);\n\n        TransferHelper.safeTransfer(\n            order.targetAsset,\n            order.seller,\n            _guaranteeAmount\n        );\n\n        emit OrderWithdrew(_orderIdx, msg.sender);\n    }\n\n    /**\n     * @dev buy an asset\n     */\n    function buy(uint256 _orderIdx)\n        public\n        onlyProfileHolders\n        validOrder(_orderIdx)\n        inState(_orderIdx, OrderState.Placed)\n        notExpired(_orderIdx)\n    {\n        Order storage order = orders[_orderIdx];\n        order.buyer = msg.sender;\n        order.state = OrderState.Sold;\n\n        uint256 _buyFee = calcBuyFee(_orderIdx);\n\n        uint256 _totalDepo = order.targetAmount.add(_buyFee);\n\n        TransferHelper.safeTransferFrom(\n            order.targetAsset,\n            msg.sender,\n            address(this),\n            _totalDepo\n        );\n\n        emit OrderSold(_orderIdx, msg.sender);\n    }\n\n    /**\n     * @dev buyer approves that recieved asset\n     */\n    function approveDelivery(uint256 _orderIdx)\n        public\n        validOrder(_orderIdx)\n        onlyBuyer(_orderIdx)\n        inState(_orderIdx, OrderState.Sold)\n    {\n        Order storage order = orders[_orderIdx];\n        order.state = OrderState.Finished;\n\n        uint256 _guaranteeAmount = calcGuarantee(_orderIdx);\n        uint256 _buyFee = calcBuyFee(_orderIdx);\n        uint256 _sellFee = calcSellFee(_orderIdx);\n\n        uint256 _totalFee = _buyFee.add(_sellFee);\n\n        uint256 _transferAmount = order.targetAmount.add(_guaranteeAmount).sub(\n            _sellFee\n        );\n\n        TransferHelper.safeTransfer(\n            order.targetAsset,\n            order.seller,\n            _transferAmount\n        );\n\n        if (feeTo != address(0)) {\n            TransferHelper.safeTransfer(order.targetAsset, feeTo, _totalFee);\n        }\n\n        emit DeliveryApproved(_orderIdx, msg.sender);\n    }\n\n    /**\n     * @dev cancel an order and return funds\n     */\n    function _cancelOrder(uint256 _orderIdx) internal {\n        Order storage order = orders[_orderIdx];\n\n        uint256 _guaranteeAmount = calcGuarantee(_orderIdx);\n        uint256 _buyFee = calcBuyFee(_orderIdx);\n        uint256 _cancellationFee = calcCancellationFee(_orderIdx);\n\n        uint256 _toReturnSeller = _guaranteeAmount.sub(_cancellationFee);\n        uint256 _toReturnBuyer = _buyFee.add(order.targetAmount).sub(\n            _cancellationFee\n        );\n\n        // transfer cancellation fee(2 * cancelaltion fee, for seller and buyer)\n        TransferHelper.safeTransfer(\n            order.targetAsset,\n            feeTo,\n            _cancellationFee.mul(2)\n        );\n\n        // return rest of guarantee deposit\n        TransferHelper.safeTransfer(\n            order.targetAsset,\n            order.seller,\n            _toReturnSeller\n        );\n\n        // return rest of buyer deposit\n        TransferHelper.safeTransfer(\n            order.targetAsset,\n            order.buyer,\n            _toReturnBuyer\n        );\n    }\n\n    /**\n     * @dev seller cancels an order after sold\n     */\n    function cancelForSeller(uint256 _orderIdx)\n        public\n        validOrder(_orderIdx)\n        onlySeller(_orderIdx)\n        inState(_orderIdx, OrderState.Sold)\n        cancellable(_orderIdx)\n    {\n        Order storage order = orders[_orderIdx];\n\n        order.state = OrderState.CancelledBySeller;\n\n        _cancelOrder(_orderIdx);\n\n        emit OrderCancelledBuySeller(_orderIdx, msg.sender);\n    }\n\n    /**\n     * @dev buyer cancels an order after bought\n     */\n    function cancelForBuyer(uint256 _orderIdx)\n        public\n        validOrder(_orderIdx)\n        onlyBuyer(_orderIdx)\n        inState(_orderIdx, OrderState.Sold)\n        cancellable(_orderIdx)\n    {\n        Order storage order = orders[_orderIdx];\n\n        order.state = OrderState.CancelledByBuyer;\n\n        _cancelOrder(_orderIdx);\n\n        emit OrderCancelledBuyBuyer(_orderIdx, msg.sender);\n    }\n\n    /**\n     * @dev filters orders by give filters\n     */\n    function fetchOrders(\n        uint256 fromID,\n        uint256 maxLength,\n        address buyer,\n        address seller,\n        OrderState[] memory states,\n        uint256[] memory sourceAssets,\n        uint256 fromDate,\n        uint256 toDate,\n        bool withExpireds\n    ) public view returns (Order[] memory) {\n        uint256 count = 0;\n        Order[] memory _upfrontOrders = new Order[](orders.length);\n\n        if (orders.length < 1) {\n            return _upfrontOrders;\n        }\n\n        if (fromID == 0) {\n            fromID = orders.length;\n        }\n\n        for (int256 i = int256(fromID) - 1; i >= 0; i--) {\n            if (count >= maxLength) break;\n\n            Order storage _order = orders[uint256(i)];\n\n            if (!withExpireds && (_order.deadline <= block.timestamp)) {\n                continue;\n            }\n\n            if (buyer != address(0)) {\n                if (_order.buyer != buyer) {\n                    continue;\n                }\n            }\n\n            if (seller != address(0)) {\n                if (_order.seller != seller) {\n                    continue;\n                }\n            }\n\n            if (fromDate > 0) {\n                if (_order.createdAt < fromDate) {\n                    continue;\n                }\n            }\n\n            if (toDate > 0) {\n                if (_order.createdAt > toDate) {\n                    continue;\n                }\n            }\n\n            if (sourceAssets.length > 0) {\n                bool found = false;\n\n                for (uint256 l = 0; l < sourceAssets.length; l++) {\n                    if (_order.sourceAsset == sourceAssets[l]) {\n                        found = true;\n                        break;\n                    }\n                }\n\n                if (!found) continue;\n            }\n\n            if (states.length > 0) {\n                bool found = false;\n\n                for (uint256 l = 0; l < states.length; l++) {\n                    if (_order.state == states[l]) {\n                        found = true;\n                        break;\n                    }\n                }\n\n                if (!found) continue;\n            }\n\n            _upfrontOrders[count] = _order;\n            count++;\n        }\n\n        Order[] memory _orders = new Order[](count);\n\n        for (uint256 i = 0; i < count; i++) {\n            _orders[i] = _upfrontOrders[i];\n        }\n\n        return _orders;\n    }\n}\n",
  "sourcePath": "/Users/bulwark/Projects/ecosc/bazaar/contracts/Bazaar.sol",
  "compiler": {
    "name": "solc",
    "version": "0.8.11+commit.d7f03943.Emscripten.clang"
  },
  "schemaVersion": "3.4.4",
  "updatedAt": "2022-02-18T15:45:45.404Z",
  "networkType": "ethereum",
  "devdoc": {
    "kind": "dev",
    "methods": {
      "addAllowedSourceAsset(string)": {
        "details": "add new allowed source asset"
      },
      "approveDelivery(uint256)": {
        "details": "buyer approves that recieved asset"
      },
      "buy(uint256)": {
        "details": "buy an asset"
      },
      "cancelForBuyer(uint256)": {
        "details": "buyer cancels an order after bought"
      },
      "cancelForSeller(uint256)": {
        "details": "seller cancels an order after sold"
      },
      "close(uint256)": {
        "details": "seller closes an order before its get expired"
      },
      "disableAllowedSourceAsset(uint256)": {
        "details": "disable allowed source asset"
      },
      "enableAllowedSourceAsset(uint256)": {
        "details": "enable allowed source asset"
      },
      "fetchOrders(uint256,uint256,address,address,uint8[],uint256[],uint256,uint256,bool)": {
        "details": "filters orders by give filters"
      },
      "owner()": {
        "details": "Returns the address of the current owner."
      },
      "placeOrder(uint256,uint256,address,uint256,uint256)": {
        "details": "create a new order"
      },
      "renounceOwnership()": {
        "details": "Leaves the contract without owner. It will not be possible to call `onlyOwner` functions anymore. Can only be called by the current owner. NOTE: Renouncing ownership will leave the contract without an owner, thereby removing any functionality that is only available to the owner."
      },
      "setBuyFee(uint256)": {
        "details": "set buy fee"
      },
      "setCancellationFee(uint256)": {
        "details": "set cancellation fee"
      },
      "setCloseFee(uint256)": {
        "details": "set close fee"
      },
      "setFeeTo(address)": {
        "details": "set fee to account"
      },
      "setFeeToSetter(address)": {
        "details": "set fee to setter account"
      },
      "setGuaranteePercent(uint256)": {
        "details": "set guarantee percent"
      },
      "setProfile(address)": {
        "details": "change profile contract address"
      },
      "setSellFee(uint256)": {
        "details": "set sell fee"
      },
      "transferOwnership(address)": {
        "details": "Transfers ownership of the contract to a new account (`newOwner`). Can only be called by the current owner."
      },
      "withdraw(uint256)": {
        "details": "withdraw guarantee amount for expired orders"
      }
    },
    "version": 1
  },
  "userdoc": {
    "kind": "user",
    "methods": {},
    "version": 1
  }
}