{
  "contractName": "Bazaar",
  "abi": [
    {
      "inputs": [
        {
          "internalType": "address",
          "name": "_profileContract",
          "type": "address"
        }
      ],
      "stateMutability": "nonpayable",
      "type": "constructor"
    },
    {
      "anonymous": false,
      "inputs": [
        {
          "indexed": true,
          "internalType": "uint256",
          "name": "orderIdx",
          "type": "uint256"
        },
        {
          "indexed": true,
          "internalType": "address",
          "name": "buyer",
          "type": "address"
        }
      ],
      "name": "DeliveryApproved",
      "type": "event"
    },
    {
      "anonymous": false,
      "inputs": [
        {
          "indexed": true,
          "internalType": "uint256",
          "name": "orderIdx",
          "type": "uint256"
        },
        {
          "indexed": true,
          "internalType": "address",
          "name": "buyer",
          "type": "address"
        }
      ],
      "name": "OrderCancelledBuyBuyer",
      "type": "event"
    },
    {
      "anonymous": false,
      "inputs": [
        {
          "indexed": true,
          "internalType": "uint256",
          "name": "orderIdx",
          "type": "uint256"
        },
        {
          "indexed": true,
          "internalType": "address",
          "name": "seller",
          "type": "address"
        }
      ],
      "name": "OrderCancelledBuySeller",
      "type": "event"
    },
    {
      "anonymous": false,
      "inputs": [
        {
          "indexed": true,
          "internalType": "uint256",
          "name": "orderIdx",
          "type": "uint256"
        },
        {
          "indexed": true,
          "internalType": "address",
          "name": "seller",
          "type": "address"
        }
      ],
      "name": "OrderClosed",
      "type": "event"
    },
    {
      "anonymous": false,
      "inputs": [
        {
          "indexed": true,
          "internalType": "uint256",
          "name": "orderIdx",
          "type": "uint256"
        },
        {
          "indexed": true,
          "internalType": "address",
          "name": "seller",
          "type": "address"
        }
      ],
      "name": "OrderPlaced",
      "type": "event"
    },
    {
      "anonymous": false,
      "inputs": [
        {
          "indexed": true,
          "internalType": "uint256",
          "name": "orderIdx",
          "type": "uint256"
        },
        {
          "indexed": true,
          "internalType": "address",
          "name": "buyer",
          "type": "address"
        }
      ],
      "name": "OrderSold",
      "type": "event"
    },
    {
      "anonymous": false,
      "inputs": [
        {
          "indexed": true,
          "internalType": "uint256",
          "name": "orderIdx",
          "type": "uint256"
        },
        {
          "indexed": true,
          "internalType": "address",
          "name": "seller",
          "type": "address"
        }
      ],
      "name": "OrderWithdrew",
      "type": "event"
    },
    {
      "anonymous": false,
      "inputs": [
        {
          "indexed": true,
          "internalType": "address",
          "name": "previousOwner",
          "type": "address"
        },
        {
          "indexed": true,
          "internalType": "address",
          "name": "newOwner",
          "type": "address"
        }
      ],
      "name": "OwnershipTransferred",
      "type": "event"
    },
    {
      "inputs": [
        {
          "internalType": "uint256",
          "name": "",
          "type": "uint256"
        }
      ],
      "name": "allowedSourceAssets",
      "outputs": [
        {
          "internalType": "string",
          "name": "symbol",
          "type": "string"
        },
        {
          "internalType": "bool",
          "name": "deleted",
          "type": "bool"
        }
      ],
      "stateMutability": "view",
      "type": "function",
      "constant": true
    },
    {
      "inputs": [],
      "name": "buyFee",
      "outputs": [
        {
          "internalType": "uint256",
          "name": "",
          "type": "uint256"
        }
      ],
      "stateMutability": "view",
      "type": "function",
      "constant": true
    },
    {
      "inputs": [],
      "name": "cancellationFee",
      "outputs": [
        {
          "internalType": "uint256",
          "name": "",
          "type": "uint256"
        }
      ],
      "stateMutability": "view",
      "type": "function",
      "constant": true
    },
    {
      "inputs": [],
      "name": "closeFee",
      "outputs": [
        {
          "internalType": "uint256",
          "name": "",
          "type": "uint256"
        }
      ],
      "stateMutability": "view",
      "type": "function",
      "constant": true
    },
    {
      "inputs": [],
      "name": "feeTo",
      "outputs": [
        {
          "internalType": "address",
          "name": "",
          "type": "address"
        }
      ],
      "stateMutability": "view",
      "type": "function",
      "constant": true
    },
    {
      "inputs": [],
      "name": "feeToSetter",
      "outputs": [
        {
          "internalType": "address",
          "name": "",
          "type": "address"
        }
      ],
      "stateMutability": "view",
      "type": "function",
      "constant": true
    },
    {
      "inputs": [],
      "name": "guaranteePercent",
      "outputs": [
        {
          "internalType": "uint256",
          "name": "",
          "type": "uint256"
        }
      ],
      "stateMutability": "view",
      "type": "function",
      "constant": true
    },
    {
      "inputs": [],
      "name": "maxDeliveryTime",
      "outputs": [
        {
          "internalType": "uint256",
          "name": "",
          "type": "uint256"
        }
      ],
      "stateMutability": "view",
      "type": "function",
      "constant": true
    },
    {
      "inputs": [
        {
          "internalType": "uint256",
          "name": "",
          "type": "uint256"
        }
      ],
      "name": "orders",
      "outputs": [
        {
          "internalType": "uint256",
          "name": "id",
          "type": "uint256"
        },
        {
          "internalType": "address",
          "name": "seller",
          "type": "address"
        },
        {
          "internalType": "address",
          "name": "buyer",
          "type": "address"
        },
        {
          "internalType": "uint256",
          "name": "createdAt",
          "type": "uint256"
        },
        {
          "internalType": "uint256",
          "name": "deadline",
          "type": "uint256"
        },
        {
          "internalType": "enum Bazaar.OrderState",
          "name": "state",
          "type": "uint8"
        },
        {
          "internalType": "uint256",
          "name": "sourceAsset",
          "type": "uint256"
        },
        {
          "internalType": "address",
          "name": "targetAsset",
          "type": "address"
        },
        {
          "internalType": "uint256",
          "name": "sourceAmount",
          "type": "uint256"
        },
        {
          "internalType": "uint256",
          "name": "targetAmount",
          "type": "uint256"
        }
      ],
      "stateMutability": "view",
      "type": "function",
      "constant": true
    },
    {
      "inputs": [],
      "name": "owner",
      "outputs": [
        {
          "internalType": "address",
          "name": "",
          "type": "address"
        }
      ],
      "stateMutability": "view",
      "type": "function",
      "constant": true
    },
    {
      "inputs": [],
      "name": "profileContract",
      "outputs": [
        {
          "internalType": "address",
          "name": "",
          "type": "address"
        }
      ],
      "stateMutability": "view",
      "type": "function",
      "constant": true
    },
    {
      "inputs": [],
      "name": "renounceOwnership",
      "outputs": [],
      "stateMutability": "nonpayable",
      "type": "function"
    },
    {
      "inputs": [],
      "name": "sellFee",
      "outputs": [
        {
          "internalType": "uint256",
          "name": "",
          "type": "uint256"
        }
      ],
      "stateMutability": "view",
      "type": "function",
      "constant": true
    },
    {
      "inputs": [
        {
          "internalType": "address",
          "name": "newOwner",
          "type": "address"
        }
      ],
      "name": "transferOwnership",
      "outputs": [],
      "stateMutability": "nonpayable",
      "type": "function"
    },
    {
      "inputs": [
        {
          "internalType": "address",
          "name": "_feeTo",
          "type": "address"
        }
      ],
      "name": "setFeeTo",
      "outputs": [],
      "stateMutability": "nonpayable",
      "type": "function"
    },
    {
      "inputs": [
        {
          "internalType": "address",
          "name": "_feeToSetter",
          "type": "address"
        }
      ],
      "name": "setFeeToSetter",
      "outputs": [],
      "stateMutability": "nonpayable",
      "type": "function"
    },
    {
      "inputs": [
        {
          "internalType": "uint256",
          "name": "_value",
          "type": "uint256"
        }
      ],
      "name": "setGuaranteePercent",
      "outputs": [],
      "stateMutability": "nonpayable",
      "type": "function"
    },
    {
      "inputs": [
        {
          "internalType": "uint256",
          "name": "_value",
          "type": "uint256"
        }
      ],
      "name": "setCloseFee",
      "outputs": [],
      "stateMutability": "nonpayable",
      "type": "function"
    },
    {
      "inputs": [
        {
          "internalType": "uint256",
          "name": "_value",
          "type": "uint256"
        }
      ],
      "name": "setSellFee",
      "outputs": [],
      "stateMutability": "nonpayable",
      "type": "function"
    },
    {
      "inputs": [
        {
          "internalType": "uint256",
          "name": "_value",
          "type": "uint256"
        }
      ],
      "name": "setBuyFee",
      "outputs": [],
      "stateMutability": "nonpayable",
      "type": "function"
    },
    {
      "inputs": [
        {
          "internalType": "uint256",
          "name": "_value",
          "type": "uint256"
        }
      ],
      "name": "setCancellationFee",
      "outputs": [],
      "stateMutability": "nonpayable",
      "type": "function"
    },
    {
      "inputs": [
        {
          "internalType": "address",
          "name": "addr",
          "type": "address"
        }
      ],
      "name": "setProfile",
      "outputs": [],
      "stateMutability": "nonpayable",
      "type": "function"
    },
    {
      "inputs": [
        {
          "internalType": "string",
          "name": "_symbol",
          "type": "string"
        }
      ],
      "name": "addAllowedSourceAsset",
      "outputs": [],
      "stateMutability": "nonpayable",
      "type": "function"
    },
    {
      "inputs": [
        {
          "internalType": "uint256",
          "name": "_idx",
          "type": "uint256"
        }
      ],
      "name": "disableAllowedSourceAsset",
      "outputs": [],
      "stateMutability": "nonpayable",
      "type": "function"
    },
    {
      "inputs": [
        {
          "internalType": "uint256",
          "name": "_idx",
          "type": "uint256"
        }
      ],
      "name": "enableAllowedSourceAsset",
      "outputs": [],
      "stateMutability": "nonpayable",
      "type": "function"
    },
    {
      "inputs": [
        {
          "internalType": "uint256",
          "name": "sourceAsset",
          "type": "uint256"
        },
        {
          "internalType": "uint256",
          "name": "sourceAmount",
          "type": "uint256"
        },
        {
          "internalType": "address",
          "name": "targetAsset",
          "type": "address"
        },
        {
          "internalType": "uint256",
          "name": "targetAmount",
          "type": "uint256"
        },
        {
          "internalType": "uint256",
          "name": "timeout",
          "type": "uint256"
        }
      ],
      "name": "placeOrder",
      "outputs": [
        {
          "internalType": "uint256",
          "name": "",
          "type": "uint256"
        }
      ],
      "stateMutability": "nonpayable",
      "type": "function"
    },
    {
      "inputs": [
        {
          "internalType": "uint256",
          "name": "_orderIdx",
          "type": "uint256"
        }
      ],
      "name": "close",
      "outputs": [],
      "stateMutability": "nonpayable",
      "type": "function"
    },
    {
      "inputs": [
        {
          "internalType": "uint256",
          "name": "_orderIdx",
          "type": "uint256"
        }
      ],
      "name": "withdraw",
      "outputs": [],
      "stateMutability": "nonpayable",
      "type": "function"
    },
    {
      "inputs": [
        {
          "internalType": "uint256",
          "name": "_orderIdx",
          "type": "uint256"
        }
      ],
      "name": "buy",
      "outputs": [],
      "stateMutability": "nonpayable",
      "type": "function"
    },
    {
      "inputs": [
        {
          "internalType": "uint256",
          "name": "_orderIdx",
          "type": "uint256"
        }
      ],
      "name": "approveDelivery",
      "outputs": [],
      "stateMutability": "nonpayable",
      "type": "function"
    },
    {
      "inputs": [
        {
          "internalType": "uint256",
          "name": "_orderIdx",
          "type": "uint256"
        }
      ],
      "name": "cancelForSeller",
      "outputs": [],
      "stateMutability": "nonpayable",
      "type": "function"
    },
    {
      "inputs": [
        {
          "internalType": "uint256",
          "name": "_orderIdx",
          "type": "uint256"
        }
      ],
      "name": "cancelForBuyer",
      "outputs": [],
      "stateMutability": "nonpayable",
      "type": "function"
    },
    {
      "inputs": [
        {
          "internalType": "int256",
          "name": "fromID",
          "type": "int256"
        },
        {
          "internalType": "uint256",
          "name": "maxLength",
          "type": "uint256"
        },
        {
          "internalType": "address",
          "name": "buyer",
          "type": "address"
        },
        {
          "internalType": "address",
          "name": "seller",
          "type": "address"
        },
        {
          "internalType": "enum Bazaar.OrderState[]",
          "name": "states",
          "type": "uint8[]"
        },
        {
          "internalType": "uint256[]",
          "name": "sourceAssets",
          "type": "uint256[]"
        },
        {
          "internalType": "uint256",
          "name": "fromDate",
          "type": "uint256"
        },
        {
          "internalType": "uint256",
          "name": "toDate",
          "type": "uint256"
        },
        {
          "internalType": "bool",
          "name": "withExpireds",
          "type": "bool"
        }
      ],
      "name": "fetchOrders",
      "outputs": [
        {
          "components": [
            {
              "internalType": "uint256",
              "name": "id",
              "type": "uint256"
            },
            {
              "internalType": "address",
              "name": "seller",
              "type": "address"
            },
            {
              "internalType": "address",
              "name": "buyer",
              "type": "address"
            },
            {
              "internalType": "uint256",
              "name": "createdAt",
              "type": "uint256"
            },
            {
              "internalType": "uint256",
              "name": "deadline",
              "type": "uint256"
            },
            {
              "internalType": "enum Bazaar.OrderState",
              "name": "state",
              "type": "uint8"
            },
            {
              "internalType": "uint256",
              "name": "sourceAsset",
              "type": "uint256"
            },
            {
              "internalType": "address",
              "name": "targetAsset",
              "type": "address"
            },
            {
              "internalType": "uint256",
              "name": "sourceAmount",
              "type": "uint256"
            },
            {
              "internalType": "uint256",
              "name": "targetAmount",
              "type": "uint256"
            }
          ],
          "internalType": "struct Bazaar.Order[]",
          "name": "",
          "type": "tuple[]"
        }
      ],
      "stateMutability": "view",
      "type": "function",
      "constant": true
    },
    {
      "inputs": [
        {
          "internalType": "address",
          "name": "seller",
          "type": "address"
        }
      ],
      "name": "sellerMetrics",
      "outputs": [
        {
          "internalType": "uint256",
          "name": "totalSaleOrders",
          "type": "uint256"
        },
        {
          "internalType": "uint256",
          "name": "soldOrders",
          "type": "uint256"
        },
        {
          "internalType": "uint256",
          "name": "deliveredOrders",
          "type": "uint256"
        },
        {
          "internalType": "uint256",
          "name": "cancelledSeller",
          "type": "uint256"
        },
        {
          "internalType": "uint256",
          "name": "cancelledBuyer",
          "type": "uint256"
        }
      ],
      "stateMutability": "view",
      "type": "function",
      "constant": true
    },
    {
      "inputs": [
        {
          "internalType": "address",
          "name": "buyer",
          "type": "address"
        }
      ],
      "name": "buyerMetrics",
      "outputs": [
        {
          "internalType": "uint256",
          "name": "boughtOrders",
          "type": "uint256"
        },
        {
          "internalType": "uint256",
          "name": "deliveredOrders",
          "type": "uint256"
        },
        {
          "internalType": "uint256",
          "name": "cancelledSeller",
          "type": "uint256"
        },
        {
          "internalType": "uint256",
          "name": "cancelledBuyer",
          "type": "uint256"
        }
      ],
      "stateMutability": "view",
      "type": "function",
      "constant": true
    }
  ],
  "bytecode": "0x60806040523480156200001157600080fd5b506040516200750338038062007503833981810160405281019062000037919062001d0a565b60006200004962001be860201b60201c565b9050806000806101000a81548173ffffffffffffffffffffffffffffffffffffffff021916908373ffffffffffffffffffffffffffffffffffffffff1602179055508073ffffffffffffffffffffffffffffffffffffffff16600073ffffffffffffffffffffffffffffffffffffffff167f8be0079c531659141344cd1fd0a4f28419497f9722a3daafe3b4186f6b6457e060405160405180910390a35080600560006101000a81548173ffffffffffffffffffffffffffffffffffffffff021916908373ffffffffffffffffffffffffffffffffffffffff160217905550600260405180604001604052806040518060400160405280600a81526020017f474f4c445f4f554e43450000000000000000000000000000000000000000000081525081526020016000151581525090806001815401808255809150506001900390600052602060002090600202016000909190919091506000820151816000019080519060200190620001be92919062001bf0565b5060208201518160010160006101000a81548160ff0219169083151502179055505050600260405180604001604052806040518060400160405280600c81526020017f53494c5645525f4f554e43450000000000000000000000000000000000000000815250815260200160001515815250908060018154018082558091505060019003906000526020600020906002020160009091909190915060008201518160000190805190602001906200027792919062001bf0565b5060208201518160010160006101000a81548160ff0219169083151502179055505050600260405180604001604052806040518060400160405280600d81526020017f43415241545f474f4c445f313800000000000000000000000000000000000000815250815260200160001515815250908060018154018082558091505060019003906000526020600020906002020160009091909190915060008201518160000190805190602001906200033092919062001bf0565b5060208201518160010160006101000a81548160ff0219169083151502179055505050600260405180604001604052806040518060400160405280600d81526020017f43415241545f474f4c445f32340000000000000000000000000000000000000081525081526020016000151581525090806001815401808255809150506001900390600052602060002090600202016000909190919091506000820151816000019080519060200190620003e992919062001bf0565b5060208201518160010160006101000a81548160ff0219169083151502179055505050600260405180604001604052806040518060400160405280600c81526020017f474f4c445f4d45534748414c000000000000000000000000000000000000000081525081526020016000151581525090806001815401808255809150506001900390600052602060002090600202016000909190919091506000820151816000019080519060200190620004a292919062001bf0565b5060208201518160010160006101000a81548160ff0219169083151502179055505050600260405180604001604052806040518060400160405280601081526020017f474f4c445f4d454c5445445f4341534800000000000000000000000000000000815250815260200160001515815250908060018154018082558091505060019003906000526020600020906002020160009091909190915060008201518160000190805190602001906200055b92919062001bf0565b5060208201518160010160006101000a81548160ff0219169083151502179055505050600260405180604001604052806040518060400160405280601381526020017f4d454c5445445f42414e4b494e475f474f4c4400000000000000000000000000815250815260200160001515815250908060018154018082558091505060019003906000526020600020906002020160009091909190915060008201518160000190805190602001906200061492919062001bf0565b5060208201518160010160006101000a81548160ff0219169083151502179055505050600260405180604001604052806040518060400160405280600b81526020017f4d454c5445445f474f4c4400000000000000000000000000000000000000000081525081526020016000151581525090806001815401808255809150506001900390600052602060002090600202016000909190919091506000820151816000019080519060200190620006cd92919062001bf0565b5060208201518160010160006101000a81548160ff0219169083151502179055505050600260405180604001604052806040518060400160405280600e81526020017f474f4c445f434f494e5f43415348000000000000000000000000000000000000815250815260200160001515815250908060018154018082558091505060019003906000526020600020906002020160009091909190915060008201518160000190805190602001906200078692919062001bf0565b5060208201518160010160006101000a81548160ff0219169083151502179055505050600260405180604001604052806040518060400160405280600981526020017f474f4c445f434f494e0000000000000000000000000000000000000000000000815250815260200160001515815250908060018154018082558091505060019003906000526020600020906002020160009091909190915060008201518160000190805190602001906200083f92919062001bf0565b5060208201518160010160006101000a81548160ff0219169083151502179055505050600260405180604001604052806040518060400160405280600381526020017f555344000000000000000000000000000000000000000000000000000000000081525081526020016000151581525090806001815401808255809150506001900390600052602060002090600202016000909190919091506000820151816000019080519060200190620008f892919062001bf0565b5060208201518160010160006101000a81548160ff0219169083151502179055505050600260405180604001604052806040518060400160405280600581526020017f4d414e415400000000000000000000000000000000000000000000000000000081525081526020016000151581525090806001815401808255809150506001900390600052602060002090600202016000909190919091506000820151816000019080519060200190620009b192919062001bf0565b5060208201518160010160006101000a81548160ff0219169083151502179055505050600260405180604001604052806040518060400160405280600681526020017f44495248414d00000000000000000000000000000000000000000000000000008152508152602001600015158152509080600181540180825580915050600190039060005260206000209060020201600090919091909150600082015181600001908051906020019062000a6a92919062001bf0565b5060208201518160010160006101000a81548160ff0219169083151502179055505050600260405180604001604052806040518060400160405280600b81526020017f44494e41525f49524151490000000000000000000000000000000000000000008152508152602001600015158152509080600181540180825580915050600190039060005260206000209060020201600090919091909150600082015181600001908051906020019062000b2392919062001bf0565b5060208201518160010160006101000a81548160ff0219169083151502179055505050600260405180604001604052806040518060400160405280600c81526020017f5455524b4953485f4c49524100000000000000000000000000000000000000008152508152602001600015158152509080600181540180825580915050600190039060005260206000209060020201600090919091909150600082015181600001908051906020019062000bdc92919062001bf0565b5060208201518160010160006101000a81548160ff0219169083151502179055505050600260405180604001604052806040518060400160405280600b81526020017f504f4c5953545952454e450000000000000000000000000000000000000000008152508152602001600015158152509080600181540180825580915050600190039060005260206000209060020201600090919091909150600082015181600001908051906020019062000c9592919062001bf0565b5060208201518160010160006101000a81548160ff0219169083151502179055505050600260405180604001604052806040518060400160405280600781526020017f424954554d454e000000000000000000000000000000000000000000000000008152508152602001600015158152509080600181540180825580915050600190039060005260206000209060020201600090919091909150600082015181600001908051906020019062000d4e92919062001bf0565b5060208201518160010160006101000a81548160ff0219169083151502179055505050600260405180604001604052806040518060400160405280600881526020017f424153455f4f494c0000000000000000000000000000000000000000000000008152508152602001600015158152509080600181540180825580915050600190039060005260206000209060020201600090919091909150600082015181600001908051906020019062000e0792919062001bf0565b5060208201518160010160006101000a81548160ff0219169083151502179055505050600260405180604001604052806040518060400160405280600d81526020017f504f4c5950524f50594c454e45000000000000000000000000000000000000008152508152602001600015158152509080600181540180825580915050600190039060005260206000209060020201600090919091909150600082015181600001908051906020019062000ec092919062001bf0565b5060208201518160010160006101000a81548160ff0219169083151502179055505050600260405180604001604052806040518060400160405280600481526020017f48445045000000000000000000000000000000000000000000000000000000008152508152602001600015158152509080600181540180825580915050600190039060005260206000209060020201600090919091909150600082015181600001908051906020019062000f7992919062001bf0565b5060208201518160010160006101000a81548160ff0219169083151502179055505050600260405180604001604052806040518060400160405280600481526020017f4c44504500000000000000000000000000000000000000000000000000000000815250815260200160001515815250908060018154018082558091505060019003906000526020600020906002020160009091909190915060008201518160000190805190602001906200103292919062001bf0565b5060208201518160010160006101000a81548160ff0219169083151502179055505050600260405180604001604052806040518060400160405280600b81526020017f4e49545249435f4143494400000000000000000000000000000000000000000081525081526020016000151581525090806001815401808255809150506001900390600052602060002090600202016000909190919091506000820151816000019080519060200190620010eb92919062001bf0565b5060208201518160010160006101000a81548160ff0219169083151502179055505050600260405180604001604052806040518060400160405280601081526020017f534f4449554d5f485944524f584944450000000000000000000000000000000081525081526020016000151581525090806001815401808255809150506001900390600052602060002090600202016000909190919091506000820151816000019080519060200190620011a492919062001bf0565b5060208201518160010160006101000a81548160ff0219169083151502179055505050600260405180604001604052806040518060400160405280600481526020017f5552454100000000000000000000000000000000000000000000000000000000815250815260200160001515815250908060018154018082558091505060019003906000526020600020906002020160009091909190915060008201518160000190805190602001906200125d92919062001bf0565b5060208201518160010160006101000a81548160ff0219169083151502179055505050600260405180604001604052806040518060400160405280601081526020017f534f4449554d5f434152424f4e41544500000000000000000000000000000000815250815260200160001515815250908060018154018082558091505060019003906000526020600020906002020160009091909190915060008201518160000190805190602001906200131692919062001bf0565b5060208201518160010160006101000a81548160ff0219169083151502179055505050600260405180604001604052806040518060400160405280600e81526020017f534f4449554d5f53554c4641544500000000000000000000000000000000000081525081526020016000151581525090806001815401808255809150506001900390600052602060002090600202016000909190919091506000820151816000019080519060200190620013cf92919062001bf0565b5060208201518160010160006101000a81548160ff0219169083151502179055505050600260405180604001604052806040518060400160405280600c81526020017f504152414646494e5f5741580000000000000000000000000000000000000000815250815260200160001515815250908060018154018082558091505060019003906000526020600020906002020160009091909190915060008201518160000190805190602001906200148892919062001bf0565b5060208201518160010160006101000a81548160ff0219169083151502179055505050600260405180604001604052806040518060400160405280600b81526020017f45504f58595f524553494e000000000000000000000000000000000000000000815250815260200160001515815250908060018154018082558091505060019003906000526020600020906002020160009091909190915060008201518160000190805190602001906200154192919062001bf0565b5060208201518160010160006101000a81548160ff0219169083151502179055505050600260405180604001604052806040518060400160405280600781526020017f53545952454e450000000000000000000000000000000000000000000000000081525081526020016000151581525090806001815401808255809150506001900390600052602060002090600202016000909190919091506000820151816000019080519060200190620015fa92919062001bf0565b5060208201518160010160006101000a81548160ff0219169083151502179055505050600260405180604001604052806040518060400160405280600581526020017f535445454c00000000000000000000000000000000000000000000000000000081525081526020016000151581525090806001815401808255809150506001900390600052602060002090600202016000909190919091506000820151816000019080519060200190620016b392919062001bf0565b5060208201518160010160006101000a81548160ff0219169083151502179055505050600260405180604001604052806040518060400160405280600881526020017f49524f4e5f4f5245000000000000000000000000000000000000000000000000815250815260200160001515815250908060018154018082558091505060019003906000526020600020906002020160009091909190915060008201518160000190805190602001906200176c92919062001bf0565b5060208201518160010160006101000a81548160ff0219169083151502179055505050600260405180604001604052806040518060400160405280600b81526020017f434f4e43454e5452415445000000000000000000000000000000000000000000815250815260200160001515815250908060018154018082558091505060019003906000526020600020906002020160009091909190915060008201518160000190805190602001906200182592919062001bf0565b5060208201518160010160006101000a81548160ff0219169083151502179055505050600260405180604001604052806040518060400160405280600b81526020017f49524f4e5f50454c4c455400000000000000000000000000000000000000000081525081526020016000151581525090806001815401808255809150506001900390600052602060002090600202016000909190919091506000820151816000019080519060200190620018de92919062001bf0565b5060208201518160010160006101000a81548160ff0219169083151502179055505050600260405180604001604052806040518060400160405280600681526020017f434f505045520000000000000000000000000000000000000000000000000000815250815260200160001515815250908060018154018082558091505060019003906000526020600020906002020160009091909190915060008201518160000190805190602001906200199792919062001bf0565b5060208201518160010160006101000a81548160ff0219169083151502179055505050600260405180604001604052806040518060400160405280600481526020017f5a494e43000000000000000000000000000000000000000000000000000000008152508152602001600015158152509080600181540180825580915050600190039060005260206000209060020201600090919091909150600082015181600001908051906020019062001a5092919062001bf0565b5060208201518160010160006101000a81548160ff0219169083151502179055505050600260405180604001604052806040518060400160405280600981526020017f414c554d494e49554d00000000000000000000000000000000000000000000008152508152602001600015158152509080600181540180825580915050600190039060005260206000209060020201600090919091909150600082015181600001908051906020019062001b0992919062001bf0565b5060208201518160010160006101000a81548160ff0219169083151502179055505050610dac600781905550600a60088190555060fa60098190555060fa600a819055506107d0600b8190555033600460006101000a81548173ffffffffffffffffffffffffffffffffffffffff021916908373ffffffffffffffffffffffffffffffffffffffff16021790555033600360006101000a81548173ffffffffffffffffffffffffffffffffffffffff021916908373ffffffffffffffffffffffffffffffffffffffff1602179055506170806006819055505062001da1565b600033905090565b82805462001bfe9062001d6b565b90600052602060002090601f01602090048101928262001c22576000855562001c6e565b82601f1062001c3d57805160ff191683800117855562001c6e565b8280016001018555821562001c6e579182015b8281111562001c6d57825182559160200191906001019062001c50565b5b50905062001c7d919062001c81565b5090565b5b8082111562001c9c57600081600090555060010162001c82565b5090565b600080fd5b600073ffffffffffffffffffffffffffffffffffffffff82169050919050565b600062001cd28262001ca5565b9050919050565b62001ce48162001cc5565b811462001cf057600080fd5b50565b60008151905062001d048162001cd9565b92915050565b60006020828403121562001d235762001d2262001ca0565b5b600062001d338482850162001cf3565b91505092915050565b7f4e487b7100000000000000000000000000000000000000000000000000000000600052602260045260246000fd5b6000600282049050600182168062001d8457607f821691505b6020821081141562001d9b5762001d9a62001d3c565b5b50919050565b6157528062001db16000396000f3fe608060405234801561001057600080fd5b50600436106102415760003560e01c8063715018a611610145578063a9d1299c116100bd578063e3fb75e41161008c578063f2fde38b11610071578063f2fde38b1461064f578063f46901ed1461066b578063f7d7c7701461068757610241565b8063e3fb75e414610615578063f1f9715e1461063157610241565b8063a9d1299c14610591578063c94b674b146105c1578063d96a094a146105dd578063e0b6a1e3146105f957610241565b8063a2e74af611610114578063a5de0423116100f9578063a5de042314610520578063a68b96571461053c578063a85c38ef1461055857610241565b8063a2e74af6146104e6578063a3974b211461050257610241565b8063715018a61461046e5780637243ed8e146104785780638b4cee08146104ac5780638da5cb5b146104c857610241565b80632b14ca56116101d857806347062402116101a757806360eec2801161018c57806360eec280146104165780636ef569a51461043257806370492cbf1461045057610241565b806347062402146103dc5780634863f5ea146103fa57610241565b80632b14ca56146103565780632dd10ad3146103745780632e1a7d4d146103905780633d9e05ac146103ac57610241565b80631148a348116102145780631148a348146102ba57806312b48c1e146102d657806316e2ef76146103075780632a251e8d1461033a57610241565b8063017e7e5814610246578063094b7415146102645780630aebeb4e146102825780630cc835a31461029e575b600080fd5b61024e6106a5565b60405161025b9190613fff565b60405180910390f35b61026c6106cb565b6040516102799190613fff565b60405180910390f35b61029c60048036038101906102979190614064565b6106f1565b005b6102b860048036038101906102b39190614064565b610a68565b005b6102d460048036038101906102cf91906141d7565b610b07565b005b6102f060048036038101906102eb9190614064565b610c21565b6040516102fe9291906142c3565b60405180910390f35b610321600480360381019061031c919061431f565b610cea565b604051610331949392919061435b565b60405180910390f35b610354600480360381019061034f9190614064565b610ef7565b005b61035e6111b4565b60405161036b91906143a0565b60405180910390f35b61038e60048036038101906103899190614064565b6111ba565b005b6103aa60048036038101906103a59190614064565b611259565b005b6103c660048036038101906103c191906143bb565b61155a565b6040516103d391906143a0565b60405180910390f35b6103e4611a46565b6040516103f191906143a0565b60405180910390f35b610414600480360381019061040f9190614064565b611a4c565b005b610430600480360381019061042b9190614064565b611b22565b005b61043a611bf8565b60405161044791906143a0565b60405180910390f35b610458611bfe565b60405161046591906143a0565b60405180910390f35b610476611c04565b005b610492600480360381019061048d919061431f565b611d57565b6040516104a3959493929190614436565b60405180910390f35b6104c660048036038101906104c19190614064565b611f79565b005b6104d0612018565b6040516104dd9190613fff565b60405180910390f35b61050060048036038101906104fb919061431f565b612041565b005b61050a612115565b6040516105179190613fff565b60405180910390f35b61053a60048036038101906105359190614064565b61213b565b005b61055660048036038101906105519190614064565b6121da565b005b610572600480360381019061056d9190614064565b612279565b6040516105889a99989796959493929190614500565b60405180910390f35b6105ab60048036038101906105a691906147ae565b61234a565b6040516105b89190614a59565b60405180910390f35b6105db60048036038101906105d69190614064565b61290d565b005b6105f760048036038101906105f29190614064565b612cae565b005b610613600480360381019061060e919061431f565b613010565b005b61062f600480360381019061062a9190614064565b6130e9565b005b6106396133a6565b60405161064691906143a0565b60405180910390f35b6106696004803603810190610664919061431f565b6133ac565b005b6106856004803603810190610680919061431f565b61344d565b005b61068f613521565b60405161069c91906143a0565b60405180910390f35b600360009054906101000a900473ffffffffffffffffffffffffffffffffffffffff1681565b600460009054906101000a900473ffffffffffffffffffffffffffffffffffffffff1681565b806001805490508110610739576040517f08c379a000000000000000000000000000000000000000000000000000000000815260040161073090614ac7565b60405180910390fd5b816001818154811061074e5761074d614ae7565b5b90600052602060002090600a020160010160009054906101000a900473ffffffffffffffffffffffffffffffffffffffff1673ffffffffffffffffffffffffffffffffffffffff163373ffffffffffffffffffffffffffffffffffffffff16146107ed576040517f08c379a00000000000000000000000000000000000000000000000000000000081526004016107e490614b62565b60405180910390fd5b82600080600681111561080357610802614489565b5b6001838154811061081757610816614ae7565b5b90600052602060002090600a020160050160009054906101000a900460ff16600681111561084857610847614489565b5b14610888576040517f08c379a000000000000000000000000000000000000000000000000000000000815260040161087f90614bce565b60405180910390fd5b846001818154811061089d5761089c614ae7565b5b90600052602060002090600a02016004015442106108f0576040517f08c379a00000000000000000000000000000000000000000000000000000000081526004016108e790614c3a565b60405180910390fd5b60006001878154811061090657610905614ae7565b5b90600052602060002090600a0201905060038160050160006101000a81548160ff0219169083600681111561093e5761093d614489565b5b0217905550600061094e88613527565b9050600061095b89613584565b9050600061097282846135e190919063ffffffff16565b90506109c58460070160009054906101000a900473ffffffffffffffffffffffffffffffffffffffff16600360009054906101000a900473ffffffffffffffffffffffffffffffffffffffff168461362b565b610a188460070160009054906101000a900473ffffffffffffffffffffffffffffffffffffffff168560010160009054906101000a900473ffffffffffffffffffffffffffffffffffffffff168361362b565b3373ffffffffffffffffffffffffffffffffffffffff168a7f4b5bcc2fcc61cdd6ab8b46567c95970321b41bf50984b3b38f13fc04015108ea60405160405180910390a350505050505050505050565b610a70613761565b73ffffffffffffffffffffffffffffffffffffffff1660008054906101000a900473ffffffffffffffffffffffffffffffffffffffff1673ffffffffffffffffffffffffffffffffffffffff1614610afd576040517f08c379a0000000000000000000000000000000000000000000000000000000008152600401610af490614ca6565b60405180910390fd5b80600a8190555050565b610b0f613761565b73ffffffffffffffffffffffffffffffffffffffff1660008054906101000a900473ffffffffffffffffffffffffffffffffffffffff1673ffffffffffffffffffffffffffffffffffffffff1614610b9c576040517f08c379a0000000000000000000000000000000000000000000000000000000008152600401610b9390614ca6565b60405180910390fd5b600260405180604001604052808381526020016000151581525090806001815401808255809150506001900390600052602060002090600202016000909190919091506000820151816000019080519060200190610bfb929190613e74565b5060208201518160010160006101000a81548160ff021916908315150217905550505050565b60028181548110610c3157600080fd5b9060005260206000209060020201600091509050806000018054610c5490614cf5565b80601f0160208091040260200160405190810160405280929190818152602001828054610c8090614cf5565b8015610ccd5780601f10610ca257610100808354040283529160200191610ccd565b820191906000526020600020905b815481529060010190602001808311610cb057829003601f168201915b5050505050908060010160009054906101000a900460ff16905082565b60008060008060005b600180549050811015610ecb57600060018281548110610d1657610d15614ae7565b5b90600052602060002090600a020190508673ffffffffffffffffffffffffffffffffffffffff168160020160009054906101000a900473ffffffffffffffffffffffffffffffffffffffff1673ffffffffffffffffffffffffffffffffffffffff1614610d835750610eb8565b60016006811115610d9757610d96614489565b5b8160050160009054906101000a900460ff166006811115610dbb57610dba614489565b5b1415610dd0578580610dcc90614d56565b9650505b60026006811115610de457610de3614489565b5b8160050160009054906101000a900460ff166006811115610e0857610e07614489565b5b1415610e1d578480610e1990614d56565b9550505b60056006811115610e3157610e30614489565b5b8160050160009054906101000a900460ff166006811115610e5557610e54614489565b5b1415610e6a578380610e6690614d56565b9450505b600680811115610e7d57610e7c614489565b5b8160050160009054906101000a900460ff166006811115610ea157610ea0614489565b5b1415610eb6578280610eb290614d56565b9350505b505b8080610ec390614d56565b915050610cf3565b50828183610ed99190614d9f565b610ee39190614d9f565b84610eee9190614d9f565b93509193509193565b806001805490508110610f3f576040517f08c379a0000000000000000000000000000000000000000000000000000000008152600401610f3690614ac7565b60405180910390fd5b8160018181548110610f5457610f53614ae7565b5b90600052602060002090600a020160020160009054906101000a900473ffffffffffffffffffffffffffffffffffffffff1673ffffffffffffffffffffffffffffffffffffffff163373ffffffffffffffffffffffffffffffffffffffff1614610ff3576040517f08c379a0000000000000000000000000000000000000000000000000000000008152600401610fea90614e41565b60405180910390fd5b82600180600681111561100957611008614489565b5b6001838154811061101d5761101c614ae7565b5b90600052602060002090600a020160050160009054906101000a900460ff16600681111561104e5761104d614489565b5b1461108e576040517f08c379a000000000000000000000000000000000000000000000000000000000815260040161108590614bce565b60405180910390fd5b84426110ca600654600184815481106110aa576110a9614ae7565b5b90600052602060002090600a02016003015461376990919063ffffffff16565b111561110b576040517f08c379a000000000000000000000000000000000000000000000000000000000815260040161110290614ed3565b60405180910390fd5b60006001878154811061112157611120614ae7565b5b90600052602060002090600a0201905060068160050160006101000a81548160ff0219169083600681111561115957611158614489565b5b0217905550611167876137c7565b3373ffffffffffffffffffffffffffffffffffffffff16877f9e499ca7d3dbbd3efc165bd6c79e95aa1d2720df4fe490d80813a6675c9832b060405160405180910390a350505050505050565b60095481565b6111c2613761565b73ffffffffffffffffffffffffffffffffffffffff1660008054906101000a900473ffffffffffffffffffffffffffffffffffffffff1673ffffffffffffffffffffffffffffffffffffffff161461124f576040517f08c379a000000000000000000000000000000000000000000000000000000000815260040161124690614ca6565b60405180910390fd5b80600b8190555050565b8060018054905081106112a1576040517f08c379a000000000000000000000000000000000000000000000000000000000815260040161129890614ac7565b60405180910390fd5b81600181815481106112b6576112b5614ae7565b5b90600052602060002090600a020160010160009054906101000a900473ffffffffffffffffffffffffffffffffffffffff1673ffffffffffffffffffffffffffffffffffffffff163373ffffffffffffffffffffffffffffffffffffffff1614611355576040517f08c379a000000000000000000000000000000000000000000000000000000000815260040161134c90614b62565b60405180910390fd5b82600080600681111561136b5761136a614489565b5b6001838154811061137f5761137e614ae7565b5b90600052602060002090600a020160050160009054906101000a900460ff1660068111156113b0576113af614489565b5b146113f0576040517f08c379a00000000000000000000000000000000000000000000000000000000081526004016113e790614bce565b60405180910390fd5b846001818154811061140557611404614ae7565b5b90600052602060002090600a020160040154421015611459576040517f08c379a000000000000000000000000000000000000000000000000000000000815260040161145090614f65565b60405180910390fd5b60006001878154811061146f5761146e614ae7565b5b90600052602060002090600a0201905060048160050160006101000a81548160ff021916908360068111156114a7576114a6614489565b5b021790555060006114b788613527565b905061150c8260070160009054906101000a900473ffffffffffffffffffffffffffffffffffffffff168360010160009054906101000a900473ffffffffffffffffffffffffffffffffffffffff168361362b565b3373ffffffffffffffffffffffffffffffffffffffff16887f1506fa8dcc8bb8696cb3a90a3bb89dcad92495234c07164a60fab87e198c0f2b60405160405180910390a35050505050505050565b6000600560009054906101000a900473ffffffffffffffffffffffffffffffffffffffff1673ffffffffffffffffffffffffffffffffffffffff1663b2dd5c07336040518263ffffffff1660e01b81526004016115b79190613fff565b602060405180830381865afa1580156115d4573d6000803e3d6000fd5b505050506040513d601f19601f820116820180604052508101906115f89190614f9a565b611637576040517f08c379a000000000000000000000000000000000000000000000000000000000815260040161162e90615013565b60405180910390fd5b856002805490508110801561167c57506002818154811061165b5761165a614ae7565b5b906000526020600020906002020160010160009054906101000a900460ff16155b6116bb576040517f08c379a00000000000000000000000000000000000000000000000000000000081526004016116b29061507f565b60405180910390fd5b600086116116fe576040517f08c379a00000000000000000000000000000000000000000000000000000000081526004016116f5906150eb565b60405180910390fd5b60008411611741576040517f08c379a000000000000000000000000000000000000000000000000000000000815260040161173890615157565b60405180910390fd5b611749613efa565b60018054905081600001818152505033816020019073ffffffffffffffffffffffffffffffffffffffff16908173ffffffffffffffffffffffffffffffffffffffff1681525050834261179c9190614d9f565b81608001818152505042816060018181525050878160c00181815250508681610100018181525050858160e0019073ffffffffffffffffffffffffffffffffffffffff16908173ffffffffffffffffffffffffffffffffffffffff1681525050848161012001818152505060008160a0019060068111156118205761181f614489565b5b9081600681111561183457611833614489565b5b8152505060018190806001815401808255809150506001900390600052602060002090600a02016000909190919091506000820151816000015560208201518160010160006101000a81548173ffffffffffffffffffffffffffffffffffffffff021916908373ffffffffffffffffffffffffffffffffffffffff16021790555060408201518160020160006101000a81548173ffffffffffffffffffffffffffffffffffffffff021916908373ffffffffffffffffffffffffffffffffffffffff160217905550606082015181600301556080820151816004015560a08201518160050160006101000a81548160ff0219169083600681111561193b5761193a614489565b5b021790555060c0820151816006015560e08201518160070160006101000a81548173ffffffffffffffffffffffffffffffffffffffff021916908373ffffffffffffffffffffffffffffffffffffffff16021790555061010082015181600801556101208201518160090155505060006119d5620186a06119c76007548961396b90919063ffffffff16565b6139e690919063ffffffff16565b90506119e78260e00151333084613a30565b816020015173ffffffffffffffffffffffffffffffffffffffff1682600001517f5222ba5f86a58ad15e7771bd95a809f162ae1762ea7cd66e28a58217341334cc60405160405180910390a38160000151935050505095945050505050565b600a5481565b611a54613761565b73ffffffffffffffffffffffffffffffffffffffff1660008054906101000a900473ffffffffffffffffffffffffffffffffffffffff1673ffffffffffffffffffffffffffffffffffffffff1614611ae1576040517f08c379a0000000000000000000000000000000000000000000000000000000008152600401611ad890614ca6565b60405180910390fd5b600160028281548110611af757611af6614ae7565b5b906000526020600020906002020160010160006101000a81548160ff02191690831515021790555050565b611b2a613761565b73ffffffffffffffffffffffffffffffffffffffff1660008054906101000a900473ffffffffffffffffffffffffffffffffffffffff1673ffffffffffffffffffffffffffffffffffffffff1614611bb7576040517f08c379a0000000000000000000000000000000000000000000000000000000008152600401611bae90614ca6565b60405180910390fd5b600060028281548110611bcd57611bcc614ae7565b5b906000526020600020906002020160010160006101000a81548160ff02191690831515021790555050565b600b5481565b60085481565b611c0c613761565b73ffffffffffffffffffffffffffffffffffffffff1660008054906101000a900473ffffffffffffffffffffffffffffffffffffffff1673ffffffffffffffffffffffffffffffffffffffff1614611c99576040517f08c379a0000000000000000000000000000000000000000000000000000000008152600401611c9090614ca6565b60405180910390fd5b600073ffffffffffffffffffffffffffffffffffffffff1660008054906101000a900473ffffffffffffffffffffffffffffffffffffffff1673ffffffffffffffffffffffffffffffffffffffff167f8be0079c531659141344cd1fd0a4f28419497f9722a3daafe3b4186f6b6457e060405160405180910390a360008060006101000a81548173ffffffffffffffffffffffffffffffffffffffff021916908373ffffffffffffffffffffffffffffffffffffffff160217905550565b600080600080600080600090505b600180549050811015611f4b57600060018281548110611d8857611d87614ae7565b5b90600052602060002090600a020190508773ffffffffffffffffffffffffffffffffffffffff168160010160009054906101000a900473ffffffffffffffffffffffffffffffffffffffff1673ffffffffffffffffffffffffffffffffffffffff1614611df55750611f38565b8680611e0090614d56565b97505060016006811115611e1757611e16614489565b5b8160050160009054906101000a900460ff166006811115611e3b57611e3a614489565b5b1415611e50578580611e4c90614d56565b9650505b60026006811115611e6457611e63614489565b5b8160050160009054906101000a900460ff166006811115611e8857611e87614489565b5b1415611e9d578480611e9990614d56565b9550505b60056006811115611eb157611eb0614489565b5b8160050160009054906101000a900460ff166006811115611ed557611ed4614489565b5b1415611eea578380611ee690614d56565b9450505b600680811115611efd57611efc614489565b5b8160050160009054906101000a900460ff166006811115611f2157611f20614489565b5b1415611f36578280611f3290614d56565b9350505b505b8080611f4390614d56565b915050611d65565b50828282611f599190614d9f565b611f639190614d9f565b84611f6e9190614d9f565b935091939590929450565b611f81613761565b73ffffffffffffffffffffffffffffffffffffffff1660008054906101000a900473ffffffffffffffffffffffffffffffffffffffff1673ffffffffffffffffffffffffffffffffffffffff161461200e576040517f08c379a000000000000000000000000000000000000000000000000000000000815260040161200590614ca6565b60405180910390fd5b8060098190555050565b60008060009054906101000a900473ffffffffffffffffffffffffffffffffffffffff16905090565b600460009054906101000a900473ffffffffffffffffffffffffffffffffffffffff1673ffffffffffffffffffffffffffffffffffffffff163373ffffffffffffffffffffffffffffffffffffffff16146120d1576040517f08c379a00000000000000000000000000000000000000000000000000000000081526004016120c8906151c3565b60405180910390fd5b80600460006101000a81548173ffffffffffffffffffffffffffffffffffffffff021916908373ffffffffffffffffffffffffffffffffffffffff16021790555050565b600560009054906101000a900473ffffffffffffffffffffffffffffffffffffffff1681565b612143613761565b73ffffffffffffffffffffffffffffffffffffffff1660008054906101000a900473ffffffffffffffffffffffffffffffffffffffff1673ffffffffffffffffffffffffffffffffffffffff16146121d0576040517f08c379a00000000000000000000000000000000000000000000000000000000081526004016121c790614ca6565b60405180910390fd5b8060078190555050565b6121e2613761565b73ffffffffffffffffffffffffffffffffffffffff1660008054906101000a900473ffffffffffffffffffffffffffffffffffffffff1673ffffffffffffffffffffffffffffffffffffffff161461226f576040517f08c379a000000000000000000000000000000000000000000000000000000000815260040161226690614ca6565b60405180910390fd5b8060088190555050565b6001818154811061228957600080fd5b90600052602060002090600a02016000915090508060000154908060010160009054906101000a900473ffffffffffffffffffffffffffffffffffffffff16908060020160009054906101000a900473ffffffffffffffffffffffffffffffffffffffff16908060030154908060040154908060050160009054906101000a900460ff16908060060154908060070160009054906101000a900473ffffffffffffffffffffffffffffffffffffffff1690806008015490806009015490508a565b606060008060018054905067ffffffffffffffff81111561236e5761236d6140ac565b5b6040519080825280602002602001820160405280156123a757816020015b612394613efa565b81526020019060019003908161238c5790505b50905060008c12156123bc576001805490509b505b600060018d6123cb91906151e3565b90505b60008112612849578b83106123e257612849565b6000600182815481106123f8576123f7614ae7565b5b90600052602060002090600a020190508515801561241a575042816004015411155b156124255750612836565b600073ffffffffffffffffffffffffffffffffffffffff168c73ffffffffffffffffffffffffffffffffffffffff16146124b7578b73ffffffffffffffffffffffffffffffffffffffff168160020160009054906101000a900473ffffffffffffffffffffffffffffffffffffffff1673ffffffffffffffffffffffffffffffffffffffff16146124b65750612836565b5b600073ffffffffffffffffffffffffffffffffffffffff168b73ffffffffffffffffffffffffffffffffffffffff1614612549578a73ffffffffffffffffffffffffffffffffffffffff168160010160009054906101000a900473ffffffffffffffffffffffffffffffffffffffff1673ffffffffffffffffffffffffffffffffffffffff16146125485750612836565b5b60008811156125655787816003015410156125645750612836565b5b60008711156125815786816003015411156125805750612836565b5b6000895111156125e9576000805b8a518110156125da578a81815181106125ab576125aa614ae7565b5b6020026020010151836006015414156125c757600191506125da565b80806125d290614d56565b91505061258f565b50806125e7575050612836565b505b60008a511115612682576000805b8b51811015612673578b818151811061261357612612614ae7565b5b6020026020010151600681111561262d5761262c614489565b5b8360050160009054906101000a900460ff16600681111561265157612650614489565b5b14156126605760019150612673565b808061266b90614d56565b9150506125f7565b5080612680575050612836565b505b8060405180610140016040529081600082015481526020016001820160009054906101000a900473ffffffffffffffffffffffffffffffffffffffff1673ffffffffffffffffffffffffffffffffffffffff1673ffffffffffffffffffffffffffffffffffffffff1681526020016002820160009054906101000a900473ffffffffffffffffffffffffffffffffffffffff1673ffffffffffffffffffffffffffffffffffffffff1673ffffffffffffffffffffffffffffffffffffffff16815260200160038201548152602001600482015481526020016005820160009054906101000a900460ff16600681111561277e5761277d614489565b5b60068111156127905761278f614489565b5b8152602001600682015481526020016007820160009054906101000a900473ffffffffffffffffffffffffffffffffffffffff1673ffffffffffffffffffffffffffffffffffffffff1673ffffffffffffffffffffffffffffffffffffffff1681526020016008820154815260200160098201548152505083858151811061281b5761281a614ae7565b5b6020026020010181905250838061283190614d56565b945050505b808061284190615277565b9150506123ce565b5060008267ffffffffffffffff811115612866576128656140ac565b5b60405190808252806020026020018201604052801561289f57816020015b61288c613efa565b8152602001906001900390816128845790505b50905060005b838110156128f9578281815181106128c0576128bf614ae7565b5b60200260200101518282815181106128db576128da614ae7565b5b602002602001018190525080806128f190614d56565b9150506128a5565b508093505050509998505050505050505050565b806001805490508110612955576040517f08c379a000000000000000000000000000000000000000000000000000000000815260040161294c90614ac7565b60405180910390fd5b816001818154811061296a57612969614ae7565b5b90600052602060002090600a020160020160009054906101000a900473ffffffffffffffffffffffffffffffffffffffff1673ffffffffffffffffffffffffffffffffffffffff163373ffffffffffffffffffffffffffffffffffffffff1614612a09576040517f08c379a0000000000000000000000000000000000000000000000000000000008152600401612a0090614e41565b60405180910390fd5b826001806006811115612a1f57612a1e614489565b5b60018381548110612a3357612a32614ae7565b5b90600052602060002090600a020160050160009054906101000a900460ff166006811115612a6457612a63614489565b5b14612aa4576040517f08c379a0000000000000000000000000000000000000000000000000000000008152600401612a9b90614bce565b60405180910390fd5b600060018681548110612aba57612ab9614ae7565b5b90600052602060002090600a0201905060028160050160006101000a81548160ff02191690836006811115612af257612af1614489565b5b02179055506000612b0287613527565b90506000612b0f88613b69565b90506000612b1c89613bc6565b90506000612b33828461376990919063ffffffff16565b90506000612b6083612b5287896009015461376990919063ffffffff16565b6135e190919063ffffffff16565b9050612bb58660070160009054906101000a900473ffffffffffffffffffffffffffffffffffffffff168760010160009054906101000a900473ffffffffffffffffffffffffffffffffffffffff168361362b565b600073ffffffffffffffffffffffffffffffffffffffff16600360009054906101000a900473ffffffffffffffffffffffffffffffffffffffff1673ffffffffffffffffffffffffffffffffffffffff1614612c5d57612c5c8660070160009054906101000a900473ffffffffffffffffffffffffffffffffffffffff16600360009054906101000a900473ffffffffffffffffffffffffffffffffffffffff168461362b565b5b3373ffffffffffffffffffffffffffffffffffffffff168b7f8c2e6d9f2c8d46890dd98cc58f96c0559f4e3dbd81777312fefca01fcf46ba9c60405160405180910390a35050505050505050505050565b600560009054906101000a900473ffffffffffffffffffffffffffffffffffffffff1673ffffffffffffffffffffffffffffffffffffffff1663b2dd5c07336040518263ffffffff1660e01b8152600401612d099190613fff565b602060405180830381865afa158015612d26573d6000803e3d6000fd5b505050506040513d601f19601f82011682018060405250810190612d4a9190614f9a565b612d89576040517f08c379a0000000000000000000000000000000000000000000000000000000008152600401612d8090615013565b60405180910390fd5b806001805490508110612dd1576040517f08c379a0000000000000000000000000000000000000000000000000000000008152600401612dc890614ac7565b60405180910390fd5b816000806006811115612de757612de6614489565b5b60018381548110612dfb57612dfa614ae7565b5b90600052602060002090600a020160050160009054906101000a900460ff166006811115612e2c57612e2b614489565b5b14612e6c576040517f08c379a0000000000000000000000000000000000000000000000000000000008152600401612e6390614bce565b60405180910390fd5b8360018181548110612e8157612e80614ae7565b5b90600052602060002090600a0201600401544210612ed4576040517f08c379a0000000000000000000000000000000000000000000000000000000008152600401612ecb90614c3a565b60405180910390fd5b600060018681548110612eea57612ee9614ae7565b5b90600052602060002090600a02019050338160020160006101000a81548173ffffffffffffffffffffffffffffffffffffffff021916908373ffffffffffffffffffffffffffffffffffffffff16021790555060018160050160006101000a81548160ff02191690836006811115612f6557612f64614489565b5b02179055506000612f7587613b69565b90506000612f9082846009015461376990919063ffffffff16565b9050612fc28360070160009054906101000a900473ffffffffffffffffffffffffffffffffffffffff16333084613a30565b3373ffffffffffffffffffffffffffffffffffffffff16887f9ead0d6f534d407e40234c6368c1c7a989d6b3fb557a5efd52f9ded5b505e78e60405160405180910390a35050505050505050565b613018613761565b73ffffffffffffffffffffffffffffffffffffffff1660008054906101000a900473ffffffffffffffffffffffffffffffffffffffff1673ffffffffffffffffffffffffffffffffffffffff16146130a5576040517f08c379a000000000000000000000000000000000000000000000000000000000815260040161309c90614ca6565b60405180910390fd5b80600560006101000a81548173ffffffffffffffffffffffffffffffffffffffff021916908373ffffffffffffffffffffffffffffffffffffffff16021790555050565b806001805490508110613131576040517f08c379a000000000000000000000000000000000000000000000000000000000815260040161312890614ac7565b60405180910390fd5b816001818154811061314657613145614ae7565b5b90600052602060002090600a020160010160009054906101000a900473ffffffffffffffffffffffffffffffffffffffff1673ffffffffffffffffffffffffffffffffffffffff163373ffffffffffffffffffffffffffffffffffffffff16146131e5576040517f08c379a00000000000000000000000000000000000000000000000000000000081526004016131dc90614b62565b60405180910390fd5b8260018060068111156131fb576131fa614489565b5b6001838154811061320f5761320e614ae7565b5b90600052602060002090600a020160050160009054906101000a900460ff1660068111156132405761323f614489565b5b14613280576040517f08c379a000000000000000000000000000000000000000000000000000000000815260040161327790614bce565b60405180910390fd5b84426132bc6006546001848154811061329c5761329b614ae7565b5b90600052602060002090600a02016003015461376990919063ffffffff16565b11156132fd576040517f08c379a00000000000000000000000000000000000000000000000000000000081526004016132f490614ed3565b60405180910390fd5b60006001878154811061331357613312614ae7565b5b90600052602060002090600a0201905060058160050160006101000a81548160ff0219169083600681111561334b5761334a614489565b5b0217905550613359876137c7565b3373ffffffffffffffffffffffffffffffffffffffff16877f419d68f7b2c9a95a72485fa94feb86c741736a2c3b0a01c27d3dbe3e371b456860405160405180910390a350505050505050565b60065481565b6133b4613761565b73ffffffffffffffffffffffffffffffffffffffff1660008054906101000a900473ffffffffffffffffffffffffffffffffffffffff1673ffffffffffffffffffffffffffffffffffffffff1614613441576040517f08c379a000000000000000000000000000000000000000000000000000000000815260040161343890614ca6565b60405180910390fd5b61344a81613c23565b50565b600460009054906101000a900473ffffffffffffffffffffffffffffffffffffffff1673ffffffffffffffffffffffffffffffffffffffff163373ffffffffffffffffffffffffffffffffffffffff16146134dd576040517f08c379a00000000000000000000000000000000000000000000000000000000081526004016134d4906151c3565b60405180910390fd5b80600360006101000a81548173ffffffffffffffffffffffffffffffffffffffff021916908373ffffffffffffffffffffffffffffffffffffffff16021790555050565b60075481565b6000806001838154811061353e5761353d614ae7565b5b90600052602060002090600a0201905061357c620186a061356e600754846009015461396b90919063ffffffff16565b6139e690919063ffffffff16565b915050919050565b6000806001838154811061359b5761359a614ae7565b5b90600052602060002090600a020190506135d9620186a06135cb600854846009015461396b90919063ffffffff16565b6139e690919063ffffffff16565b915050919050565b600061362383836040518060400160405280601e81526020017f536166654d6174683a207375627472616374696f6e206f766572666c6f770000815250613d50565b905092915050565b6000808473ffffffffffffffffffffffffffffffffffffffff1663a9059cbb858560405160240161365d9291906152c0565b6040516020818303038152906040529060e01b6020820180517bffffffffffffffffffffffffffffffffffffffffffffffffffffffff83818316178352505050506040516136ab9190615330565b6000604051808303816000865af19150503d80600081146136e8576040519150601f19603f3d011682016040523d82523d6000602084013e6136ed565b606091505b509150915081801561371b575060008151148061371a5750808060200190518101906137199190614f9a565b5b5b61375a576040517f08c379a000000000000000000000000000000000000000000000000000000000815260040161375190615393565b60405180910390fd5b5050505050565b600033905090565b60008082846137789190614d9f565b9050838110156137bd576040517f08c379a00000000000000000000000000000000000000000000000000000000081526004016137b4906153ff565b60405180910390fd5b8091505092915050565b6000600182815481106137dd576137dc614ae7565b5b90600052602060002090600a0201905060006137f883613527565b9050600061380584613b69565b9050600061381285613db4565b9050600061382982856135e190919063ffffffff16565b905060006138568361384888600901548761376990919063ffffffff16565b6135e190919063ffffffff16565b90506138bc8660070160009054906101000a900473ffffffffffffffffffffffffffffffffffffffff16600360009054906101000a900473ffffffffffffffffffffffffffffffffffffffff166138b760028761396b90919063ffffffff16565b61362b565b61390f8660070160009054906101000a900473ffffffffffffffffffffffffffffffffffffffff168760010160009054906101000a900473ffffffffffffffffffffffffffffffffffffffff168461362b565b6139628660070160009054906101000a900473ffffffffffffffffffffffffffffffffffffffff168760020160009054906101000a900473ffffffffffffffffffffffffffffffffffffffff168361362b565b50505050505050565b60008083141561397e57600090506139e0565b6000828461398c919061541f565b905082848261399b91906154a8565b146139db576040517f08c379a00000000000000000000000000000000000000000000000000000000081526004016139d29061554b565b60405180910390fd5b809150505b92915050565b6000613a2883836040518060400160405280601a81526020017f536166654d6174683a206469766973696f6e206279207a65726f000000000000815250613e11565b905092915050565b6000808573ffffffffffffffffffffffffffffffffffffffff166323b872dd868686604051602401613a649392919061556b565b6040516020818303038152906040529060e01b6020820180517bffffffffffffffffffffffffffffffffffffffffffffffffffffffff8381831617835250505050604051613ab29190615330565b6000604051808303816000865af19150503d8060008114613aef576040519150601f19603f3d011682016040523d82523d6000602084013e613af4565b606091505b5091509150818015613b225750600081511480613b21575080806020019051810190613b209190614f9a565b5b5b613b61576040517f08c379a0000000000000000000000000000000000000000000000000000000008152600401613b5890615614565b60405180910390fd5b505050505050565b60008060018381548110613b8057613b7f614ae7565b5b90600052602060002090600a02019050613bbe620186a0613bb0600a54846009015461396b90919063ffffffff16565b6139e690919063ffffffff16565b915050919050565b60008060018381548110613bdd57613bdc614ae7565b5b90600052602060002090600a02019050613c1b620186a0613c0d600954846009015461396b90919063ffffffff16565b6139e690919063ffffffff16565b915050919050565b600073ffffffffffffffffffffffffffffffffffffffff168173ffffffffffffffffffffffffffffffffffffffff161415613c93576040517f08c379a0000000000000000000000000000000000000000000000000000000008152600401613c8a906156a6565b60405180910390fd5b8073ffffffffffffffffffffffffffffffffffffffff1660008054906101000a900473ffffffffffffffffffffffffffffffffffffffff1673ffffffffffffffffffffffffffffffffffffffff167f8be0079c531659141344cd1fd0a4f28419497f9722a3daafe3b4186f6b6457e060405160405180910390a3806000806101000a81548173ffffffffffffffffffffffffffffffffffffffff021916908373ffffffffffffffffffffffffffffffffffffffff16021790555050565b6000838311158290613d98576040517f08c379a0000000000000000000000000000000000000000000000000000000008152600401613d8f91906156c6565b60405180910390fd5b5060008385613da791906156e8565b9050809150509392505050565b60008060018381548110613dcb57613dca614ae7565b5b90600052602060002090600a02019050613e09620186a0613dfb600b54846009015461396b90919063ffffffff16565b6139e690919063ffffffff16565b915050919050565b60008083118290613e58576040517f08c379a0000000000000000000000000000000000000000000000000000000008152600401613e4f91906156c6565b60405180910390fd5b5060008385613e6791906154a8565b9050809150509392505050565b828054613e8090614cf5565b90600052602060002090601f016020900481019282613ea25760008555613ee9565b82601f10613ebb57805160ff1916838001178555613ee9565b82800160010185558215613ee9579182015b82811115613ee8578251825591602001919060010190613ecd565b5b509050613ef69190613fa1565b5090565b60405180610140016040528060008152602001600073ffffffffffffffffffffffffffffffffffffffff168152602001600073ffffffffffffffffffffffffffffffffffffffff168152602001600081526020016000815260200160006006811115613f6957613f68614489565b5b815260200160008152602001600073ffffffffffffffffffffffffffffffffffffffff16815260200160008152602001600081525090565b5b80821115613fba576000816000905550600101613fa2565b5090565b600073ffffffffffffffffffffffffffffffffffffffff82169050919050565b6000613fe982613fbe565b9050919050565b613ff981613fde565b82525050565b60006020820190506140146000830184613ff0565b92915050565b6000604051905090565b600080fd5b600080fd5b6000819050919050565b6140418161402e565b811461404c57600080fd5b50565b60008135905061405e81614038565b92915050565b60006020828403121561407a57614079614024565b5b60006140888482850161404f565b91505092915050565b600080fd5b600080fd5b6000601f19601f8301169050919050565b7f4e487b7100000000000000000000000000000000000000000000000000000000600052604160045260246000fd5b6140e48261409b565b810181811067ffffffffffffffff82111715614103576141026140ac565b5b80604052505050565b600061411661401a565b905061412282826140db565b919050565b600067ffffffffffffffff821115614142576141416140ac565b5b61414b8261409b565b9050602081019050919050565b82818337600083830152505050565b600061417a61417584614127565b61410c565b90508281526020810184848401111561419657614195614096565b5b6141a1848285614158565b509392505050565b600082601f8301126141be576141bd614091565b5b81356141ce848260208601614167565b91505092915050565b6000602082840312156141ed576141ec614024565b5b600082013567ffffffffffffffff81111561420b5761420a614029565b5b614217848285016141a9565b91505092915050565b600081519050919050565b600082825260208201905092915050565b60005b8381101561425a57808201518184015260208101905061423f565b83811115614269576000848401525b50505050565b600061427a82614220565b614284818561422b565b935061429481856020860161423c565b61429d8161409b565b840191505092915050565b60008115159050919050565b6142bd816142a8565b82525050565b600060408201905081810360008301526142dd818561426f565b90506142ec60208301846142b4565b9392505050565b6142fc81613fde565b811461430757600080fd5b50565b600081359050614319816142f3565b92915050565b60006020828403121561433557614334614024565b5b60006143438482850161430a565b91505092915050565b6143558161402e565b82525050565b6000608082019050614370600083018761434c565b61437d602083018661434c565b61438a604083018561434c565b614397606083018461434c565b95945050505050565b60006020820190506143b5600083018461434c565b92915050565b600080600080600060a086880312156143d7576143d6614024565b5b60006143e58882890161404f565b95505060206143f68882890161404f565b94505060406144078882890161430a565b93505060606144188882890161404f565b92505060806144298882890161404f565b9150509295509295909350565b600060a08201905061444b600083018861434c565b614458602083018761434c565b614465604083018661434c565b614472606083018561434c565b61447f608083018461434c565b9695505050505050565b7f4e487b7100000000000000000000000000000000000000000000000000000000600052602160045260246000fd5b600781106144c9576144c8614489565b5b50565b60008190506144da826144b8565b919050565b60006144ea826144cc565b9050919050565b6144fa816144df565b82525050565b600061014082019050614516600083018d61434c565b614523602083018c613ff0565b614530604083018b613ff0565b61453d606083018a61434c565b61454a608083018961434c565b61455760a08301886144f1565b61456460c083018761434c565b61457160e0830186613ff0565b61457f61010083018561434c565b61458d61012083018461434c565b9b9a5050505050505050505050565b6000819050919050565b6145af8161459c565b81146145ba57600080fd5b50565b6000813590506145cc816145a6565b92915050565b600067ffffffffffffffff8211156145ed576145ec6140ac565b5b602082029050602081019050919050565b600080fd5b6007811061461057600080fd5b50565b60008135905061462281614603565b92915050565b600061463b614636846145d2565b61410c565b9050808382526020820190506020840283018581111561465e5761465d6145fe565b5b835b8181101561468757806146738882614613565b845260208401935050602081019050614660565b5050509392505050565b600082601f8301126146a6576146a5614091565b5b81356146b6848260208601614628565b91505092915050565b600067ffffffffffffffff8211156146da576146d96140ac565b5b602082029050602081019050919050565b60006146fe6146f9846146bf565b61410c565b90508083825260208201905060208402830185811115614721576147206145fe565b5b835b8181101561474a5780614736888261404f565b845260208401935050602081019050614723565b5050509392505050565b600082601f83011261476957614768614091565b5b81356147798482602086016146eb565b91505092915050565b61478b816142a8565b811461479657600080fd5b50565b6000813590506147a881614782565b92915050565b60008060008060008060008060006101208a8c0312156147d1576147d0614024565b5b60006147df8c828d016145bd565b99505060206147f08c828d0161404f565b98505060406148018c828d0161430a565b97505060606148128c828d0161430a565b96505060808a013567ffffffffffffffff81111561483357614832614029565b5b61483f8c828d01614691565b95505060a08a013567ffffffffffffffff8111156148605761485f614029565b5b61486c8c828d01614754565b94505060c061487d8c828d0161404f565b93505060e061488e8c828d0161404f565b9250506101006148a08c828d01614799565b9150509295985092959850929598565b600081519050919050565b600082825260208201905092915050565b6000819050602082019050919050565b6148e58161402e565b82525050565b6148f481613fde565b82525050565b614903816144df565b82525050565b6101408201600082015161492060008501826148dc565b50602082015161493360208501826148eb565b50604082015161494660408501826148eb565b50606082015161495960608501826148dc565b50608082015161496c60808501826148dc565b5060a082015161497f60a08501826148fa565b5060c082015161499260c08501826148dc565b5060e08201516149a560e08501826148eb565b506101008201516149ba6101008501826148dc565b506101208201516149cf6101208501826148dc565b50505050565b60006149e18383614909565b6101408301905092915050565b6000602082019050919050565b6000614a06826148b0565b614a1081856148bb565b9350614a1b836148cc565b8060005b83811015614a4c578151614a3388826149d5565b9750614a3e836149ee565b925050600181019050614a1f565b5085935050505092915050565b60006020820190508181036000830152614a7381846149fb565b905092915050565b7f42415a4141523a20494e56414c49445f4f524445520000000000000000000000600082015250565b6000614ab160158361422b565b9150614abc82614a7b565b602082019050919050565b60006020820190508181036000830152614ae081614aa4565b9050919050565b7f4e487b7100000000000000000000000000000000000000000000000000000000600052603260045260246000fd5b7f42415a4141523a204f4e4c595f53454c4c455200000000000000000000000000600082015250565b6000614b4c60138361422b565b9150614b5782614b16565b602082019050919050565b60006020820190508181036000830152614b7b81614b3f565b9050919050565b7f42415a4141523a20494e56414c49445f4f524445525f53544154450000000000600082015250565b6000614bb8601b8361422b565b9150614bc382614b82565b602082019050919050565b60006020820190508181036000830152614be781614bab565b9050919050565b7f42415a4141523a204f524445525f444541444c494e455f455843454544454400600082015250565b6000614c24601f8361422b565b9150614c2f82614bee565b602082019050919050565b60006020820190508181036000830152614c5381614c17565b9050919050565b7f4f776e61626c653a2063616c6c6572206973206e6f7420746865206f776e6572600082015250565b6000614c9060208361422b565b9150614c9b82614c5a565b602082019050919050565b60006020820190508181036000830152614cbf81614c83565b9050919050565b7f4e487b7100000000000000000000000000000000000000000000000000000000600052602260045260246000fd5b60006002820490506001821680614d0d57607f821691505b60208210811415614d2157614d20614cc6565b5b50919050565b7f4e487b7100000000000000000000000000000000000000000000000000000000600052601160045260246000fd5b6000614d618261402e565b91507fffffffffffffffffffffffffffffffffffffffffffffffffffffffffffffffff821415614d9457614d93614d27565b5b600182019050919050565b6000614daa8261402e565b9150614db58361402e565b9250827fffffffffffffffffffffffffffffffffffffffffffffffffffffffffffffffff03821115614dea57614de9614d27565b5b828201905092915050565b7f42415a4141523a204f4e4c595f42555945520000000000000000000000000000600082015250565b6000614e2b60128361422b565b9150614e3682614df5565b602082019050919050565b60006020820190508181036000830152614e5a81614e1e565b9050919050565b7f42415a4141523a204f524445525f4d41585f44454c49564552595f4e4f545f4560008201527f5843454544454400000000000000000000000000000000000000000000000000602082015250565b6000614ebd60278361422b565b9150614ec882614e61565b604082019050919050565b60006020820190508181036000830152614eec81614eb0565b9050919050565b7f42415a4141523a204f524445525f444541444c494e455f4e4f545f455843454560008201527f4445440000000000000000000000000000000000000000000000000000000000602082015250565b6000614f4f60238361422b565b9150614f5a82614ef3565b604082019050919050565b60006020820190508181036000830152614f7e81614f42565b9050919050565b600081519050614f9481614782565b92915050565b600060208284031215614fb057614faf614024565b5b6000614fbe84828501614f85565b91505092915050565b7f42415a4141523a204e4f545f5245474953544552454400000000000000000000600082015250565b6000614ffd60168361422b565b915061500882614fc7565b602082019050919050565b6000602082019050818103600083015261502c81614ff0565b9050919050565b7f42415a4141523a20494e56414c49445f534f555243455f415353455400000000600082015250565b6000615069601c8361422b565b915061507482615033565b602082019050919050565b600060208201905081810360008301526150988161505c565b9050919050565b7f42415a4141523a20494e56414c49445f534f555243455f414d4f554e54000000600082015250565b60006150d5601d8361422b565b91506150e08261509f565b602082019050919050565b60006020820190508181036000830152615104816150c8565b9050919050565b7f42415a4141523a20494e56414c49445f5441524745545f414d4f554e54000000600082015250565b6000615141601d8361422b565b915061514c8261510b565b602082019050919050565b6000602082019050818103600083015261517081615134565b9050919050565b7f42415a4141523a20464f5242494444454e000000000000000000000000000000600082015250565b60006151ad60118361422b565b91506151b882615177565b602082019050919050565b600060208201905081810360008301526151dc816151a0565b9050919050565b60006151ee8261459c565b91506151f98361459c565b9250827f80000000000000000000000000000000000000000000000000000000000000000182126000841215161561523457615233614d27565b5b827f7fffffffffffffffffffffffffffffffffffffffffffffffffffffffffffffff01821360008412161561526c5761526b614d27565b5b828203905092915050565b60006152828261459c565b91507f80000000000000000000000000000000000000000000000000000000000000008214156152b5576152b4614d27565b5b600182039050919050565b60006040820190506152d56000830185613ff0565b6152e2602083018461434c565b9392505050565b600081519050919050565b600081905092915050565b600061530a826152e9565b61531481856152f4565b935061532481856020860161423c565b80840191505092915050565b600061533c82846152ff565b915081905092915050565b7f5472616e7366657248656c7065723a205452414e534645525f4641494c454400600082015250565b600061537d601f8361422b565b915061538882615347565b602082019050919050565b600060208201905081810360008301526153ac81615370565b9050919050565b7f536166654d6174683a206164646974696f6e206f766572666c6f770000000000600082015250565b60006153e9601b8361422b565b91506153f4826153b3565b602082019050919050565b60006020820190508181036000830152615418816153dc565b9050919050565b600061542a8261402e565b91506154358361402e565b9250817fffffffffffffffffffffffffffffffffffffffffffffffffffffffffffffffff048311821515161561546e5761546d614d27565b5b828202905092915050565b7f4e487b7100000000000000000000000000000000000000000000000000000000600052601260045260246000fd5b60006154b38261402e565b91506154be8361402e565b9250826154ce576154cd615479565b5b828204905092915050565b7f536166654d6174683a206d756c7469706c69636174696f6e206f766572666c6f60008201527f7700000000000000000000000000000000000000000000000000000000000000602082015250565b600061553560218361422b565b9150615540826154d9565b604082019050919050565b6000602082019050818103600083015261556481615528565b9050919050565b60006060820190506155806000830186613ff0565b61558d6020830185613ff0565b61559a604083018461434c565b949350505050565b7f5472616e7366657248656c7065723a205452414e534645525f46524f4d5f464160008201527f494c454400000000000000000000000000000000000000000000000000000000602082015250565b60006155fe60248361422b565b9150615609826155a2565b604082019050919050565b6000602082019050818103600083015261562d816155f1565b9050919050565b7f4f776e61626c653a206e6577206f776e657220697320746865207a65726f206160008201527f6464726573730000000000000000000000000000000000000000000000000000602082015250565b600061569060268361422b565b915061569b82615634565b604082019050919050565b600060208201905081810360008301526156bf81615683565b9050919050565b600060208201905081810360008301526156e0818461426f565b905092915050565b60006156f38261402e565b91506156fe8361402e565b92508282101561571157615710614d27565b5b82820390509291505056fea2646970667358221220f0cd305bfec39c23908c53cbfd8438f08c196ea45257612b4d43798240d972f364736f6c634300080b0033",
  "immutableReferences": {},
  "source": "// SPDX-License-Identifier: MIT\npragma solidity ^0.8.11;\n\nimport \"./libraries/Ownable.sol\";\nimport \"./interfaces/IERC20.sol\";\nimport \"./interfaces/IProfile.sol\";\nimport \"./libraries/SafeMath.sol\";\nimport \"./libraries/TransferHelper.sol\";\n\ncontract Bazaar is Ownable {\n    using SafeMath for uint256;\n\n    event OrderPlaced(uint256 indexed orderIdx, address indexed seller);\n    event OrderClosed(uint256 indexed orderIdx, address indexed seller);\n    event OrderCancelledBuySeller(\n        uint256 indexed orderIdx,\n        address indexed seller\n    );\n    event OrderCancelledBuyBuyer(\n        uint256 indexed orderIdx,\n        address indexed buyer\n    );\n    event OrderWithdrew(uint256 indexed orderIdx, address indexed seller);\n    event OrderSold(uint256 indexed orderIdx, address indexed buyer);\n    event DeliveryApproved(uint256 indexed orderIdx, address indexed buyer);\n\n    enum OrderState {\n        Placed,\n        Sold,\n        Finished,\n        Closed,\n        Withdrew,\n        CancelledBySeller,\n        CancelledByBuyer\n    }\n\n    struct SourceAsset {\n        string symbol;\n        bool deleted;\n    }\n\n    struct Order {\n        uint256 id;\n        address seller;\n        address buyer;\n        uint256 createdAt;\n        uint256 deadline; // timestamp of order deadline\n        OrderState state;\n        uint256 sourceAsset; // index of source asset\n        address targetAsset;\n        uint256 sourceAmount;\n        uint256 targetAmount;\n    }\n\n    Order[] public orders;\n    SourceAsset[] public allowedSourceAssets;\n\n    address public feeTo;\n    address public feeToSetter;\n    address public profileContract;\n\n    uint256 public maxDeliveryTime; // maximum delivery time in seconds\n    uint256 public guaranteePercent; // seller guarantee amount by fraction of 1000\n    uint256 public closeFee; // close fee by fraction of 1000\n    uint256 public sellFee; // sell fee by fraction of 1000\n    uint256 public buyFee; // buy fee by fraction of 1000\n    uint256 public cancellationFee; // cancellation fee by fraction of 1000\n\n    modifier onlyProfileHolders() {\n        require(\n            IProfile(profileContract).registered(msg.sender),\n            \"BAZAAR: NOT_REGISTERED\"\n        );\n        _;\n    }\n\n    modifier onlySeller(uint256 _orderIdx) {\n        require(msg.sender == orders[_orderIdx].seller, \"BAZAAR: ONLY_SELLER\");\n        _;\n    }\n\n    modifier onlyBuyer(uint256 _orderIdx) {\n        require(msg.sender == orders[_orderIdx].buyer, \"BAZAAR: ONLY_BUYER\");\n        _;\n    }\n\n    modifier validSourceAsset(uint256 _idx) {\n        require(\n            (_idx < allowedSourceAssets.length) &&\n                !allowedSourceAssets[_idx].deleted,\n            \"BAZAAR: INVALID_SOURCE_ASSET\"\n        );\n        _;\n    }\n\n    modifier validOrder(uint256 _idx) {\n        require(_idx < orders.length, \"BAZAAR: INVALID_ORDER\");\n        _;\n    }\n\n    modifier inState(uint256 _orderIdx, OrderState state) {\n        require(\n            orders[_orderIdx].state == state,\n            \"BAZAAR: INVALID_ORDER_STATE\"\n        );\n        _;\n    }\n\n    modifier notExpired(uint256 _orderIdx) {\n        require(\n            block.timestamp < orders[_orderIdx].deadline,\n            \"BAZAAR: ORDER_DEADLINE_EXCEEDED\"\n        );\n        _;\n    }\n\n    modifier expired(uint256 _orderIdx) {\n        require(\n            block.timestamp >= orders[_orderIdx].deadline,\n            \"BAZAAR: ORDER_DEADLINE_NOT_EXCEEDED\"\n        );\n        _;\n    }\n\n    modifier cancellable(uint256 _orderIdx) {\n        require(\n            (orders[_orderIdx].createdAt.add(maxDeliveryTime)) <=\n                block.timestamp,\n            \"BAZAAR: ORDER_MAX_DELIVERY_NOT_EXCEEDED\"\n        );\n        _;\n    }\n\n    constructor(address _profileContract) {\n        profileContract = _profileContract;\n        allowedSourceAssets.push(SourceAsset(\"GOLD_OUNCE\", false));\n        allowedSourceAssets.push(SourceAsset(\"SILVER_OUNCE\", false));\n        allowedSourceAssets.push(SourceAsset(\"CARAT_GOLD_18\", false));\n        allowedSourceAssets.push(SourceAsset(\"CARAT_GOLD_24\", false));\n        allowedSourceAssets.push(SourceAsset(\"GOLD_MESGHAL\", false));\n        allowedSourceAssets.push(SourceAsset(\"GOLD_MELTED_CASH\", false));\n        allowedSourceAssets.push(SourceAsset(\"MELTED_BANKING_GOLD\", false));\n        allowedSourceAssets.push(SourceAsset(\"MELTED_GOLD\", false));\n        allowedSourceAssets.push(SourceAsset(\"GOLD_COIN_CASH\", false));\n        allowedSourceAssets.push(SourceAsset(\"GOLD_COIN\", false));\n        allowedSourceAssets.push(SourceAsset(\"USD\", false));\n        allowedSourceAssets.push(SourceAsset(\"MANAT\", false));\n        allowedSourceAssets.push(SourceAsset(\"DIRHAM\", false));\n        allowedSourceAssets.push(SourceAsset(\"DINAR_IRAQI\", false));\n        allowedSourceAssets.push(SourceAsset(\"TURKISH_LIRA\", false));\n        allowedSourceAssets.push(SourceAsset(\"POLYSTYRENE\", false));\n        allowedSourceAssets.push(SourceAsset(\"BITUMEN\", false));\n        allowedSourceAssets.push(SourceAsset(\"BASE_OIL\", false));\n        allowedSourceAssets.push(SourceAsset(\"POLYPROPYLENE\", false));\n        allowedSourceAssets.push(SourceAsset(\"HDPE\", false));\n        allowedSourceAssets.push(SourceAsset(\"LDPE\", false));\n        allowedSourceAssets.push(SourceAsset(\"NITRIC_ACID\", false));\n        allowedSourceAssets.push(SourceAsset(\"SODIUM_HYDROXIDE\", false));\n        allowedSourceAssets.push(SourceAsset(\"UREA\", false));\n        allowedSourceAssets.push(SourceAsset(\"SODIUM_CARBONATE\", false));\n        allowedSourceAssets.push(SourceAsset(\"SODIUM_SULFATE\", false));\n        allowedSourceAssets.push(SourceAsset(\"PARAFFIN_WAX\", false));\n        allowedSourceAssets.push(SourceAsset(\"EPOXY_RESIN\", false));\n        allowedSourceAssets.push(SourceAsset(\"STYRENE\", false));\n        allowedSourceAssets.push(SourceAsset(\"STEEL\", false));\n        allowedSourceAssets.push(SourceAsset(\"IRON_ORE\", false));\n        allowedSourceAssets.push(SourceAsset(\"CONCENTRATE\", false));\n        allowedSourceAssets.push(SourceAsset(\"IRON_PELLET\", false));\n        allowedSourceAssets.push(SourceAsset(\"COPPER\", false));\n        allowedSourceAssets.push(SourceAsset(\"ZINC\", false));\n        allowedSourceAssets.push(SourceAsset(\"ALUMINIUM\", false));\n\n        guaranteePercent = 3_500; // 3.5% of sale price\n        closeFee = 10; // 0.01% of sale price\n        sellFee = 250; // 0.25% of sale price\n        buyFee = 250; // 0.25% of sale price\n        cancellationFee = 2_000; // 2% of sale price\n        feeToSetter = msg.sender;\n        feeTo = msg.sender;\n        maxDeliveryTime = 8 hours;\n    }\n\n    /**\n     * @dev calculate guarantee amount\n     */\n    function calcGuarantee(uint256 _orderIdx) internal view returns (uint256) {\n        Order storage order = orders[_orderIdx];\n\n        return order.targetAmount.mul(guaranteePercent).div(100_000);\n    }\n\n    /**\n     * @dev calculate sell fee\n     */\n    function calcSellFee(uint256 _orderIdx) internal view returns (uint256) {\n        Order storage order = orders[_orderIdx];\n\n        return order.targetAmount.mul(sellFee).div(100_000);\n    }\n\n    /**\n     * @dev calculate buy fee\n     */\n    function calcBuyFee(uint256 _orderIdx) internal view returns (uint256) {\n        Order storage order = orders[_orderIdx];\n\n        return order.targetAmount.mul(buyFee).div(100_000);\n    }\n\n    /**\n     * @dev calculate close fee\n     */\n    function calcCloseFee(uint256 _orderIdx) internal view returns (uint256) {\n        Order storage order = orders[_orderIdx];\n\n        return order.targetAmount.mul(closeFee).div(100_000);\n    }\n\n    /**\n     * @dev calculate cancellation fee\n     */\n    function calcCancellationFee(uint256 _orderIdx)\n        internal\n        view\n        returns (uint256)\n    {\n        Order storage order = orders[_orderIdx];\n\n        return order.targetAmount.mul(cancellationFee).div(100_000);\n    }\n\n    /**\n     * @dev set fee to account\n     */\n    function setFeeTo(address _feeTo) external {\n        require(msg.sender == feeToSetter, \"BAZAAR: FORBIDDEN\");\n        feeTo = _feeTo;\n    }\n\n    /**\n     * @dev set fee to setter account\n     */\n    function setFeeToSetter(address _feeToSetter) external {\n        require(msg.sender == feeToSetter, \"BAZAAR: FORBIDDEN\");\n        feeToSetter = _feeToSetter;\n    }\n\n    /**\n     * @dev set guarantee percent\n     */\n    function setGuaranteePercent(uint256 _value) public onlyOwner {\n        guaranteePercent = _value;\n    }\n\n    /**\n     * @dev set close fee\n     */\n    function setCloseFee(uint256 _value) public onlyOwner {\n        closeFee = _value;\n    }\n\n    /**\n     * @dev set sell fee\n     */\n    function setSellFee(uint256 _value) public onlyOwner {\n        sellFee = _value;\n    }\n\n    /**\n     * @dev set buy fee\n     */\n    function setBuyFee(uint256 _value) public onlyOwner {\n        buyFee = _value;\n    }\n\n    /**\n     * @dev set cancellation fee\n     */\n    function setCancellationFee(uint256 _value) public onlyOwner {\n        cancellationFee = _value;\n    }\n\n    /**\n     * @dev change profile contract address\n     */\n    function setProfile(address addr) public onlyOwner {\n        profileContract = addr;\n    }\n\n    /**\n     * @dev add new allowed source asset\n     */\n    function addAllowedSourceAsset(string memory _symbol) public onlyOwner {\n        allowedSourceAssets.push(SourceAsset(_symbol, false));\n    }\n\n    /**\n     * @dev disable allowed source asset\n     */\n    function disableAllowedSourceAsset(uint256 _idx) public onlyOwner {\n        allowedSourceAssets[_idx].deleted = true;\n    }\n\n    /**\n     * @dev enable allowed source asset\n     */\n    function enableAllowedSourceAsset(uint256 _idx) public onlyOwner {\n        allowedSourceAssets[_idx].deleted = false;\n    }\n\n    /**\n     * @dev create a new order\n     */\n    function placeOrder(\n        uint256 sourceAsset,\n        uint256 sourceAmount,\n        address targetAsset,\n        uint256 targetAmount,\n        uint256 timeout\n    )\n        public\n        onlyProfileHolders\n        validSourceAsset(sourceAsset)\n        returns (uint256)\n    {\n        require(sourceAmount > 0, \"BAZAAR: INVALID_SOURCE_AMOUNT\");\n        require(targetAmount > 0, \"BAZAAR: INVALID_TARGET_AMOUNT\");\n\n        Order memory order;\n        order.id = orders.length;\n        order.seller = msg.sender;\n        order.deadline = block.timestamp + timeout;\n        order.createdAt = block.timestamp;\n        order.sourceAsset = sourceAsset;\n        order.sourceAmount = sourceAmount;\n        order.targetAsset = targetAsset;\n        order.targetAmount = targetAmount;\n        order.state = OrderState.Placed;\n\n        orders.push(order);\n\n        // ((targetAmount * guaranteePercent) / 1000) / 100\n        uint256 _guaranteeAmount = targetAmount.mul(guaranteePercent).div(\n            100_000\n        );\n\n        TransferHelper.safeTransferFrom(\n            order.targetAsset,\n            msg.sender,\n            address(this),\n            _guaranteeAmount\n        );\n\n        emit OrderPlaced(order.id, order.seller);\n\n        return order.id;\n    }\n\n    /**\n     * @dev seller closes an order before its get expired\n     */\n    function close(uint256 _orderIdx)\n        public\n        validOrder(_orderIdx)\n        onlySeller(_orderIdx)\n        inState(_orderIdx, OrderState.Placed)\n        notExpired(_orderIdx)\n    {\n        Order storage order = orders[_orderIdx];\n\n        order.state = OrderState.Closed;\n\n        uint256 _guaranteeAmount = calcGuarantee(_orderIdx);\n        uint256 _closeFee = calcCloseFee(_orderIdx);\n\n        uint256 _toReturn = _guaranteeAmount.sub(_closeFee);\n\n        // transfer close fee\n        TransferHelper.safeTransfer(order.targetAsset, feeTo, _closeFee);\n\n        // return rest of guarantee deposit\n        TransferHelper.safeTransfer(order.targetAsset, order.seller, _toReturn);\n\n        emit OrderClosed(_orderIdx, msg.sender);\n    }\n\n    /**\n     * @dev withdraw guarantee amount for expired orders\n     */\n    function withdraw(uint256 _orderIdx)\n        public\n        validOrder(_orderIdx)\n        onlySeller(_orderIdx)\n        inState(_orderIdx, OrderState.Placed)\n        expired(_orderIdx)\n    {\n        Order storage order = orders[_orderIdx];\n\n        order.state = OrderState.Withdrew;\n\n        uint256 _guaranteeAmount = calcGuarantee(_orderIdx);\n\n        TransferHelper.safeTransfer(\n            order.targetAsset,\n            order.seller,\n            _guaranteeAmount\n        );\n\n        emit OrderWithdrew(_orderIdx, msg.sender);\n    }\n\n    /**\n     * @dev buy an asset\n     */\n    function buy(uint256 _orderIdx)\n        public\n        onlyProfileHolders\n        validOrder(_orderIdx)\n        inState(_orderIdx, OrderState.Placed)\n        notExpired(_orderIdx)\n    {\n        Order storage order = orders[_orderIdx];\n        order.buyer = msg.sender;\n        order.state = OrderState.Sold;\n\n        uint256 _buyFee = calcBuyFee(_orderIdx);\n\n        uint256 _totalDepo = order.targetAmount.add(_buyFee);\n\n        TransferHelper.safeTransferFrom(\n            order.targetAsset,\n            msg.sender,\n            address(this),\n            _totalDepo\n        );\n\n        emit OrderSold(_orderIdx, msg.sender);\n    }\n\n    /**\n     * @dev buyer approves that recieved asset\n     */\n    function approveDelivery(uint256 _orderIdx)\n        public\n        validOrder(_orderIdx)\n        onlyBuyer(_orderIdx)\n        inState(_orderIdx, OrderState.Sold)\n    {\n        Order storage order = orders[_orderIdx];\n        order.state = OrderState.Finished;\n\n        uint256 _guaranteeAmount = calcGuarantee(_orderIdx);\n        uint256 _buyFee = calcBuyFee(_orderIdx);\n        uint256 _sellFee = calcSellFee(_orderIdx);\n\n        uint256 _totalFee = _buyFee.add(_sellFee);\n\n        uint256 _transferAmount = order.targetAmount.add(_guaranteeAmount).sub(\n            _sellFee\n        );\n\n        TransferHelper.safeTransfer(\n            order.targetAsset,\n            order.seller,\n            _transferAmount\n        );\n\n        if (feeTo != address(0)) {\n            TransferHelper.safeTransfer(order.targetAsset, feeTo, _totalFee);\n        }\n\n        emit DeliveryApproved(_orderIdx, msg.sender);\n    }\n\n    /**\n     * @dev cancel an order and return funds\n     */\n    function _cancelOrder(uint256 _orderIdx) internal {\n        Order storage order = orders[_orderIdx];\n\n        uint256 _guaranteeAmount = calcGuarantee(_orderIdx);\n        uint256 _buyFee = calcBuyFee(_orderIdx);\n        uint256 _cancellationFee = calcCancellationFee(_orderIdx);\n\n        uint256 _toReturnSeller = _guaranteeAmount.sub(_cancellationFee);\n        uint256 _toReturnBuyer = _buyFee.add(order.targetAmount).sub(\n            _cancellationFee\n        );\n\n        // transfer cancellation fee(2 * cancelaltion fee, for seller and buyer)\n        TransferHelper.safeTransfer(\n            order.targetAsset,\n            feeTo,\n            _cancellationFee.mul(2)\n        );\n\n        // return rest of guarantee deposit\n        TransferHelper.safeTransfer(\n            order.targetAsset,\n            order.seller,\n            _toReturnSeller\n        );\n\n        // return rest of buyer deposit\n        TransferHelper.safeTransfer(\n            order.targetAsset,\n            order.buyer,\n            _toReturnBuyer\n        );\n    }\n\n    /**\n     * @dev seller cancels an order after sold\n     */\n    function cancelForSeller(uint256 _orderIdx)\n        public\n        validOrder(_orderIdx)\n        onlySeller(_orderIdx)\n        inState(_orderIdx, OrderState.Sold)\n        cancellable(_orderIdx)\n    {\n        Order storage order = orders[_orderIdx];\n\n        order.state = OrderState.CancelledBySeller;\n\n        _cancelOrder(_orderIdx);\n\n        emit OrderCancelledBuySeller(_orderIdx, msg.sender);\n    }\n\n    /**\n     * @dev buyer cancels an order after bought\n     */\n    function cancelForBuyer(uint256 _orderIdx)\n        public\n        validOrder(_orderIdx)\n        onlyBuyer(_orderIdx)\n        inState(_orderIdx, OrderState.Sold)\n        cancellable(_orderIdx)\n    {\n        Order storage order = orders[_orderIdx];\n\n        order.state = OrderState.CancelledByBuyer;\n\n        _cancelOrder(_orderIdx);\n\n        emit OrderCancelledBuyBuyer(_orderIdx, msg.sender);\n    }\n\n    /**\n     * @dev filters orders by give filters\n     */\n    function fetchOrders(\n        int256 fromID,\n        uint256 maxLength,\n        address buyer,\n        address seller,\n        OrderState[] memory states,\n        uint256[] memory sourceAssets,\n        uint256 fromDate,\n        uint256 toDate,\n        bool withExpireds\n    ) public view returns (Order[] memory) {\n        uint256 count = 0;\n        Order[] memory _upfrontOrders = new Order[](orders.length);\n\n        if (fromID < 0) {\n            fromID = int256(orders.length);\n        }\n\n        for (int256 i = fromID - 1; i >= 0; i--) {\n            if (count >= maxLength) break;\n\n            Order storage _order = orders[uint256(i)];\n\n            if (!withExpireds && (_order.deadline <= block.timestamp)) {\n                continue;\n            }\n\n            if (buyer != address(0)) {\n                if (_order.buyer != buyer) {\n                    continue;\n                }\n            }\n\n            if (seller != address(0)) {\n                if (_order.seller != seller) {\n                    continue;\n                }\n            }\n\n            if (fromDate > 0) {\n                if (_order.createdAt < fromDate) {\n                    continue;\n                }\n            }\n\n            if (toDate > 0) {\n                if (_order.createdAt > toDate) {\n                    continue;\n                }\n            }\n\n            if (sourceAssets.length > 0) {\n                bool found = false;\n\n                for (uint256 l = 0; l < sourceAssets.length; l++) {\n                    if (_order.sourceAsset == sourceAssets[l]) {\n                        found = true;\n                        break;\n                    }\n                }\n\n                if (!found) continue;\n            }\n\n            if (states.length > 0) {\n                bool found = false;\n\n                for (uint256 l = 0; l < states.length; l++) {\n                    if (_order.state == states[l]) {\n                        found = true;\n                        break;\n                    }\n                }\n\n                if (!found) continue;\n            }\n\n            _upfrontOrders[count] = _order;\n            count++;\n        }\n\n        Order[] memory _orders = new Order[](count);\n\n        for (uint256 i = 0; i < count; i++) {\n            _orders[i] = _upfrontOrders[i];\n        }\n\n        return _orders;\n    }\n\n    function sellerMetrics(address seller)\n        public\n        view\n        returns (\n            uint256 totalSaleOrders,\n            uint256 soldOrders,\n            uint256 deliveredOrders,\n            uint256 cancelledSeller,\n            uint256 cancelledBuyer\n        )\n    {\n        for (uint256 i = 0; i < orders.length; i++) {\n            Order storage _order = orders[uint256(i)];\n\n            if (_order.seller != seller) {\n                continue;\n            }\n\n            totalSaleOrders++;\n\n            if (_order.state == OrderState.Sold) {\n                soldOrders++;\n            }\n\n            if (_order.state == OrderState.Finished) {\n                deliveredOrders++;\n            }\n\n            if (_order.state == OrderState.CancelledBySeller) {\n                cancelledSeller++;\n            }\n\n            if (_order.state == OrderState.CancelledByBuyer) {\n                cancelledBuyer++;\n            }\n        }\n\n        soldOrders += cancelledBuyer + cancelledSeller + deliveredOrders;\n    }\n\n    function buyerMetrics(address buyer)\n        public\n        view\n        returns (\n            uint256 boughtOrders,\n            uint256 deliveredOrders,\n            uint256 cancelledSeller,\n            uint256 cancelledBuyer\n        )\n    {\n        for (uint256 i = 0; i < orders.length; i++) {\n            Order storage _order = orders[uint256(i)];\n\n            if (_order.buyer != buyer) {\n                continue;\n            }\n\n            if (_order.state == OrderState.Sold) {\n                boughtOrders++;\n            }\n\n            if (_order.state == OrderState.Finished) {\n                deliveredOrders++;\n            }\n\n            if (_order.state == OrderState.CancelledBySeller) {\n                cancelledSeller++;\n            }\n\n            if (_order.state == OrderState.CancelledByBuyer) {\n                cancelledBuyer++;\n            }\n        }\n\n        boughtOrders += cancelledSeller + cancelledBuyer + deliveredOrders;\n    }\n}\n",
  "sourcePath": "/Users/bulwark/Projects/ecosc/bazaar/contracts/Bazaar.sol",
  "compiler": {
    "name": "solc",
    "version": "0.8.11+commit.d7f03943.Emscripten.clang"
  },
  "schemaVersion": "3.4.4",
  "updatedAt": "2022-03-01T10:07:59.408Z",
  "networkType": "ethereum",
  "devdoc": {
    "kind": "dev",
    "methods": {
      "addAllowedSourceAsset(string)": {
        "details": "add new allowed source asset"
      },
      "approveDelivery(uint256)": {
        "details": "buyer approves that recieved asset"
      },
      "buy(uint256)": {
        "details": "buy an asset"
      },
      "cancelForBuyer(uint256)": {
        "details": "buyer cancels an order after bought"
      },
      "cancelForSeller(uint256)": {
        "details": "seller cancels an order after sold"
      },
      "close(uint256)": {
        "details": "seller closes an order before its get expired"
      },
      "disableAllowedSourceAsset(uint256)": {
        "details": "disable allowed source asset"
      },
      "enableAllowedSourceAsset(uint256)": {
        "details": "enable allowed source asset"
      },
      "fetchOrders(int256,uint256,address,address,uint8[],uint256[],uint256,uint256,bool)": {
        "details": "filters orders by give filters"
      },
      "owner()": {
        "details": "Returns the address of the current owner."
      },
      "placeOrder(uint256,uint256,address,uint256,uint256)": {
        "details": "create a new order"
      },
      "renounceOwnership()": {
        "details": "Leaves the contract without owner. It will not be possible to call `onlyOwner` functions anymore. Can only be called by the current owner. NOTE: Renouncing ownership will leave the contract without an owner, thereby removing any functionality that is only available to the owner."
      },
      "setBuyFee(uint256)": {
        "details": "set buy fee"
      },
      "setCancellationFee(uint256)": {
        "details": "set cancellation fee"
      },
      "setCloseFee(uint256)": {
        "details": "set close fee"
      },
      "setFeeTo(address)": {
        "details": "set fee to account"
      },
      "setFeeToSetter(address)": {
        "details": "set fee to setter account"
      },
      "setGuaranteePercent(uint256)": {
        "details": "set guarantee percent"
      },
      "setProfile(address)": {
        "details": "change profile contract address"
      },
      "setSellFee(uint256)": {
        "details": "set sell fee"
      },
      "transferOwnership(address)": {
        "details": "Transfers ownership of the contract to a new account (`newOwner`). Can only be called by the current owner."
      },
      "withdraw(uint256)": {
        "details": "withdraw guarantee amount for expired orders"
      }
    },
    "version": 1
  },
  "userdoc": {
    "kind": "user",
    "methods": {},
    "version": 1
  }
}