{
  "contractName": "Profile",
  "abi": [
    {
      "inputs": [
        {
          "internalType": "address",
          "name": "_feeTokenAddress",
          "type": "address"
        }
      ],
      "stateMutability": "nonpayable",
      "type": "constructor"
    },
    {
      "anonymous": false,
      "inputs": [
        {
          "indexed": true,
          "internalType": "address",
          "name": "previousOwner",
          "type": "address"
        },
        {
          "indexed": true,
          "internalType": "address",
          "name": "newOwner",
          "type": "address"
        }
      ],
      "name": "OwnershipTransferred",
      "type": "event"
    },
    {
      "anonymous": false,
      "inputs": [
        {
          "indexed": true,
          "internalType": "address",
          "name": "owner",
          "type": "address"
        }
      ],
      "name": "ProfileCreated",
      "type": "event"
    },
    {
      "inputs": [
        {
          "internalType": "address",
          "name": "",
          "type": "address"
        }
      ],
      "name": "accounts",
      "outputs": [
        {
          "internalType": "string",
          "name": "name",
          "type": "string"
        },
        {
          "internalType": "string",
          "name": "contact",
          "type": "string"
        },
        {
          "internalType": "enum Profile.UserState",
          "name": "state",
          "type": "uint8"
        }
      ],
      "stateMutability": "view",
      "type": "function",
      "constant": true
    },
    {
      "inputs": [],
      "name": "fee",
      "outputs": [
        {
          "internalType": "uint256",
          "name": "",
          "type": "uint256"
        }
      ],
      "stateMutability": "view",
      "type": "function",
      "constant": true
    },
    {
      "inputs": [],
      "name": "feeTo",
      "outputs": [
        {
          "internalType": "address",
          "name": "",
          "type": "address"
        }
      ],
      "stateMutability": "view",
      "type": "function",
      "constant": true
    },
    {
      "inputs": [],
      "name": "feeToSetter",
      "outputs": [
        {
          "internalType": "address",
          "name": "",
          "type": "address"
        }
      ],
      "stateMutability": "view",
      "type": "function",
      "constant": true
    },
    {
      "inputs": [],
      "name": "numAccounts",
      "outputs": [
        {
          "internalType": "uint256",
          "name": "",
          "type": "uint256"
        }
      ],
      "stateMutability": "view",
      "type": "function",
      "constant": true
    },
    {
      "inputs": [],
      "name": "owner",
      "outputs": [
        {
          "internalType": "address",
          "name": "",
          "type": "address"
        }
      ],
      "stateMutability": "view",
      "type": "function",
      "constant": true
    },
    {
      "inputs": [],
      "name": "renounceOwnership",
      "outputs": [],
      "stateMutability": "nonpayable",
      "type": "function"
    },
    {
      "inputs": [
        {
          "internalType": "address",
          "name": "newOwner",
          "type": "address"
        }
      ],
      "name": "transferOwnership",
      "outputs": [],
      "stateMutability": "nonpayable",
      "type": "function"
    },
    {
      "inputs": [
        {
          "internalType": "address",
          "name": "_feeTo",
          "type": "address"
        }
      ],
      "name": "setFeeTo",
      "outputs": [],
      "stateMutability": "nonpayable",
      "type": "function"
    },
    {
      "inputs": [
        {
          "internalType": "address",
          "name": "_feeToSetter",
          "type": "address"
        }
      ],
      "name": "setFeeToSetter",
      "outputs": [],
      "stateMutability": "nonpayable",
      "type": "function"
    },
    {
      "inputs": [
        {
          "internalType": "address",
          "name": "token",
          "type": "address"
        }
      ],
      "name": "setFeeTokenAddress",
      "outputs": [],
      "stateMutability": "nonpayable",
      "type": "function"
    },
    {
      "inputs": [
        {
          "internalType": "uint256",
          "name": "_fee",
          "type": "uint256"
        }
      ],
      "name": "setFee",
      "outputs": [],
      "stateMutability": "nonpayable",
      "type": "function"
    },
    {
      "inputs": [
        {
          "internalType": "string",
          "name": "_name",
          "type": "string"
        },
        {
          "internalType": "string",
          "name": "_contact",
          "type": "string"
        }
      ],
      "name": "createAccount",
      "outputs": [
        {
          "internalType": "uint256",
          "name": "",
          "type": "uint256"
        }
      ],
      "stateMutability": "nonpayable",
      "type": "function"
    },
    {
      "inputs": [
        {
          "internalType": "string",
          "name": "_name",
          "type": "string"
        },
        {
          "internalType": "string",
          "name": "_contact",
          "type": "string"
        }
      ],
      "name": "updateAccount",
      "outputs": [],
      "stateMutability": "nonpayable",
      "type": "function"
    },
    {
      "inputs": [
        {
          "internalType": "address",
          "name": "account",
          "type": "address"
        }
      ],
      "name": "disableAccount",
      "outputs": [],
      "stateMutability": "nonpayable",
      "type": "function"
    },
    {
      "inputs": [
        {
          "internalType": "address",
          "name": "account",
          "type": "address"
        }
      ],
      "name": "registered",
      "outputs": [
        {
          "internalType": "bool",
          "name": "",
          "type": "bool"
        }
      ],
      "stateMutability": "view",
      "type": "function",
      "constant": true
    }
  ],
  "bytecode": "0x60806040523480156200001157600080fd5b5060405162001d8e38038062001d8e833981810160405281019062000037919062000232565b600062000049620001c060201b60201c565b9050806000806101000a81548173ffffffffffffffffffffffffffffffffffffffff021916908373ffffffffffffffffffffffffffffffffffffffff1602179055508073ffffffffffffffffffffffffffffffffffffffff16600073ffffffffffffffffffffffffffffffffffffffff167f8be0079c531659141344cd1fd0a4f28419497f9722a3daafe3b4186f6b6457e060405160405180910390a35080600460006101000a81548173ffffffffffffffffffffffffffffffffffffffff021916908373ffffffffffffffffffffffffffffffffffffffff16021790555033600260006101000a81548173ffffffffffffffffffffffffffffffffffffffff021916908373ffffffffffffffffffffffffffffffffffffffff16021790555033600160006101000a81548173ffffffffffffffffffffffffffffffffffffffff021916908373ffffffffffffffffffffffffffffffffffffffff160217905550678ac7230489e800006003819055505062000264565b600033905090565b600080fd5b600073ffffffffffffffffffffffffffffffffffffffff82169050919050565b6000620001fa82620001cd565b9050919050565b6200020c81620001ed565b81146200021857600080fd5b50565b6000815190506200022c8162000201565b92915050565b6000602082840312156200024b576200024a620001c8565b5b60006200025b848285016200021b565b91505092915050565b611b1a80620002746000396000f3fe608060405234801561001057600080fd5b50600436106101005760003560e01c80638ce25a9311610097578063cf351c1d11610066578063cf351c1d14610289578063ddca3f43146102a5578063f2fde38b146102c3578063f46901ed146102df57610100565b80638ce25a93146102015780638da5cb5b1461021f578063a2e74af61461023d578063b2dd5c071461025957610100565b80635e5c06e2116100d35780635e5c06e21461018d57806369fe0e2d146101bf578063715018a6146101db5780638c79ba3a146101e557610100565b8063017e7e5814610105578063094b7415146101235780631928928714610141578063534c1bdd14610171575b600080fd5b61010d6102fb565b60405161011a91906111fc565b60405180910390f35b61012b610321565b60405161013891906111fc565b60405180910390f35b61015b60048036038101906101569190611371565b610347565b6040516101689190611402565b60405180910390f35b61018b60048036038101906101869190611371565b61052f565b005b6101a760048036038101906101a29190611449565b610697565b6040516101b693929190611575565b60405180910390f35b6101d960048036038101906101d491906115e6565b6107de565b005b6101e361087d565b005b6101ff60048036038101906101fa9190611449565b6109d0565b005b610209610ad3565b6040516102169190611402565b60405180910390f35b610227610ad9565b60405161023491906111fc565b60405180910390f35b61025760048036038101906102529190611449565b610b02565b005b610273600480360381019061026e9190611449565b610bd6565b604051610280919061162e565b60405180910390f35b6102a3600480360381019061029e9190611449565b610c56565b005b6102ad610d2f565b6040516102ba9190611402565b60405180910390f35b6102dd60048036038101906102d89190611449565b610d35565b005b6102f960048036038101906102f49190611449565b610dd6565b005b600160009054906101000a900473ffffffffffffffffffffffffffffffffffffffff1681565b600260009054906101000a900473ffffffffffffffffffffffffffffffffffffffff1681565b600080600660003373ffffffffffffffffffffffffffffffffffffffff1673ffffffffffffffffffffffffffffffffffffffff16815260200190815260200160002090506000600281111561039f5761039e6114fe565b5b8160020160009054906101000a900460ff1660028111156103c3576103c26114fe565b5b14610403576040517f08c379a00000000000000000000000000000000000000000000000000000000081526004016103fa90611695565b60405180910390fd5b600073ffffffffffffffffffffffffffffffffffffffff16600160009054906101000a900473ffffffffffffffffffffffffffffffffffffffff1673ffffffffffffffffffffffffffffffffffffffff16146104ac576104ab600460009054906101000a900473ffffffffffffffffffffffffffffffffffffffff1633600160009054906101000a900473ffffffffffffffffffffffffffffffffffffffff16600354610eaa565b5b600560008154809291906104bf906116e4565b9190505550838160000190805190602001906104dc929190611118565b50828160010190805190602001906104f5929190611118565b5060018160020160006101000a81548160ff0219169083600281111561051e5761051d6114fe565b5b021790555060055491505092915050565b60016002811115610543576105426114fe565b5b600660003373ffffffffffffffffffffffffffffffffffffffff1673ffffffffffffffffffffffffffffffffffffffff16815260200190815260200160002060020160009054906101000a900460ff1660028111156105a5576105a46114fe565b5b146105e5576040517f08c379a00000000000000000000000000000000000000000000000000000000081526004016105dc90611779565b60405180910390fd5b81600660003373ffffffffffffffffffffffffffffffffffffffff1673ffffffffffffffffffffffffffffffffffffffff168152602001908152602001600020600001908051906020019061063b929190611118565b5080600660003373ffffffffffffffffffffffffffffffffffffffff1673ffffffffffffffffffffffffffffffffffffffff1681526020019081526020016000206001019080519060200190610692929190611118565b505050565b60066020528060005260406000206000915090508060000180546106ba906117c8565b80601f01602080910402602001604051908101604052809291908181526020018280546106e6906117c8565b80156107335780601f1061070857610100808354040283529160200191610733565b820191906000526020600020905b81548152906001019060200180831161071657829003601f168201915b505050505090806001018054610748906117c8565b80601f0160208091040260200160405190810160405280929190818152602001828054610774906117c8565b80156107c15780601f10610796576101008083540402835291602001916107c1565b820191906000526020600020905b8154815290600101906020018083116107a457829003601f168201915b5050505050908060020160009054906101000a900460ff16905083565b6107e6610fe3565b73ffffffffffffffffffffffffffffffffffffffff1660008054906101000a900473ffffffffffffffffffffffffffffffffffffffff1673ffffffffffffffffffffffffffffffffffffffff1614610873576040517f08c379a000000000000000000000000000000000000000000000000000000000815260040161086a90611846565b60405180910390fd5b8060038190555050565b610885610fe3565b73ffffffffffffffffffffffffffffffffffffffff1660008054906101000a900473ffffffffffffffffffffffffffffffffffffffff1673ffffffffffffffffffffffffffffffffffffffff1614610912576040517f08c379a000000000000000000000000000000000000000000000000000000000815260040161090990611846565b60405180910390fd5b600073ffffffffffffffffffffffffffffffffffffffff1660008054906101000a900473ffffffffffffffffffffffffffffffffffffffff1673ffffffffffffffffffffffffffffffffffffffff167f8be0079c531659141344cd1fd0a4f28419497f9722a3daafe3b4186f6b6457e060405160405180910390a360008060006101000a81548173ffffffffffffffffffffffffffffffffffffffff021916908373ffffffffffffffffffffffffffffffffffffffff160217905550565b6109d8610fe3565b73ffffffffffffffffffffffffffffffffffffffff1660008054906101000a900473ffffffffffffffffffffffffffffffffffffffff1673ffffffffffffffffffffffffffffffffffffffff1614610a65576040517f08c379a0000000000000000000000000000000000000000000000000000000008152600401610a5c90611846565b60405180910390fd5b6002600660008373ffffffffffffffffffffffffffffffffffffffff1673ffffffffffffffffffffffffffffffffffffffff16815260200190815260200160002060020160006101000a81548160ff02191690836002811115610acb57610aca6114fe565b5b021790555050565b60055481565b60008060009054906101000a900473ffffffffffffffffffffffffffffffffffffffff16905090565b600260009054906101000a900473ffffffffffffffffffffffffffffffffffffffff1673ffffffffffffffffffffffffffffffffffffffff163373ffffffffffffffffffffffffffffffffffffffff1614610b92576040517f08c379a0000000000000000000000000000000000000000000000000000000008152600401610b89906118b2565b60405180910390fd5b80600260006101000a81548173ffffffffffffffffffffffffffffffffffffffff021916908373ffffffffffffffffffffffffffffffffffffffff16021790555050565b600060016002811115610bec57610beb6114fe565b5b600660008473ffffffffffffffffffffffffffffffffffffffff1673ffffffffffffffffffffffffffffffffffffffff16815260200190815260200160002060020160009054906101000a900460ff166002811115610c4e57610c4d6114fe565b5b149050919050565b610c5e610fe3565b73ffffffffffffffffffffffffffffffffffffffff1660008054906101000a900473ffffffffffffffffffffffffffffffffffffffff1673ffffffffffffffffffffffffffffffffffffffff1614610ceb576040517f08c379a0000000000000000000000000000000000000000000000000000000008152600401610ce290611846565b60405180910390fd5b80600460006101000a81548173ffffffffffffffffffffffffffffffffffffffff021916908373ffffffffffffffffffffffffffffffffffffffff16021790555050565b60035481565b610d3d610fe3565b73ffffffffffffffffffffffffffffffffffffffff1660008054906101000a900473ffffffffffffffffffffffffffffffffffffffff1673ffffffffffffffffffffffffffffffffffffffff1614610dca576040517f08c379a0000000000000000000000000000000000000000000000000000000008152600401610dc190611846565b60405180910390fd5b610dd381610feb565b50565b600260009054906101000a900473ffffffffffffffffffffffffffffffffffffffff1673ffffffffffffffffffffffffffffffffffffffff163373ffffffffffffffffffffffffffffffffffffffff1614610e66576040517f08c379a0000000000000000000000000000000000000000000000000000000008152600401610e5d906118b2565b60405180910390fd5b80600160006101000a81548173ffffffffffffffffffffffffffffffffffffffff021916908373ffffffffffffffffffffffffffffffffffffffff16021790555050565b6000808573ffffffffffffffffffffffffffffffffffffffff166323b872dd868686604051602401610ede939291906118d2565b6040516020818303038152906040529060e01b6020820180517bffffffffffffffffffffffffffffffffffffffffffffffffffffffff8381831617835250505050604051610f2c9190611950565b6000604051808303816000865af19150503d8060008114610f69576040519150601f19603f3d011682016040523d82523d6000602084013e610f6e565b606091505b5091509150818015610f9c5750600081511480610f9b575080806020019051810190610f9a9190611993565b5b5b610fdb576040517f08c379a0000000000000000000000000000000000000000000000000000000008152600401610fd290611a32565b60405180910390fd5b505050505050565b600033905090565b600073ffffffffffffffffffffffffffffffffffffffff168173ffffffffffffffffffffffffffffffffffffffff16141561105b576040517f08c379a000000000000000000000000000000000000000000000000000000000815260040161105290611ac4565b60405180910390fd5b8073ffffffffffffffffffffffffffffffffffffffff1660008054906101000a900473ffffffffffffffffffffffffffffffffffffffff1673ffffffffffffffffffffffffffffffffffffffff167f8be0079c531659141344cd1fd0a4f28419497f9722a3daafe3b4186f6b6457e060405160405180910390a3806000806101000a81548173ffffffffffffffffffffffffffffffffffffffff021916908373ffffffffffffffffffffffffffffffffffffffff16021790555050565b828054611124906117c8565b90600052602060002090601f016020900481019282611146576000855561118d565b82601f1061115f57805160ff191683800117855561118d565b8280016001018555821561118d579182015b8281111561118c578251825591602001919060010190611171565b5b50905061119a919061119e565b5090565b5b808211156111b757600081600090555060010161119f565b5090565b600073ffffffffffffffffffffffffffffffffffffffff82169050919050565b60006111e6826111bb565b9050919050565b6111f6816111db565b82525050565b600060208201905061121160008301846111ed565b92915050565b6000604051905090565b600080fd5b600080fd5b600080fd5b600080fd5b6000601f19601f8301169050919050565b7f4e487b7100000000000000000000000000000000000000000000000000000000600052604160045260246000fd5b61127e82611235565b810181811067ffffffffffffffff8211171561129d5761129c611246565b5b80604052505050565b60006112b0611217565b90506112bc8282611275565b919050565b600067ffffffffffffffff8211156112dc576112db611246565b5b6112e582611235565b9050602081019050919050565b82818337600083830152505050565b600061131461130f846112c1565b6112a6565b9050828152602081018484840111156113305761132f611230565b5b61133b8482856112f2565b509392505050565b600082601f8301126113585761135761122b565b5b8135611368848260208601611301565b91505092915050565b6000806040838503121561138857611387611221565b5b600083013567ffffffffffffffff8111156113a6576113a5611226565b5b6113b285828601611343565b925050602083013567ffffffffffffffff8111156113d3576113d2611226565b5b6113df85828601611343565b9150509250929050565b6000819050919050565b6113fc816113e9565b82525050565b600060208201905061141760008301846113f3565b92915050565b611426816111db565b811461143157600080fd5b50565b6000813590506114438161141d565b92915050565b60006020828403121561145f5761145e611221565b5b600061146d84828501611434565b91505092915050565b600081519050919050565b600082825260208201905092915050565b60005b838110156114b0578082015181840152602081019050611495565b838111156114bf576000848401525b50505050565b60006114d082611476565b6114da8185611481565b93506114ea818560208601611492565b6114f381611235565b840191505092915050565b7f4e487b7100000000000000000000000000000000000000000000000000000000600052602160045260246000fd5b6003811061153e5761153d6114fe565b5b50565b600081905061154f8261152d565b919050565b600061155f82611541565b9050919050565b61156f81611554565b82525050565b6000606082019050818103600083015261158f81866114c5565b905081810360208301526115a381856114c5565b90506115b26040830184611566565b949350505050565b6115c3816113e9565b81146115ce57600080fd5b50565b6000813590506115e0816115ba565b92915050565b6000602082840312156115fc576115fb611221565b5b600061160a848285016115d1565b91505092915050565b60008115159050919050565b61162881611613565b82525050565b6000602082019050611643600083018461161f565b92915050565b7f50524f46494c453a20555345525f455849535453000000000000000000000000600082015250565b600061167f601483611481565b915061168a82611649565b602082019050919050565b600060208201905081810360008301526116ae81611672565b9050919050565b7f4e487b7100000000000000000000000000000000000000000000000000000000600052601160045260246000fd5b60006116ef826113e9565b91507fffffffffffffffffffffffffffffffffffffffffffffffffffffffffffffffff821415611722576117216116b5565b5b600182019050919050565b7f50524f46494c453a20555345525f4e4f545f4558495354530000000000000000600082015250565b6000611763601883611481565b915061176e8261172d565b602082019050919050565b6000602082019050818103600083015261179281611756565b9050919050565b7f4e487b7100000000000000000000000000000000000000000000000000000000600052602260045260246000fd5b600060028204905060018216806117e057607f821691505b602082108114156117f4576117f3611799565b5b50919050565b7f4f776e61626c653a2063616c6c6572206973206e6f7420746865206f776e6572600082015250565b6000611830602083611481565b915061183b826117fa565b602082019050919050565b6000602082019050818103600083015261185f81611823565b9050919050565b7f50524f46494c453a20464f5242494444454e0000000000000000000000000000600082015250565b600061189c601283611481565b91506118a782611866565b602082019050919050565b600060208201905081810360008301526118cb8161188f565b9050919050565b60006060820190506118e760008301866111ed565b6118f460208301856111ed565b61190160408301846113f3565b949350505050565b600081519050919050565b600081905092915050565b600061192a82611909565b6119348185611914565b9350611944818560208601611492565b80840191505092915050565b600061195c828461191f565b915081905092915050565b61197081611613565b811461197b57600080fd5b50565b60008151905061198d81611967565b92915050565b6000602082840312156119a9576119a8611221565b5b60006119b78482850161197e565b91505092915050565b7f5472616e7366657248656c7065723a205452414e534645525f46524f4d5f464160008201527f494c454400000000000000000000000000000000000000000000000000000000602082015250565b6000611a1c602483611481565b9150611a27826119c0565b604082019050919050565b60006020820190508181036000830152611a4b81611a0f565b9050919050565b7f4f776e61626c653a206e6577206f776e657220697320746865207a65726f206160008201527f6464726573730000000000000000000000000000000000000000000000000000602082015250565b6000611aae602683611481565b9150611ab982611a52565b604082019050919050565b60006020820190508181036000830152611add81611aa1565b905091905056fea26469706673582212206209641512a71e80c77ff5bfff6b6f505dd5a24ec6c14b8da38fca2fce1200cf64736f6c634300080b0033",
  "immutableReferences": {},
  "source": "// SPDX-License-Identifier: MIT\npragma solidity ^0.8.11;\n\nimport \"./libraries/Ownable.sol\";\nimport \"./libraries/TransferHelper.sol\";\n\ncontract Profile is Ownable {\n    event ProfileCreated(address indexed owner);\n\n    enum UserState {\n        Unknown,\n        Active,\n        Inactive\n    }\n\n    struct UserProfile {\n        string name;\n        string contact;\n        UserState state;\n    }\n\n    address public feeTo;\n    address public feeToSetter;\n\n    uint256 public fee;\n    address feeTokenAddress;\n    uint256 public numAccounts;\n    mapping(address => UserProfile) public accounts;\n\n    constructor(address _feeTokenAddress) {\n        feeTokenAddress = _feeTokenAddress;\n        feeToSetter = msg.sender;\n        feeTo = msg.sender;\n        fee = 10 * 10**18;\n    }\n\n    /**\n     * @dev set fee to account\n     */\n    function setFeeTo(address _feeTo) external {\n        require(msg.sender == feeToSetter, \"PROFILE: FORBIDDEN\");\n        feeTo = _feeTo;\n    }\n\n    /**\n     * @dev set fee to setter account\n     */\n    function setFeeToSetter(address _feeToSetter) external {\n        require(msg.sender == feeToSetter, \"PROFILE: FORBIDDEN\");\n        feeToSetter = _feeToSetter;\n    }\n\n    /**\n     * @dev set fee token address\n     */\n    function setFeeTokenAddress(address token) external onlyOwner {\n        feeTokenAddress = token;\n    }\n\n    /**\n     * @dev set create profile fee\n     */\n    function setFee(uint256 _fee) external onlyOwner {\n        fee = _fee;\n    }\n\n    function createAccount(string memory _name, string memory _contact)\n        public\n        returns (uint256)\n    {\n        UserProfile storage profile = accounts[msg.sender];\n\n        require(profile.state == UserState.Unknown, \"PROFILE: USER_EXISTS\");\n\n        if (feeTo != address(0)) {\n            TransferHelper.safeTransferFrom(\n                feeTokenAddress,\n                msg.sender,\n                feeTo,\n                fee\n            );\n        }\n\n        numAccounts++;\n        profile.name = _name;\n        profile.contact = _contact;\n        profile.state = UserState.Active;\n\n        return numAccounts;\n    }\n\n    function updateAccount(string memory _name, string memory _contact) public {\n        require(\n            accounts[msg.sender].state == UserState.Active,\n            \"PROFILE: USER_NOT_EXISTS\"\n        );\n\n        accounts[msg.sender].name = _name;\n        accounts[msg.sender].contact = _contact;\n    }\n\n    function disableAccount(address account) public onlyOwner {\n        accounts[account].state = UserState.Inactive;\n    }\n\n    function registered(address account) public view returns (bool) {\n        return accounts[account].state == UserState.Active;\n    }\n}\n",
  "sourcePath": "/Users/bulwark/Projects/ecosc/bazaar/contracts/Profile.sol",
  "compiler": {
    "name": "solc",
    "version": "0.8.11+commit.d7f03943.Emscripten.clang"
  },
  "schemaVersion": "3.4.4",
  "updatedAt": "2022-02-18T18:54:21.725Z",
  "networkType": "ethereum",
  "devdoc": {
    "kind": "dev",
    "methods": {
      "owner()": {
        "details": "Returns the address of the current owner."
      },
      "renounceOwnership()": {
        "details": "Leaves the contract without owner. It will not be possible to call `onlyOwner` functions anymore. Can only be called by the current owner. NOTE: Renouncing ownership will leave the contract without an owner, thereby removing any functionality that is only available to the owner."
      },
      "setFee(uint256)": {
        "details": "set create profile fee"
      },
      "setFeeTo(address)": {
        "details": "set fee to account"
      },
      "setFeeToSetter(address)": {
        "details": "set fee to setter account"
      },
      "setFeeTokenAddress(address)": {
        "details": "set fee token address"
      },
      "transferOwnership(address)": {
        "details": "Transfers ownership of the contract to a new account (`newOwner`). Can only be called by the current owner."
      }
    },
    "version": 1
  },
  "userdoc": {
    "kind": "user",
    "methods": {},
    "version": 1
  }
}