{
  "contractName": "Profile",
  "abi": [
    {
      "inputs": [
        {
          "internalType": "address",
          "name": "_ecoAddress",
          "type": "address"
        }
      ],
      "stateMutability": "nonpayable",
      "type": "constructor"
    },
    {
      "anonymous": false,
      "inputs": [
        {
          "indexed": true,
          "internalType": "address",
          "name": "previousOwner",
          "type": "address"
        },
        {
          "indexed": true,
          "internalType": "address",
          "name": "newOwner",
          "type": "address"
        }
      ],
      "name": "OwnershipTransferred",
      "type": "event"
    },
    {
      "anonymous": false,
      "inputs": [
        {
          "indexed": true,
          "internalType": "address",
          "name": "owner",
          "type": "address"
        }
      ],
      "name": "ProfileCreated",
      "type": "event"
    },
    {
      "inputs": [
        {
          "internalType": "address",
          "name": "",
          "type": "address"
        }
      ],
      "name": "accounts",
      "outputs": [
        {
          "internalType": "string",
          "name": "name",
          "type": "string"
        },
        {
          "internalType": "string",
          "name": "contact",
          "type": "string"
        },
        {
          "internalType": "enum Profile.UserState",
          "name": "state",
          "type": "uint8"
        }
      ],
      "stateMutability": "view",
      "type": "function"
    },
    {
      "inputs": [],
      "name": "fee",
      "outputs": [
        {
          "internalType": "uint256",
          "name": "",
          "type": "uint256"
        }
      ],
      "stateMutability": "view",
      "type": "function"
    },
    {
      "inputs": [],
      "name": "feeTo",
      "outputs": [
        {
          "internalType": "address",
          "name": "",
          "type": "address"
        }
      ],
      "stateMutability": "view",
      "type": "function"
    },
    {
      "inputs": [],
      "name": "feeToSetter",
      "outputs": [
        {
          "internalType": "address",
          "name": "",
          "type": "address"
        }
      ],
      "stateMutability": "view",
      "type": "function"
    },
    {
      "inputs": [],
      "name": "numAccounts",
      "outputs": [
        {
          "internalType": "uint256",
          "name": "",
          "type": "uint256"
        }
      ],
      "stateMutability": "view",
      "type": "function"
    },
    {
      "inputs": [],
      "name": "owner",
      "outputs": [
        {
          "internalType": "address",
          "name": "",
          "type": "address"
        }
      ],
      "stateMutability": "view",
      "type": "function"
    },
    {
      "inputs": [],
      "name": "renounceOwnership",
      "outputs": [],
      "stateMutability": "nonpayable",
      "type": "function"
    },
    {
      "inputs": [
        {
          "internalType": "address",
          "name": "newOwner",
          "type": "address"
        }
      ],
      "name": "transferOwnership",
      "outputs": [],
      "stateMutability": "nonpayable",
      "type": "function"
    },
    {
      "inputs": [
        {
          "internalType": "address",
          "name": "_feeTo",
          "type": "address"
        }
      ],
      "name": "setFeeTo",
      "outputs": [],
      "stateMutability": "nonpayable",
      "type": "function"
    },
    {
      "inputs": [
        {
          "internalType": "address",
          "name": "_feeToSetter",
          "type": "address"
        }
      ],
      "name": "setFeeToSetter",
      "outputs": [],
      "stateMutability": "nonpayable",
      "type": "function"
    },
    {
      "inputs": [
        {
          "internalType": "string",
          "name": "_name",
          "type": "string"
        },
        {
          "internalType": "string",
          "name": "_contact",
          "type": "string"
        }
      ],
      "name": "createAccount",
      "outputs": [
        {
          "internalType": "uint256",
          "name": "",
          "type": "uint256"
        }
      ],
      "stateMutability": "nonpayable",
      "type": "function"
    },
    {
      "inputs": [
        {
          "internalType": "string",
          "name": "_name",
          "type": "string"
        },
        {
          "internalType": "string",
          "name": "_contact",
          "type": "string"
        }
      ],
      "name": "updateAccount",
      "outputs": [],
      "stateMutability": "nonpayable",
      "type": "function"
    },
    {
      "inputs": [
        {
          "internalType": "address",
          "name": "account",
          "type": "address"
        }
      ],
      "name": "disableAccount",
      "outputs": [],
      "stateMutability": "nonpayable",
      "type": "function"
    },
    {
      "inputs": [
        {
          "internalType": "address",
          "name": "account",
          "type": "address"
        }
      ],
      "name": "registered",
      "outputs": [
        {
          "internalType": "bool",
          "name": "",
          "type": "bool"
        }
      ],
      "stateMutability": "view",
      "type": "function"
    }
  ],
  "bytecode": "0x60806040523480156200001157600080fd5b5060405162001b6f38038062001b6f833981810160405281019062000037919062000232565b600062000049620001c060201b60201c565b9050806000806101000a81548173ffffffffffffffffffffffffffffffffffffffff021916908373ffffffffffffffffffffffffffffffffffffffff1602179055508073ffffffffffffffffffffffffffffffffffffffff16600073ffffffffffffffffffffffffffffffffffffffff167f8be0079c531659141344cd1fd0a4f28419497f9722a3daafe3b4186f6b6457e060405160405180910390a35080600460006101000a81548173ffffffffffffffffffffffffffffffffffffffff021916908373ffffffffffffffffffffffffffffffffffffffff16021790555033600260006101000a81548173ffffffffffffffffffffffffffffffffffffffff021916908373ffffffffffffffffffffffffffffffffffffffff16021790555033600160006101000a81548173ffffffffffffffffffffffffffffffffffffffff021916908373ffffffffffffffffffffffffffffffffffffffff160217905550678ac7230489e800006003819055505062000264565b600033905090565b600080fd5b600073ffffffffffffffffffffffffffffffffffffffff82169050919050565b6000620001fa82620001cd565b9050919050565b6200020c81620001ed565b81146200021857600080fd5b50565b6000815190506200022c8162000201565b92915050565b6000602082840312156200024b576200024a620001c8565b5b60006200025b848285016200021b565b91505092915050565b6118fb80620002746000396000f3fe608060405234801561001057600080fd5b50600436106100ea5760003560e01c80638ce25a931161008c578063b2dd5c0711610066578063b2dd5c0714610227578063ddca3f4314610257578063f2fde38b14610275578063f46901ed14610291576100ea565b80638ce25a93146101cf5780638da5cb5b146101ed578063a2e74af61461020b576100ea565b8063534c1bdd116100c8578063534c1bdd1461015b5780635e5c06e214610177578063715018a6146101a95780638c79ba3a146101b3576100ea565b8063017e7e58146100ef578063094b74151461010d578063192892871461012b575b600080fd5b6100f76102ad565b6040516101049190611036565b60405180910390f35b6101156102d3565b6040516101229190611036565b60405180910390f35b610145600480360381019061014091906111ab565b6102f9565b604051610152919061123c565b60405180910390f35b610175600480360381019061017091906111ab565b6104e1565b005b610191600480360381019061018c9190611283565b610649565b6040516101a0939291906113af565b60405180910390f35b6101b1610790565b005b6101cd60048036038101906101c89190611283565b6108e3565b005b6101d76109e6565b6040516101e4919061123c565b60405180910390f35b6101f56109ec565b6040516102029190611036565b60405180910390f35b61022560048036038101906102209190611283565b610a15565b005b610241600480360381019061023c9190611283565b610ae9565b60405161024e919061140f565b60405180910390f35b61025f610b69565b60405161026c919061123c565b60405180910390f35b61028f600480360381019061028a9190611283565b610b6f565b005b6102ab60048036038101906102a69190611283565b610c10565b005b600160009054906101000a900473ffffffffffffffffffffffffffffffffffffffff1681565b600260009054906101000a900473ffffffffffffffffffffffffffffffffffffffff1681565b600080600660003373ffffffffffffffffffffffffffffffffffffffff1673ffffffffffffffffffffffffffffffffffffffff16815260200190815260200160002090506000600281111561035157610350611338565b5b8160020160009054906101000a900460ff16600281111561037557610374611338565b5b146103b5576040517f08c379a00000000000000000000000000000000000000000000000000000000081526004016103ac90611476565b60405180910390fd5b600073ffffffffffffffffffffffffffffffffffffffff16600160009054906101000a900473ffffffffffffffffffffffffffffffffffffffff1673ffffffffffffffffffffffffffffffffffffffff161461045e5761045d600460009054906101000a900473ffffffffffffffffffffffffffffffffffffffff1633600160009054906101000a900473ffffffffffffffffffffffffffffffffffffffff16600354610ce4565b5b60056000815480929190610471906114c5565b91905055508381600001908051906020019061048e929190610f52565b50828160010190805190602001906104a7929190610f52565b5060018160020160006101000a81548160ff021916908360028111156104d0576104cf611338565b5b021790555060055491505092915050565b600160028111156104f5576104f4611338565b5b600660003373ffffffffffffffffffffffffffffffffffffffff1673ffffffffffffffffffffffffffffffffffffffff16815260200190815260200160002060020160009054906101000a900460ff16600281111561055757610556611338565b5b14610597576040517f08c379a000000000000000000000000000000000000000000000000000000000815260040161058e9061155a565b60405180910390fd5b81600660003373ffffffffffffffffffffffffffffffffffffffff1673ffffffffffffffffffffffffffffffffffffffff16815260200190815260200160002060000190805190602001906105ed929190610f52565b5080600660003373ffffffffffffffffffffffffffffffffffffffff1673ffffffffffffffffffffffffffffffffffffffff1681526020019081526020016000206001019080519060200190610644929190610f52565b505050565b600660205280600052604060002060009150905080600001805461066c906115a9565b80601f0160208091040260200160405190810160405280929190818152602001828054610698906115a9565b80156106e55780601f106106ba576101008083540402835291602001916106e5565b820191906000526020600020905b8154815290600101906020018083116106c857829003601f168201915b5050505050908060010180546106fa906115a9565b80601f0160208091040260200160405190810160405280929190818152602001828054610726906115a9565b80156107735780601f1061074857610100808354040283529160200191610773565b820191906000526020600020905b81548152906001019060200180831161075657829003601f168201915b5050505050908060020160009054906101000a900460ff16905083565b610798610e1d565b73ffffffffffffffffffffffffffffffffffffffff1660008054906101000a900473ffffffffffffffffffffffffffffffffffffffff1673ffffffffffffffffffffffffffffffffffffffff1614610825576040517f08c379a000000000000000000000000000000000000000000000000000000000815260040161081c90611627565b60405180910390fd5b600073ffffffffffffffffffffffffffffffffffffffff1660008054906101000a900473ffffffffffffffffffffffffffffffffffffffff1673ffffffffffffffffffffffffffffffffffffffff167f8be0079c531659141344cd1fd0a4f28419497f9722a3daafe3b4186f6b6457e060405160405180910390a360008060006101000a81548173ffffffffffffffffffffffffffffffffffffffff021916908373ffffffffffffffffffffffffffffffffffffffff160217905550565b6108eb610e1d565b73ffffffffffffffffffffffffffffffffffffffff1660008054906101000a900473ffffffffffffffffffffffffffffffffffffffff1673ffffffffffffffffffffffffffffffffffffffff1614610978576040517f08c379a000000000000000000000000000000000000000000000000000000000815260040161096f90611627565b60405180910390fd5b6002600660008373ffffffffffffffffffffffffffffffffffffffff1673ffffffffffffffffffffffffffffffffffffffff16815260200190815260200160002060020160006101000a81548160ff021916908360028111156109de576109dd611338565b5b021790555050565b60055481565b60008060009054906101000a900473ffffffffffffffffffffffffffffffffffffffff16905090565b600260009054906101000a900473ffffffffffffffffffffffffffffffffffffffff1673ffffffffffffffffffffffffffffffffffffffff163373ffffffffffffffffffffffffffffffffffffffff1614610aa5576040517f08c379a0000000000000000000000000000000000000000000000000000000008152600401610a9c90611693565b60405180910390fd5b80600260006101000a81548173ffffffffffffffffffffffffffffffffffffffff021916908373ffffffffffffffffffffffffffffffffffffffff16021790555050565b600060016002811115610aff57610afe611338565b5b600660008473ffffffffffffffffffffffffffffffffffffffff1673ffffffffffffffffffffffffffffffffffffffff16815260200190815260200160002060020160009054906101000a900460ff166002811115610b6157610b60611338565b5b149050919050565b60035481565b610b77610e1d565b73ffffffffffffffffffffffffffffffffffffffff1660008054906101000a900473ffffffffffffffffffffffffffffffffffffffff1673ffffffffffffffffffffffffffffffffffffffff1614610c04576040517f08c379a0000000000000000000000000000000000000000000000000000000008152600401610bfb90611627565b60405180910390fd5b610c0d81610e25565b50565b600260009054906101000a900473ffffffffffffffffffffffffffffffffffffffff1673ffffffffffffffffffffffffffffffffffffffff163373ffffffffffffffffffffffffffffffffffffffff1614610ca0576040517f08c379a0000000000000000000000000000000000000000000000000000000008152600401610c9790611693565b60405180910390fd5b80600160006101000a81548173ffffffffffffffffffffffffffffffffffffffff021916908373ffffffffffffffffffffffffffffffffffffffff16021790555050565b6000808573ffffffffffffffffffffffffffffffffffffffff166323b872dd868686604051602401610d18939291906116b3565b6040516020818303038152906040529060e01b6020820180517bffffffffffffffffffffffffffffffffffffffffffffffffffffffff8381831617835250505050604051610d669190611731565b6000604051808303816000865af19150503d8060008114610da3576040519150601f19603f3d011682016040523d82523d6000602084013e610da8565b606091505b5091509150818015610dd65750600081511480610dd5575080806020019051810190610dd49190611774565b5b5b610e15576040517f08c379a0000000000000000000000000000000000000000000000000000000008152600401610e0c90611813565b60405180910390fd5b505050505050565b600033905090565b600073ffffffffffffffffffffffffffffffffffffffff168173ffffffffffffffffffffffffffffffffffffffff161415610e95576040517f08c379a0000000000000000000000000000000000000000000000000000000008152600401610e8c906118a5565b60405180910390fd5b8073ffffffffffffffffffffffffffffffffffffffff1660008054906101000a900473ffffffffffffffffffffffffffffffffffffffff1673ffffffffffffffffffffffffffffffffffffffff167f8be0079c531659141344cd1fd0a4f28419497f9722a3daafe3b4186f6b6457e060405160405180910390a3806000806101000a81548173ffffffffffffffffffffffffffffffffffffffff021916908373ffffffffffffffffffffffffffffffffffffffff16021790555050565b828054610f5e906115a9565b90600052602060002090601f016020900481019282610f805760008555610fc7565b82601f10610f9957805160ff1916838001178555610fc7565b82800160010185558215610fc7579182015b82811115610fc6578251825591602001919060010190610fab565b5b509050610fd49190610fd8565b5090565b5b80821115610ff1576000816000905550600101610fd9565b5090565b600073ffffffffffffffffffffffffffffffffffffffff82169050919050565b600061102082610ff5565b9050919050565b61103081611015565b82525050565b600060208201905061104b6000830184611027565b92915050565b6000604051905090565b600080fd5b600080fd5b600080fd5b600080fd5b6000601f19601f8301169050919050565b7f4e487b7100000000000000000000000000000000000000000000000000000000600052604160045260246000fd5b6110b88261106f565b810181811067ffffffffffffffff821117156110d7576110d6611080565b5b80604052505050565b60006110ea611051565b90506110f682826110af565b919050565b600067ffffffffffffffff82111561111657611115611080565b5b61111f8261106f565b9050602081019050919050565b82818337600083830152505050565b600061114e611149846110fb565b6110e0565b90508281526020810184848401111561116a5761116961106a565b5b61117584828561112c565b509392505050565b600082601f83011261119257611191611065565b5b81356111a284826020860161113b565b91505092915050565b600080604083850312156111c2576111c161105b565b5b600083013567ffffffffffffffff8111156111e0576111df611060565b5b6111ec8582860161117d565b925050602083013567ffffffffffffffff81111561120d5761120c611060565b5b6112198582860161117d565b9150509250929050565b6000819050919050565b61123681611223565b82525050565b6000602082019050611251600083018461122d565b92915050565b61126081611015565b811461126b57600080fd5b50565b60008135905061127d81611257565b92915050565b6000602082840312156112995761129861105b565b5b60006112a78482850161126e565b91505092915050565b600081519050919050565b600082825260208201905092915050565b60005b838110156112ea5780820151818401526020810190506112cf565b838111156112f9576000848401525b50505050565b600061130a826112b0565b61131481856112bb565b93506113248185602086016112cc565b61132d8161106f565b840191505092915050565b7f4e487b7100000000000000000000000000000000000000000000000000000000600052602160045260246000fd5b6003811061137857611377611338565b5b50565b600081905061138982611367565b919050565b60006113998261137b565b9050919050565b6113a98161138e565b82525050565b600060608201905081810360008301526113c981866112ff565b905081810360208301526113dd81856112ff565b90506113ec60408301846113a0565b949350505050565b60008115159050919050565b611409816113f4565b82525050565b60006020820190506114246000830184611400565b92915050565b7f50524f46494c453a20555345525f455849535453000000000000000000000000600082015250565b60006114606014836112bb565b915061146b8261142a565b602082019050919050565b6000602082019050818103600083015261148f81611453565b9050919050565b7f4e487b7100000000000000000000000000000000000000000000000000000000600052601160045260246000fd5b60006114d082611223565b91507fffffffffffffffffffffffffffffffffffffffffffffffffffffffffffffffff82141561150357611502611496565b5b600182019050919050565b7f50524f46494c453a20555345525f4e4f545f4558495354530000000000000000600082015250565b60006115446018836112bb565b915061154f8261150e565b602082019050919050565b6000602082019050818103600083015261157381611537565b9050919050565b7f4e487b7100000000000000000000000000000000000000000000000000000000600052602260045260246000fd5b600060028204905060018216806115c157607f821691505b602082108114156115d5576115d461157a565b5b50919050565b7f4f776e61626c653a2063616c6c6572206973206e6f7420746865206f776e6572600082015250565b60006116116020836112bb565b915061161c826115db565b602082019050919050565b6000602082019050818103600083015261164081611604565b9050919050565b7f50524f46494c453a20464f5242494444454e0000000000000000000000000000600082015250565b600061167d6012836112bb565b915061168882611647565b602082019050919050565b600060208201905081810360008301526116ac81611670565b9050919050565b60006060820190506116c86000830186611027565b6116d56020830185611027565b6116e2604083018461122d565b949350505050565b600081519050919050565b600081905092915050565b600061170b826116ea565b61171581856116f5565b93506117258185602086016112cc565b80840191505092915050565b600061173d8284611700565b915081905092915050565b611751816113f4565b811461175c57600080fd5b50565b60008151905061176e81611748565b92915050565b60006020828403121561178a5761178961105b565b5b60006117988482850161175f565b91505092915050565b7f5472616e7366657248656c7065723a205452414e534645525f46524f4d5f464160008201527f494c454400000000000000000000000000000000000000000000000000000000602082015250565b60006117fd6024836112bb565b9150611808826117a1565b604082019050919050565b6000602082019050818103600083015261182c816117f0565b9050919050565b7f4f776e61626c653a206e6577206f776e657220697320746865207a65726f206160008201527f6464726573730000000000000000000000000000000000000000000000000000602082015250565b600061188f6026836112bb565b915061189a82611833565b604082019050919050565b600060208201905081810360008301526118be81611882565b905091905056fea2646970667358221220f994f3bc2126835d7b24e1b1008c239f93d9a2f338d3740bb6cd4af558931bd764736f6c634300080b0033",
  "immutableReferences": {},
  "source": "// SPDX-License-Identifier: MIT\npragma solidity ^0.8.11;\n\nimport \"./libraries/Ownable.sol\";\nimport \"./libraries/TransferHelper.sol\";\n\ncontract Profile is Ownable {\n    event ProfileCreated(address indexed owner);\n\n    enum UserState {\n        Unknown,\n        Active,\n        Inactive\n    }\n\n    struct UserProfile {\n        string name;\n        string contact;\n        UserState state;\n    }\n\n    address public feeTo;\n    address public feeToSetter;\n\n    uint256 public fee;\n    address ecoAddress;\n    uint256 public numAccounts;\n    mapping(address => UserProfile) public accounts;\n\n    constructor(address _ecoAddress) {\n        ecoAddress = _ecoAddress;\n        feeToSetter = msg.sender;\n        feeTo = msg.sender;\n        fee = 10 * 10**18;\n    }\n\n    /**\n     * @dev set fee to account\n     */\n    function setFeeTo(address _feeTo) external {\n        require(msg.sender == feeToSetter, \"PROFILE: FORBIDDEN\");\n        feeTo = _feeTo;\n    }\n\n    /**\n     * @dev set fee to setter account\n     */\n    function setFeeToSetter(address _feeToSetter) external {\n        require(msg.sender == feeToSetter, \"PROFILE: FORBIDDEN\");\n        feeToSetter = _feeToSetter;\n    }\n\n    function createAccount(string memory _name, string memory _contact)\n        public\n        returns (uint256)\n    {\n        UserProfile storage profile = accounts[msg.sender];\n\n        require(profile.state == UserState.Unknown, \"PROFILE: USER_EXISTS\");\n\n        if (feeTo != address(0)) {\n            TransferHelper.safeTransferFrom(ecoAddress, msg.sender, feeTo, fee);\n        }\n\n        numAccounts++;\n        profile.name = _name;\n        profile.contact = _contact;\n        profile.state = UserState.Active;\n\n        return numAccounts;\n    }\n\n    function updateAccount(string memory _name, string memory _contact) public {\n        require(\n            accounts[msg.sender].state == UserState.Active,\n            \"PROFILE: USER_NOT_EXISTS\"\n        );\n\n        accounts[msg.sender].name = _name;\n        accounts[msg.sender].contact = _contact;\n    }\n\n    function disableAccount(address account) public onlyOwner {\n        accounts[account].state = UserState.Inactive;\n    }\n\n    function registered(address account) public view returns (bool) {\n        return accounts[account].state == UserState.Active;\n    }\n}\n",
  "sourcePath": "/Users/bulwark/Projects/ecosc/bazaar/contracts/Profile.sol",
  "compiler": {
    "name": "solc",
    "version": "0.8.11+commit.d7f03943.Emscripten.clang"
  },
  "schemaVersion": "3.4.4",
  "updatedAt": "2022-02-18T13:55:53.516Z",
  "devdoc": {
    "kind": "dev",
    "methods": {
      "owner()": {
        "details": "Returns the address of the current owner."
      },
      "renounceOwnership()": {
        "details": "Leaves the contract without owner. It will not be possible to call `onlyOwner` functions anymore. Can only be called by the current owner. NOTE: Renouncing ownership will leave the contract without an owner, thereby removing any functionality that is only available to the owner."
      },
      "setFeeTo(address)": {
        "details": "set fee to account"
      },
      "setFeeToSetter(address)": {
        "details": "set fee to setter account"
      },
      "transferOwnership(address)": {
        "details": "Transfers ownership of the contract to a new account (`newOwner`). Can only be called by the current owner."
      }
    },
    "version": 1
  },
  "userdoc": {
    "kind": "user",
    "methods": {},
    "version": 1
  }
}